:020000040800F2
:10000000005000203D290008ED2900086561000826
:10001000ED290008ED290008ED2900080000000086
:10002000000000000000000000000000ED290008B2
:10003000ED29000800000000ED2900082DA10008AE
:10004000ED290008ED290008ED290008ED29000838
:10005000ED290008ED290008ED290008ED29000828
:10006000ED290008ED290008ED290008ED29000818
:10007000ED290008ED29000859AA0008ED2900081B
:10008000ED290008ED290008ED290008ED290008F8
:10009000ED290008ED290008ED290008ED290008E8
:1000A000ED290008ED290008ED29000811290008B4
:1000B0001D29000825290008312900089D9D0008F8
:1000C0001DA10008A19D000819A10008ED29000844
:1000D000ED2900088DAA0008C9AA0008ED2900082A
:1000E000DD150008ED290008ED29000800000000DA
:1000F0000000000000000000000000000000000000
:0C01000000000000000000005FF808F1A3
:1001100010B5054C237833B9044810B10448AFF347
:1001200000800121217010BDA40500200000000006
:100130007421010808B5064B1BB106480649AFF308
:1001400000800648016811B1054A02B1904708BD18
:100150000000000074210108A8050020A40500206B
:100160000000000081F0004102E000BF83F0004386
:1001700030B54FEA41044FEA430594EA050F08BF42
:1001800090EA020F1FBF54EA000C55EA020C7FEA06
:10019000645C7FEA655C00F0E2804FEA5454D4EB83
:1001A0005555B8BF6D420CDD2C4480EA020281EA4D
:1001B000030382EA000083EA010180EA020281EA85
:1001C0000303362D88BF30BD11F0004F4FEA0131D7
:1001D0004FF4801C4CEA113102D0404261EB4101E6
:1001E00013F0004F4FEA03334CEA133302D052426C
:1001F00063EB430394EA050F00F0A780A4F1010428
:10020000D5F1200E0DDB02FA0EFC22FA05F2801861
:1002100041F1000103FA0EF2801843FA05F3594147
:100220000EE0A5F120050EF1200E012A03FA0EFCC6
:1002300028BF4CF0020C43FA05F3C01851EBE371F0
:1002400001F0004507D54FF0000EDCF1000C7EEB0D
:1002500000006EEB0101B1F5801F1BD3B1F5001F4B
:100260000CD349085FEA30004FEA3C0C04F101046A
:100270004FEA445212F5800F80F09A80BCF1004F93
:1002800008BF5FEA500C50F1000041EB045141EA15
:10029000050130BD5FEA4C0C404141EB010111F416
:1002A000801FA4F10104E9D191F0000F04BF0146C1
:1002B0000020B1FA81F308BF2033A3F10B03B3F19F
:1002C00020020CDA0C3208DD02F1140CC2F10C022F
:1002D00001FA0CF021FA02F10CE002F11402D8BF8D
:1002E000C2F1200C01FA02F120FA0CFCDCBF41EA59
:1002F0000C019040E41AA2BF01EB0451294330BD28
:100300006FEA04041F3C1CDA0C340EDC04F1140404
:10031000C4F1200220FA04F001FA02F340EA0300DB
:1003200021FA04F345EA030130BDC4F10C04C4F121
:10033000200220FA02F001FA04F340EA0300294601
:1003400030BD21FA04F0294630BD94F0000F83F44B
:10035000801306BF81F480110134013D4EE77FEA2E
:10036000645C18BF7FEA655C29D094EA050F08BF7A
:1003700090EA020F05D054EA000C04BF194610465B
:1003800030BD91EA030F1EBF0021002030BD5FEA9F
:10039000545C05D14000494128BF41F0004130BDC7
:1003A00014F580043CBF01F5801130BD01F000451B
:1003B00045F0FE4141F470014FF0000030BD7FEA8E
:1003C000645C1ABF194610467FEA655C1CBF0B4689
:1003D000024650EA013406BF52EA033591EA030FA0
:1003E00041F4002130BD00BF90F0000F04BF002198
:1003F000704730B54FF4806404F132044FF00005CB
:100400004FF0000150E700BF90F0000F04BF002143
:10041000704730B54FF4806404F1320410F00045A9
:1004200048BF40424FF000013EE700BF42004FEAA4
:10043000E2014FEA31014FEA02701FBF12F07F4321
:1004400093F07F4F81F06051704792F0000F14BF1E
:1004500093F07F4F704730B54FF4607401F0004562
:1004600021F0004120E700BF50EA010208BF7047B9
:1004700030B54FF000050AE050EA010208BF7047AE
:1004800030B511F0004502D5404261EB41014FF417
:10049000806404F132045FEA915C3FF4DCAE4FF01B
:1004A00003025FEADC0C18BF03325FEADC0C18BF02
:1004B000033202EBDC02C2F1200300FA03FC20FA53
:1004C00002F001FA03FE40EA0E0021FA02F11444A0
:1004D000C1E600BF70B54FF0FF0C4CF4E06C1CEAB5
:1004E00011541DBF1CEA135594EA0C0F95EA0C0F2A
:1004F00000F0DEF82C4481EA030621EA4C5123EA9D
:100500004C5350EA013518BF52EA033541F48011CB
:1005100043F4801338D0A0FB02CE4FF00005E1FB7E
:1005200002E506F00042E0FB03E54FF00006E1FBC8
:1005300003569CF0000F18BF4EF0010EA4F1FF040B
:10054000B6F5007F64F5407404D25FEA4E0E6D414B
:1005500046EB060642EAC62141EA55514FEAC5205C
:1005600040EA5E504FEACE2EB4F1FD0C88BFBCF5D8
:10057000E06F1ED8BEF1004F08BF5FEA500E50F189
:10058000000041EB045170BD06F0004646EA01014F
:1005900040EA020081EA0301B4EB5C04C2BFD4EB81
:1005A0000C0541EA045170BD41F480114FF0000E7A
:1005B000013C00F3AB8014F1360FDEBF002001F0E8
:1005C000004170BDC4F10004203C35DA0C341BDC62
:1005D00004F11404C4F1200500FA05F320FA04F034
:1005E00001FA05F240EA020001F0004221F0004168
:1005F00010EBD37021FA04F642EB06015EEA430EDB
:1006000008BF20EAD37070BDC4F10C04C4F120050A
:1006100000FA04F320FA05F001FA04F240EA0200BD
:1006200001F0004110EBD37041F100015EEA430E8E
:1006300008BF20EAD37070BDC4F1200500FA05F2AE
:100640004EEA020E20FA04F301FA05F243EA02032D
:1006500021FA04F001F0004121FA04F220EA02003C
:1006600000EBD3705EEA430E08BF20EAD37070BD82
:1006700094F0000F0FD101F00046400041EB010162
:1006800011F4801F08BF013CF7D041EA060195F044
:10069000000F18BF704703F00046520043EB0303FE
:1006A00013F4801F08BF013DF7D043EA06037047EB
:1006B00094EA0C0F0CEA135518BF95EA0C0F0CD0F6
:1006C00050EA410618BF52EA4306D1D181EA03013C
:1006D00001F000414FF0000070BD50EA410606BF36
:1006E0001046194652EA430619D094EA0C0F02D17B
:1006F00050EA013613D195EA0C0F05D152EA0336C0
:100700001CBF104619460AD181EA030101F00041DD
:1007100041F0FE4141F470014FF0000070BD41F026
:10072000FE4141F4780170BD70B54FF0FF0C4CF400
:10073000E06C1CEA11541DBF1CEA135594EA0C0F1F
:1007400095EA0C0F00F0A7F8A4EB050481EA030E6C
:1007500052EA03354FEA013100F088804FEA033353
:100760004FF0805545EA131343EA12634FEA022221
:1007700045EA111545EA10654FEA00260EF00041E2
:100780009D4208BF964244F1FD0404F5407402D234
:100790005B084FEA3202B61A65EB03055B084FEAC5
:1007A00032024FF480104FF4002CB6EB020E75EBC2
:1007B000030E22BFB61A754640EA0C005B084FEAEA
:1007C0003202B6EB020E75EB030E22BFB61A754667
:1007D00040EA5C005B084FEA3202B6EB020E75EBB2
:1007E000030E22BFB61A754640EA9C005B084FEA2A
:1007F0003202B6EB020E75EB030E22BFB61A754637
:1008000040EADC0055EA060E18D04FEA051545EA25
:1008100016754FEA06164FEAC30343EA52734FEACE
:10082000C2025FEA1C1CC0D111F4801F0BD141EA47
:1008300000014FF000004FF0004CB6E711F4801FAC
:1008400004BF01430020B4F1FD0C88BFBCF5E06F8C
:100850003FF6AFAEB5EB030C04BFB6EB020C5FEA9C
:10086000500C50F1000041EB045170BD0EF0004EF1
:100870004EEA113114EB5C04C2BFD4EB0C0541EA23
:10088000045170BD41F480114FF0000E013C90E620
:1008900045EA060E8DE60CEA135594EA0C0F08BFE4
:1008A00095EA0C0F3FF43BAF94EA0C0F0AD150EAE3
:1008B00001347FF434AF95EA0C0F7FF425AF104676
:1008C00019462CE795EA0C0F06D152EA03353FF49E
:1008D000FDAE1046194622E750EA410618BF52EA1B
:1008E00043067FF4C5AE50EA41047FF40DAF52EAEF
:1008F00043057FF4EBAE12E74FF0FF3C06E000BF8C
:100900004FF0010C02E000BF4FF0010C4DF804CD98
:100910004FEA410C7FEA6C5C4FEA430C18BF7FEA58
:100920006C5C1BD001B050EA410C0CBF52EA430C86
:1009300091EA030F02BF90EA020F0020704710F106
:10094000000F91EA030F58BF994208BF90422CBF95
:10095000D8176FEAE37040F0010070474FEA410C8E
:100960007FEA6C5C02D150EA013C07D14FEA430CAC
:100970007FEA6C5CD6D152EA033CD3D05DF8040B1D
:10098000704700BF8446104662468C46194663464F
:1009900000E000BF01B5FFF7B7FF002848BF10F126
:1009A000000F01BD4DF808EDFFF7F4FF0CBF01206B
:1009B00000205DF808FB00BF4DF808EDFFF7EAFFE7
:1009C00034BF012000205DF808FB00BF4DF808EDA2
:1009D000FFF7E0FF94BF012000205DF808FB00BF97
:1009E0004DF808EDFFF7CEFF94BF012000205DF821
:1009F00008FB00BF4DF808EDFFF7C4FF34BF01202E
:100A000000205DF808FB00BF4FEA4102B2F1E0436D
:100A100024BFB3F5001CDCF1FE5C0DD901F0004CE5
:100A20004FEAC0024CEA5070B2F1004F40EB830035
:100A300008BF20F00100704711F0804F21D113F161
:100A40003872BCBF01F00040704741F480114FEA9A
:100A50005252C2F11802C2F1200C10FA0CF320FA23
:100A600002F018BF40F001004FEAC1234FEAD32340
:100A700003FA0CFC40EA0C0023FA02F34FEA4303AA
:100A8000CCE77FEA625307D150EA01331EBF4FF033
:100A9000FE4040F44000704701F0004040F0FE404E
:100AA00040F40000704700BF80F0004002E000BF4B
:100AB00081F0004142001FBF5FEA410392EA030F49
:100AC0007FEA226C7FEA236C6AD04FEA1262D2EB93
:100AD0001363C1BFD218414048404140B8BF5B4298
:100AE000192B88BF704710F0004F40F4000020F031
:100AF0007F4018BF404211F0004F41F4000121F047
:100B00007F4118BF494292EA030F3FD0A2F1010290
:100B100041FA03FC10EB0C00C3F1200301FA03F1CE
:100B200000F0004302D5494260EB4000B0F5000FF1
:100B300013D3B0F1807F06D340084FEA310102F1B0
:100B40000102FE2A51D2B1F1004F40EBC25008BF62
:100B500020F0010040EA03007047490040EB00002C
:100B600010F4000FA2F10102EDD1B0FA80FCACF15B
:100B7000080CB2EB0C0200FA0CF0AABF00EBC2505A
:100B800052421843BCBFD0401843704792F0000F48
:100B900081F4000106BF80F400000132013BB5E79B
:100BA0004FEA41037FEA226C18BF7FEA236C21D011
:100BB00092EA030F04D092F0000F08BF0846704776
:100BC00090EA010F1CBF0020704712F07F4F04D144
:100BD000400028BF40F00040704712F100723CBF57
:100BE00000F50000704700F0004343F0FE4040F481
:100BF000000070477FEA226216BF08467FEA23633F
:100C00000146420206BF5FEA412390EA010F40F429
:100C1000800070474FF0000304E000BF10F0004375
:100C200048BF40425FEA000C08BF704743F096435C
:100C300001464FF000001CE050EA010208BF704777
:100C40004FF000030AE000BF50EA010208BF7047FE
:100C500011F0004302D5404261EB41015FEA010C13
:100C600002BF84460146002043F0B64308BFA3F10B
:100C70008053A3F50003BCFA8CF2083AA3EBC253ED
:100C800010DB01FA02FC634400FA02FCC2F120020C
:100C9000BCF1004F20FA02F243EB020008BF20F043
:100CA0000100704702F1200201FA02FCC2F12002A9
:100CB00050EA4C0021FA02F243EB020008BF20EA9E
:100CC000DC7070474FF0FF0C1CEAD0521EBF1CEACC
:100CD000D15392EA0C0F93EA0C0F6FD01A4480EABA
:100CE000010C400218BF5FEA41211ED04FF00063A3
:100CF00043EA501043EA5111A0FB01310CF00040CF
:100D0000B1F5000F3EBF490041EAD3715B0040EAF4
:100D1000010062F17F02FD2A1DD8B3F1004F40EBC4
:100D2000C25008BF20F00100704790F0000F0CF097
:100D3000004C08BF49024CEA502040EA51207F3A5B
:100D4000C2BFD2F1FF0340EAC250704740F4000036
:100D50004FF00003013A5DDC12F1190FDCBF00F027
:100D600000407047C2F10002410021FA02F1C2F1D5
:100D7000200200FA02FC5FEA310040F1000053EA71
:100D80004C0308BF20EADC70704792F0000F00F0BF
:100D9000004C02BF400010F4000F013AF9D040EAC5
:100DA0000C0093F0000F01F0004C02BF490011F459
:100DB000000F013BF9D041EA0C018FE70CEAD15357
:100DC00092EA0C0F18BF93EA0C0F0AD030F0004CD7
:100DD00018BF31F0004CD8D180EA010000F000408B
:100DE000704790F0000F17BF90F0004F084691F049
:100DF000000F91F0004F14D092EA0C0F01D1420283
:100E00000FD193EA0C0F03D14B0218BF084608D14B
:100E100080EA010000F0004040F0FE4040F4000095
:100E2000704740F0FE4040F4400070474FF0FF0C28
:100E30001CEAD0521EBF1CEAD15392EA0C0F93EA6F
:100E40000C0F69D0A2EB030280EA010C49024FEAC1
:100E5000402037D04FF0805343EA111143EA10137A
:100E60000CF000408B4238BF5B0042F17D024FF432
:100E7000000C8B4224BF5B1A40EA0C00B3EB510F0D
:100E800024BFA3EB510340EA5C00B3EB910F24BFF6
:100E9000A3EB910340EA9C00B3EBD10F24BFA3EB7B
:100EA000D10340EADC001B0118BF5FEA1C1CE0D143
:100EB000FD2A3FF650AF8B4240EBC25008BF20F0F6
:100EC000010070470CF0004C4CEA50207F32C2BF4A
:100ED000D2F1FF0340EAC250704740F400004FF0E7
:100EE0000003013A37E792F0000F00F0004C02BF18
:100EF000400010F4000F013AF9D040EA0C0093F0E2
:100F0000000F01F0004C02BF490011F4000F013B3B
:100F1000F9D041EA0C0195E70CEAD15392EA0C0FA3
:100F200008D142027FF47DAF93EA0C0F7FF470AFDB
:100F3000084676E793EA0C0F04D14B023FF44CAF1E
:100F400008466EE730F0004C18BF31F0004CCAD1B3
:100F500030F000427FF45CAF31F000437FF43CAFEF
:100F60005FE700BF4FF0FF3C06E000BF4FF0010C11
:100F700002E000BF4FF0010C4DF804CD4FEA4002F3
:100F80004FEA41037FEA226C18BF7FEA236C11D03D
:100F900001B052EA530C18BF90EA010F58BFB2EBF0
:100FA000030088BFC81738BF6FEAE17018BF40F070
:100FB000010070477FEA226C02D15FEA402C05D124
:100FC0007FEA236CE4D15FEA412CE1D05DF8040BA9
:100FD000704700BF844608466146FFE70FB5FFF73C
:100FE000C9FF002848BF10F1000F0FBD4DF808EDF4
:100FF000FFF7F4FF0CBF012000205DF808FB00BFE5
:101000004DF808EDFFF7EAFF34BF012000205DF83E
:1010100008FB00BF4DF808EDFFF7E0FF94BF01208B
:1010200000205DF808FB00BF4DF808EDFFF7D2FF88
:1010300094BF012000205DF808FB00BF4DF808EDCB
:10104000FFF7C8FF34BF012000205DF808FB00BF98
:101050004FEA4002B2F1FE4F0FD34FF09E03B3EBC5
:1010600012620DD94FEA002343F0004310F0004F05
:1010700023FA02F018BF404270474FF0000070475B
:1010800012F1610F01D1420205D110F0004008BFFA
:101090006FF0004070474FF00000704742000ED2E2
:1010A000B2F1FE4F0BD34FF09E03B3EB126209D4A3
:1010B0004FEA002343F0004323FA02F070474FF059
:1010C0000000704712F1610F01D1420202D14FF0CE
:1010D000FF3070474FF00000704700BF2DE9F0412E
:1010E000057890B000350646334818BF01250AF050
:1010F000BDF900243148A542314B0CBF2146802167
:1011000006904FF400500CBF4FF001084FF002085A
:101110004FF4807205930A9120234FF480670E905C
:1011200005A925480B920D930C970794CDF82080C4
:1011300009940F940AF012FA1F4801210AF03BFAB1
:101140004FF46021012702911E48694600948DF8F2
:1011500004508DF8057003948DF810800AF0E8F8BB
:10116000184804213A4603230AF033F92DB11548F3
:101170003178022203230AF02CF9124801210AF0E7
:1011800004F9104801210AF0F7F80E480AF006F9B0
:101190000C480AF008F90028FAD10A480AF007F9C1
:1011A00008480AF009F90028FAD1064801210AF096
:1011B00007F910B0BDE8F08108000240C00500202A
:1011C0004C24014000240140024B33F8100080B24F
:1011D000704700BFC00500202DE9FF41334B80461A
:1011E000187800283BD000242546264627460822AA
:1011F00032210DEB0203532008F06CFE9DF809101C
:101200009DF80800013400EB01239DF80B109DF8B8
:101210000A001AB200EB01239DF80D109DF80C0096
:10122000E4B2BF181AB200EB01239DF80F10B618F4
:10123000202C1AB2154401F07F0001D00028D6D12D
:101240001B4B97FBF4F796FBF4F695FBF4F5ADF822
:101250000070ADF80260ADF804501C701DE0322142
:10126000062202AB532008F035FE9DF809209DF8B8
:1012700008109DF80B0001EB02239DF80A20ADF841
:10128000003002EB00219DF80C309DF80D00ADF808
:10129000021003EB0022ADF80420064A68464146DE
:1012A000127809F0BBFEBDE8FF8100BFC405002035
:1012B000C505002000000020154B10B51B78044622
:1012C0002D21532008227BB108F0C8FE31210A22CB
:1012D000532008F0C3FE2C210C22532008F0BEFE40
:1012E00053203821902209E008F0B8FE31210A226B
:1012F000532008F0B3FE53202C210A2208F0AEFE42
:10130000044840F2091202800CB103490C7010BD70
:10131000C4050020340000200000002037B5104B29
:1013200005461A680F480C46002182428DF80710C6
:1013300001D1002013E0532001220DF1070308F032
:10134000C9FD0028F5D09DF80710E529F1D12A78CC
:101350000548064B064920601A70616001203EBDB9
:1013600054010020001BB700B9120008C40500207A
:10137000D91100081FB50446022106226B46182029
:1013800008F0A8FD9DF800309DF8012098089DF810
:10139000023000EB02219DF8032098089DF80430EC
:1013A000ADF8081000EB02219DF805209808ADF873
:1013B0000A1000EB0221044AADF80C1002A82146E5
:1013C000127809F02BFE1FBD0100002010B50F217F
:1013D00008220446182008F041FE0E221820102191
:1013E00008F03CFE034B4FF480521A800CB10248C7
:1013F000047010BD340000200100002037B5002427
:1014000002AB054603F8014D18202146012208F0E1
:1014100061FD50B19DF80730FB2B05D1034804490D
:1014200028606960012000E020463EBDCD13000821
:1014300075130008334B2DE9F0411C88324B5A8953
:101440001E89A51A7543B3F91240B3F91420EF139E
:10145000BE18E50295FBF6F43F19A7F57A6202FB88
:1014600002F4B3F90480B3F902C00A257D43DF61B9
:1014700002FB0CFCB3F90E7002FB08F2B3F90C800E
:101480002413674304FB08F4241404EB6232941C15
:10149000A210DC88083502F5004262432E114FEAA3
:1014A000EC24B3F92050B3F9003004EBE72404EB4B
:1014B000830303FA05F39C1C144BD20B1B68A3EBAC
:1014C000A4044CF2503343FA05F3634303D45C00A5
:1014D000B4FBF2F302E0B3FBF2F253001A125243F0
:1014E00040F6DE3462430A4C5C43241404EB22428F
:1014F00002F6CF6203EB221300B1036001B10E606C
:10150000BDE8F081F6050020CC050020F0050020A4
:1015100043E3FFFF104B07B5187818B90F490A8845
:10152000531C0B80F621032201AB772008F0D2FC7C
:101530009DF805109DF804000A02094942EA00409E
:101540009DF80630B1F920201843C2F1080320FAB3
:1015500003F0044908600EBDC6050020C805002040
:10156000CC050020F00500200B4B07B5187818B902
:101570000A490A88531C0B80F621022201AB77200E
:1015800008F0A8FC9DF804009DF80510044B41EA02
:1015900000221A800EBD00BFC6050020C80500202D
:1015A000F6050020064B074893F820200021920101
:1015B0003432017002F0FC027720F42108F04EBDB5
:1015C000CC050020C6050020034B00221A707720AE
:1015D000F4212E2208F042BDC605002010B54FF4BC
:1015E00080400AF047F80128044605D14FF48040B6
:1015F0000AF050F8014B1C7010BD00BFC60500205A
:101600002DE9F0476B4B05461A686B488CB0824257
:1016100000F0CA80DFF8C0A19AF80080B8F1000F8E
:1016200040F0C480654F102102264FF400598DF818
:101630000A10384602A94FF480448DF80B60ADF8CB
:10164000089008F0C7F90423384602A98DF80A303B
:10165000ADF8084008F0BEF90E213046C7F81090EA
:1016600008F0F4F90126082204A88DF81520049446
:101670008DF814808DF8166009F0C0FF28200F2126
:101680008DF80C0003A88DF80D108DF80E108DF854
:101690000F6009F019FE142008F07BFD7720D0219F
:1016A00032460DF1070308F015FC9DF80730444C55
:1016B0000322552BE375228418BFC7F8149073D109
:1016C000D12132460DF10703772008F003FC9DF885
:1016D0000700162200F00F01030921766376AA2184
:1016E00006AB772008F0F6FB9DF818209DF819004E
:1016F0009DF81B3040EA02219DF81A20218043EA20
:1017000002209DF81C109DF81D20608042EA0123F4
:101710009DF81E009DF81F10A38041EA00229DF84D
:1017200021309DF82000E28043EA00219DF822202C
:101730009DF82300218140EA02239DF824109DF8A2
:101740002520638142EA01209DF827309DF826106C
:10175000A08143EA01229DF828009DF82910E2812A
:1017600041EA00239DF82A209DF82B00238240EABD
:1017700002219DF82D309DF82C20618243EA022041
:10178000104B41F2707146F67812A0828AF8006020
:101790000D4829806A806B600C490D4A0D4BA8608A
:1017A000E9602A616B6101E0002000E001200CB0DB
:1017B000BDE8F08754010020001BB7000010014075
:1017C000CC050020C915000869150008A5150008FA
:1017D0001515000835140008F40500202DE9F04F18
:1017E0004E4E4F4B85B077890391196832898446F4
:1017F00038020F1A87FB0201C00940EA4162CB118F
:10180000F188B48887FB01012404002514EB020849
:1018100045EB0309000A40EA01620B12B1897488A2
:1018200087FB0101E403002514EB020A45EB030BDF
:10183000C00D40EA41224FF4FA60CB150021801818
:1018400041EB0301CDE90001B0F5FA6F71F1000140
:1018500047DAA2FB024502FB03F605EB4607B80098
:1018600040EA9471A0002646241847EB0105691050
:101870004FEA3400A408B8EB000869EB0109A9108D
:1018800044EA8570BAEB000A6BEB010B25484FF078
:10189000FF31DDE9004584428D4122DA40F6AC504B
:1018A0000021801841EB03014143A0FB00236FF0AE
:1018B000060003EB4103544200FB0344A2FB00017A
:1018C00018EB0008214449EB01090B24A2FB040199
:1018D00004FB031149104FEA3000BAEB000A6BEB2E
:1018E000010B114A1368A3FB0A0103FB0B11400D06
:1018F00040EAC1224B15B2EB080263EB0903D20B9D
:1019000042EA4343BCF1000F01D0CCF80030039809
:1019100008B10099016005B0BDE8F08F0006002015
:10192000FC05002024FAFFFFF805002007B5002180
:10193000032201AB772008F0CDFA9DF805009DF851
:10194000043001029DF8062041EA034010430EBD19
:1019500008B5FFF7EBFF014B186008BDF805002044
:1019600008B5FFF7E3FF014B186008BDFC05002038
:1019700077204821012208F071BB772058210122ED
:1019800008F06CBB454B73B51A6804464448824264
:101990000FD010258DF80650424D02214FF400560D
:1019A0008DF80710284601A9ADF8046008F012F878
:1019B0006E610A2008F0EDFB7720A02101220DF1D5
:1019C000030308F087FA002866D01E210122772041
:1019D00008F044FB4FF42F6008F0D0FB0025A5F180
:1019E00060030026D9B20222772001AB8DF8046093
:1019F0008DF8056008F06EFA9DF804209DF805004A
:101A0000294B40EA0221E9520235102DE7D1DA894B
:101A100002F47F4502F00F00DD81324601232249A6
:101A2000515A0232002918BF0023102AF7D113BBE4
:101A30001A4612F0010F1C494FEA620604D011F851
:101A400016104B40082104E031F8161083EA1123E8
:101A5000F8E713F4004F18BF83F4C0535B0001395B
:101A6000F7D10132102AE4D10F49C3F30333054300
:101A70009842CD8101D000200EE00C4A42F2107055
:101A80002080608062600A480A490B4B0B4A206143
:101A9000A160E360626101207CBD00BF54010020B1
:101AA000001BB70000100140000600207B19000851
:101AB000511900086119000871190008DD170008A4
:101AC0001FB50446012106226B461C2008F002FACD
:101AD0009DF800209DF8013043EA022040F38D017B
:101AE000042391FBF3F29DF802009DF80310ADF87A
:101AF000082041EA002242F38D0090FBF3F19DF8AB
:101B000005209DF80400ADF80A1042EA0021064ABB
:101B100041F38D0090FBF3F3214602A81278ADF853
:101B20000C3009F07BFA1FBD0200002037B50421FC
:101B3000202302248DF80610054669441B48ADF8A1
:101B400004308DF8074007F045FF2A2100221C20B1
:101B500008F084FA0E211C20224608F07FFA0F219B
:101B600003221C2008F07AFA2B2112221C2008F0F4
:101B700075FA2C211C20224608F070FA2D21012232
:101B80001C2008F06BFA2E2100221C2008F066FAB7
:101B900005221C202A2108F061FA05484FF48072C2
:101BA00002800DB1034B1D703EBD00BF0008014017
:101BB000340000200200002013B5044610481149EB
:101BC000026800238A428DF8073001D1002015E019
:101BD0001C200D2101220DF1070308F07BF90028DC
:101BE000F4D09DF807302A2B01D01A2BEED10648ED
:101BF000064A0749206062600B7001201CBD00BFCF
:101C000054010020001BB7002D1B0008C11A00085A
:101C10001006002013B5022204461B2101AB6820E8
:101C200008F058F99DF804209DF8053043EA022099
:101C300000F54E5110314FF48C7291FBF2F32333C7
:101C400023801CBD1FB504461D2106226B4668205B
:101C500008F040F99DF800209DF8013043EA022089
:101C600001B2042391FBF3F29DF802009DF80310EA
:101C7000ADF8082041EA002210B290FBF3F19DF884
:101C800005209DF80400ADF80A1042EA0021064A3A
:101C900008B290FBF3F3214602A81278ADF80C309D
:101CA00009F0BCF91FBD00BF0400002010B50446B8
:101CB000192008F06EFA68201521002208F0CEF9EC
:101CC00010B9032008F004FB0D4B16211A78682088
:101CD00042F0180208F0C2F917210022682008F02B
:101CE000BDF93D210122682008F0B8F968203E21A5
:101CF000012208F0B3F90CB10248047010BD00BF16
:101D0000030000200400002038B5054619200C46C9
:101D100008F03FFA68201521002208F09FF918B357
:101D2000124B13481349144A622C2B606860A96057
:101D3000EA60124B0FD004D80A2C12D0142C0CD10C
:101D40000DE0BC2C04D0B4F5807F06D1002009E062
:101D50000120187038BD022004E0032002E00420B6
:101D600000E005201870012038BD00BFAD1C000840
:101D7000451C0008151C000818449231030000207F
:101D8000064B07491A7812B14FF4FF6301E04FF494
:101D900080530B8008B1034A107070471106002071
:101DA00034000020050000201FB504464321062210
:101DB0006B46682008F08EF89DF800209DF80130F1
:101DC00043EA022001B2042391FBF3F29DF80200E2
:101DD0009DF80310ADF8082041EA002210B290FBF4
:101DE000F3F19DF805209DF80400ADF80A1042EAD1
:101DF0000021064A08B290FBF3F3214602A81278AC
:101E0000ADF80C3009F00AF91FBD00BF0700002033
:101E10001FB504463B2106226B46682008F05AF89D
:101E20009DF800209DF801309DF8021043EA022041
:101E30009DF80320ADF8080042EA01239DF8040054
:101E40009DF80510ADF80A30054B41EA0022ADF8C7
:101E50000C2002A821461A7809F0E0F81FBD00BF47
:101E60000500002013B5224A4FF400530446022017
:101E7000ADF804308DF8070013681E480421834232
:101E80008DF8061001D11C4803E01C498B4203D198
:101E90001B4801A907F09EFD6B218022682008F0F5
:101EA000DDF8052008F075F919210022682008F0F6
:101EB000D5F86B210322682008F0D0F837210222E0
:101EC000682008F0CBF80F4A1A211278682008F031
:101ED000C5F81B211822682008F0C0F868201C21D2
:101EE000102208F0BBF80CB1074B1C701CBD00BFE2
:101EF0005401002000127A00000C0140001BB700C2
:101F00000010014006000020070000202DE9F043EA
:101F1000814685B023200E461446984608F039F9CC
:101F20006820752101220DF1070307F0D3FF002877
:101F30006FD09DF80770682F6AD106210A4602AB60
:101F4000384607F0C7FF9DF80B309DF80D5003F0A1
:101F5000010105F001004A0042EA80059DF80900F0
:101F600000F001031D4308D0012D01D12A481AE0D9
:101F7000022D0ED10023284813E00C2101223846FF
:101F80000DF1070307F0A6FF9DF8071011F00F02EF
:101F900003D1052008F09CF906E0042A1E4802D16E
:101FA0000123037000E005701C491D4AC9F80010A8
:101FB0001C481D4B1D49C9F8042030607360F16056
:101FC000B8F1000F03D0144A107888F80000142CE0
:101FD000174B15D004D8052C16D00A2C0ED111E0C1
:101FE000BC2C08D0B4F5807F03D0622C06D102212E
:101FF0000BE0002109E0012018700AE0032104E051
:10200000042102E0052100E006211970012000E012
:10201000002005B0BDE8F08311060020811D0008F6
:10202000111E0008651E0008A91D00081844923101
:10203000060000201FB50446A82106226B46682032
:1020400007F048FF9DF800209DF8013043EA022088
:1020500001B2042391FBF3F29DF802009DF80310F6
:10206000ADF8082041EA002210B290FBF3F19DF890
:1020700005209DF80400ADF80A1042EA0021064A46
:1020800008B290FBF3F3214602A81278ADF80C30A9
:1020900008F0C4FF1FBD00BF0800002010B50446B3
:1020A000642008F076F868202321F02207F0D6FF9C
:1020B00010B9032008F00CF9052008F06AF8064B67
:1020C00068201A78202142F00F0207F0C7FF0CB1F8
:1020D0000248047010BD00BF120600200800002056
:1020E00037B5054619200C4608F053F868200F2133
:1020F00001220DF1070307F0EDFE9DF80730D32B09
:1021000016D10C480C490D4A4E2C28606960EA60D3
:102110000B4B07D05D2C09D0362C01D0002002E0FB
:10212000402000E080201870012002E0C020FAE783
:1021300000203EBD9D20000835200008DDE9A731C4
:1021400012060020074BA1F57A7153F8200083880E
:1021500002684B434FF47A7093FBF0F18BB213801B
:10216000704700BF10070020024B53F820000268A0
:1021700011807047100700202DE9F04FDFF828810B
:102180004FEA001558F805408E468BB008EB05075E
:1021900011468346924620467246019300F018FB92
:1021A000B96807F108024FF0020C18237868ADF8FF
:1021B000141005A98DF816308DF817C00392CDF8CC
:1021C00008C007F007FC0398364E077906A809F007
:1021D00082FE70220198DDF808C0ADF818200121B8
:1021E00000234FF4807206EB0509ADF81A10ADF824
:1021F0001C30ADF81E00ADF820C0ADF824200C2F27
:102200002BD8DFE807F0072A2A2A102A2A2A192AB7
:102210002A2A2200204606A909F056FD2046082158
:1022200009F08EFE19E0204606A909F091FD20462E
:10223000082109F08DFE10E0204606A909F0CCFD2A
:102240002046082109F08EFE07E0204606A909F085
:1022500005FE2046082109F08DFE08EB0B118B7B53
:102260001BB12046012109F054FE2046012109F04E
:1022700044FE0C2F10D8DFE807F0070F0F0F090FEF
:102280000F0F0B0F0F0F0D00343404E0383402E051
:102290003C3400E040347451A9F804A048460BB027
:1022A000BDE8F08F1406002094FB00081B4A1C4870
:1022B00013881180C91A89B240F68C22914203809A
:1022C000184B02D900221A707047A1F2EF2080B299
:1022D00040F2DA52904218D81B78072B15D81248D2
:1022E000032B20F81310114A09D81148008888429E
:1022F00005D2012101FA03F3107803431370127819
:102300000F2A02D1094B002119700648094B0278A7
:10231000511C017000201880704700BF6407002026
:102320000607002013060020F606002008070020FC
:102330000A000020380B00207FB5044601A80D4696
:10234000164609F0D2FD00200123ADF80A00ADF8D1
:102350000C0001A92046ADF80450ADF80660ADF8B8
:10236000083009F041FE7FBD2DE9F743DFF85880C2
:102370000501144E05EB0804A36889467619282147
:102380000746B271606802228DF8061001A9ADF807
:1023900004308DF8072007F01DFB55F80800217B5D
:1023A0000022FFF7C9FF204601224FF6FF7100F01F
:1023B00031FA204639464A4600F0ECF93046BDE88D
:1023C000FE8300BF1406002094FB000810B5134BD9
:1023D00000011B18DA795AB901221981DA71104B00
:1023E00002221918097B1858BDE81040FFF7A4BF56
:1023F0001C8959810B4A091B9C7989B222F8141057
:1024000000249981DC71064B22461918097B185863
:10241000FFF792FF0448048010BD00BF140600209F
:1024200094FB0008F6060020380B00202DE9F0414F
:102430000446028A484B807961781A80002814BFCC
:102440000225002501B10135444F57F825700025BC
:102450007A5DFF2A02F00F0002F0F00309D1228911
:102460003F484049B2F5FA7F016071D93E4B0360A5
:102470006EE0A17811B1811E012965D9E17811B111
:10248000011F032960D9E17909B181425CD012F0C2
:10249000300F03D02278002A08BF0023217931B100
:1024A000A27922B9A0F10801012998BF802362799D
:1024B0002AB1A17919B9021F032A98BF802303F01A
:1024C0001001CAB23AB100222849FFF74DFF284B4C
:1024D00008221A7038E003F02001CAB242B1244E3B
:1024E00024493278FFF740FF3078411C31702BE0EF
:1024F00003F04001CAB292B123891F4AB3F5FA7FB3
:1025000094BF012108214A431C4EB2FBF3F39AB257
:10251000A38996F80080FFF72FFE194B0EE01B06EB
:1025200012D563891449174E91FBF3F292B2E389F5
:10253000012196F80080FFF71FFE134B43F8280097
:1025400008F1010886F8008001350E2D80D186E75C
:102550000020BDE8F08100BF0A0000204CFB00080D
:102560000C0700206921000845210008AD22000861
:10257000F4060020CD23000840420F004007002051
:1025800010070020090700204407002008B5044B6D
:102590001A78824202D9034B1A68904708BD00BFDF
:1025A000400700200C070020044B1A78824204D90F
:1025B000034B53F820000268118070470907002080
:1025C00044070020014B33F810007047F606002046
:1025D000F8B5134B05469B890E461446ECB116B16F
:1025E00016F8017B00E0FF270D48022109F0ACFA44
:1025F0000028F9D00A48394609F0A1FA0848012113
:1026000009F0A2FA0028F9D0054809F09AFAC0B2F8
:102610000DB105F8010B013CE0E70120F8BD00BF5A
:10262000003800402DE9F047012188B04FF4804088
:1026300009F0FCF9374C01214FF4804009F00EFA03
:1026400003214FF420401823ADF800008DF803104B
:10265000204669468DF802304FF0040807F0BAF9B9
:102660002D4E4FF4804220466946ADF800204FF4CD
:1026700080554FF0100A8DF8028007F0ABF96946DB
:102680002046ADF800508DF802A007F0A3F93046BF
:1026900009F0F8F907214FF4007000230222ADF889
:1026A0001600ADF81C104FF00109304603A94FF495
:1026B0008277ADF80C30ADF81030ADF81A30ADF8C7
:1026C0001220ADF80E70ADF814901F46ADF818A0AA
:1026D00009F00AFA3046494609F025FA9F238DF899
:1026E00004308DF805708DF806708DF807700DEBCD
:1026F00008014246656102A8FFF76AFF25619DF85F
:102700000900B0F1EF014A4252EB010008B0BDE808
:10271000F08700BF000C01400038004030B50024B5
:102720000E4D55F82450854202D00134E4B2F7E74B
:10273000A400E4B200200A4D2D5C8D4202D0451C5D
:10274000E8B2F8E70019C0B20F2805D8054C04EB31
:10275000001083600171027330BD00BF74FC00087B
:1027600084FC0008441200200C2912D8DFE801F094
:1027700007111111091111110B1111110D00022175
:1027800004E0042102E0082100E01021012209F008
:10279000CEBB704738B504460D461346217B006812
:1027A0002A46FFF7BBFF2068217BBDE83840FFF7D2
:1027B000DBBF07B58DF80400012000238DF806006B
:1027C0008DF8070001A88DF8053008F07DFD0EBDDD
:1027D0007FB5044601A80D46164609F073FB0B4B66
:1027E0000B485E4301680023B1FBF6F2013D561E23
:1027F000204601A9ADF80850ADF80460ADF80A30E4
:10280000ADF8063009F016FA7FBD00BF40420F0058
:102810005801002010B504460068FFF7D9FF206872
:10282000012109F06AFB607BBDE81040FFF7C1BFE2
:1028300000230C4A52F82320824202D05A1CD3B201
:10284000F7E79B00D8B20023074AD25C8A4202D045
:102850005A1CD3B2F8E71818044BC1B203EB0110AD
:10286000704700BF74FC000884FC0008441200207C
:1028700038B50221044609F060FC012820460BD13E
:10288000022109F065FC20460021FFF7D1FF054633
:10289000204609F045FC34E0042109F04EFC0128F3
:1028A00020460BD1042109F053FC20460421FFF7F8
:1028B000BFFF0546204609F036FC22E0082109F05A
:1028C0003CFC012820460BD1082109F041FC2046A0
:1028D0000821FFF7ADFF0546204609F027FC10E070
:1028E000102109F02AFC012810D12046102109F0FE
:1028F0002FFC20460C21FFF79BFF0546204609F0E0
:1029000018FCAB6801460BB1287B984738BD000026
:102910000148FFF7ADBF00BF002C01404FF08040E1
:10292000FFF7A6BF0148FFF7A3BF00BF00040040A8
:102930000148FFF79DBF00BF000800401D481E4929
:10294000026800608A4200F01F80002100F004B895
:102950001A4B5B584350043119481A4B42189A429B
:10296000FFF4F6AF184A00F003B8002342F8043B26
:10297000164B9A42FFF4F9AF08F08EFB0BF0E6FF1E
:1029800003F0AEFAFFF7FEBF114E12483060124856
:10299000016821F070610160410201600F4C182054
:1029A00020600F490F4808600F48D0F800D04068F9
:1029B00000470000F04F0020EFBEADDE9821010877
:1029C00000000020A4050020A4050020181E0020FF
:1029D000181002400900000004000140140C0140DE
:1029E000000C01404434434400F0FF1FFFF7FEBFDA
:1029F000F8B5174C06462378274673B907F0B8FB9D
:102A0000144D2A683232904207D30120207007F01B
:102A10008BFC07F0ADFB2860F8BD3878B0B107F04B
:102A2000A7FB0C4C2168731898420FD3084A00206A
:102A3000107007F079FC07F09BFB206006480178D6
:102A400009B14B1E0370054801220270F8BD00BF9A
:102A5000660700206C0700202C0C0020680700206F
:102A600037B58DF8051022498DF807300B788DF8B1
:102A7000040002A88DF80620C21812F8044C0D4676
:102A8000443CE0B20A282CD81A49022B31F81040F5
:102A900003D814B12046FFF7ABFF2B78022B0BD9DC
:102AA000154D2D6807F064FB021B954204D21049B6
:102AB000124B002008701870114802780146012A54
:102AC00000D094B90A4B1878022801D8421C1A7019
:102AD000002008700B49087003B0BDE8304007F0D3
:102AE00023BC3224022BD5D9D7E703B030BD00BFB9
:102AF0006A07002088FC00086C0700202C0C0020CE
:102B000068070020660700202DE9F0413D4B044690
:102B10005A7B3D4802B1012202704FF4007001F06F
:102B200095F9D8B1394E3A4996F8AE50052000FBD8
:102B300005F20B8819B291420DDD364F364A7F7887
:102B40003FB196F8AF600127AD1968438142177015
:102B500001DD022111700BB92F480370202001F014
:102B600055F960B1274A2D4B917A09B9D07A20B135
:102B7000284AD17A09B9012000E000201870264BBC
:102B80001A78022A02D14C204E211EE0012A07D1D8
:102B90004D2153204C220B46BDE8F041FFF760BFAA
:102BA0001E490878012803D1532001464E2206E031
:102BB000154B1A78012A04D15320014602464D23B1
:102BC000EAE7042C03D153204D210A460AE0022CE7
:102BD00003D1532001464D2204E0012C04D153209F
:102BE0004D214E224423D7E70D49087820B13220E9
:102BF000BDE8F041FFF7FCBE0A4B1870BDE8F0419C
:102C000007F092BBA618002067070020441300209D
:102C1000380B0020421800206B07002069070020B5
:102C20002C0C00206607002070B50646B6FBF2F4B7
:102C30000846154614B12046FFF7F6FF05FB14645D
:102C4000024B195D00F8011B70BD00BF18FE0008A3
:102C50002DE9F041027803460130202AFAD0092AF2
:102C6000F8D02D2A02D10346414D04E02B2A08BF9B
:102C700003464FF07E551E460024334616F8010BDE
:102C8000A0F13007F9B209290DD83A492046FEF7DC
:102C900019F804463846FDF7C1FF01462046FDF706
:102CA00009FF0446E9E72E2817D1324F334616F8BC
:102CB000010B3038C2B2092A0FD8FDF7AFFF3946F1
:102CC000FEF7B4F801462046FDF7F4FE2949044614
:102CD0003846FDF7F7FF0746E8E71878652801D082
:102CE000452839D15E782D2E02D19F1C012605E0A2
:102CF0002B2E01D05F1C00E09F1C00267B1E0027AE
:102D000013F8012F303AD1B2092903D80A2000FB69
:102D10000727F5E7B7F59A7F28BF4FF49A77B846AB
:102D20004FF07E51B8F1070F07D908461249FDF759
:102D3000C9FFA8F108080146F4E707F0070737B113
:102D400008460C49FDF7BEFF013F0146F7E72EB1EB
:102D50002046FEF76BF804E04FF07E512046FDF769
:102D6000B1FF01462846FDF7ADFFBDE8F08100BF89
:102D7000000080BF0000204120BCBE4C10B5441EA6
:102D800014F8011F21B1034B186807F0F3FCF7E7B3
:102D900010BD00BFEC1700200148FFF7EFBF00BFD8
:102DA0003DFE000810B50748FFF7E8FF0024064B7A
:102DB00006481A19E15852680C3407F0EFFFC02C8E
:102DC000F5D110BD6BFE00083CFD000881FE000837
:102DD00070B507F0CDF9274C274B4FF47A71B0FB53
:102DE000F1F11A782548237807F0D8FF01F028F888
:102DF00005462348234902682348B2FBF1F107F056
:102E0000CDFF0024214B53F8241051B1012000FACA
:102E100004F0284202D01E4807F0C0FF0134E4B29B
:102E2000F0E7022000F0F2FF98B11A4C1A4922781C
:102E30001A4851F8221007F0B1FF2378022B08D16D
:102E40001748047C1748002C0CBF6E216F2107F037
:102E5000A5FF1548FFF792FF144A148807F060F9A0
:102E60000246134821464FF45F73BDE8704007F0F7
:102E700095BF00BF2C0000209018002089FE00089C
:102E80005801002040420F00C7FE0008E80B01086F
:102E9000E5FE0008380D0020FCFD0008E9FE0008F2
:102EA000EC170020F3FE0008A8010108900B002099
:102EB000F7FE000838B50C68054620460BF0D6FF33
:102EC000024628682146BDE838400BF0FFBF0000ED
:102ED00008B50948FFF752FF0121002000F032FF3A
:102EE0000648FFF74BFF0A2007F053F90020BDE822
:102EF000084007F009BA00BF29FF000833FF0008A7
:102F00007FB504460BF0B2FF082824D100231E49E8
:102F1000E25C086885186E7806F00301022908BF94
:102F2000203AE2540133082BF1D10025665D1748A1
:102F300031460BF0BFFE28B10135601931460BF068
:102F4000B9FE18B11248FFF719FF1CE0082DEDD1AA
:102F5000204600F057FE0F48FFF710FF00230E4AEF
:102F600004A9981890F808218818084A995C013338
:102F7000082B00F80C1CF2D100208DF80C0001A9E0
:102F8000064807F00BFF7FBD7401002028140108DC
:102F900042FF000862FF00080814002084FE0008B9
:102FA00008B501F017FB01300CBF03480348BDE82A
:102FB0000840FFF7E3BE00BF77FF00089DFF000851
:102FC0002DE9F04105460BF051FF044601F0C8F829
:102FD000064694B92A48FFF7D1FE2A4951F8241031
:102FE00049B1012202FA04F2324202D0264807F027
:102FF000D5FE0134F1E7254821E028462449224640
:103000000BF064FF58B92348FFF7B8FE224C54F880
:10301000041F0029EFD01C4807F0C0FEF7E72B780B
:103020002D2B04D10135013C4FF0010801E04FF098
:1030300000080026134850F8267027B91748BDE845
:10304000F041FFF79BBE2846394622460BF03EFF73
:10305000A0B9012000FA06F0B8F1000F03D001F08A
:1030600077F80F4802E000F0FBFE0E48FFF786FEFF
:103070000D483946BDE8F04107F090BE0136D9E76A
:10308000BBFF0008A0FC0008E5FE0008A80101083D
:10309000F3090108CEFF00089CFC0008E3FF0008CC
:1030A000FDFF00080700010884FE000810B5044673
:1030B0000848FFF763FE084A0848094900230360EF
:1030C00013700B7003F06CF82046BDE81040FFF75A
:1030D000FFBE00BF1000010870070020A0070020FD
:1030E000DE0D002008B50848FFF748FE012000F07B
:1030F000BFFE0648FFF742FE0A2007F04AF800200C
:10310000BDE8084007F000B92800010835FF0008B5
:10311000F8B507460BF0AAFE044638B91A491B4B0E
:103120004A791B48511E53F8211028E038461949A6
:1031300022460BF0CBFE60B91748FFF71FFE174C75
:1031400054F8041F19B1164807F028FEF8E715488F
:1031500005E000250D4B53F8256026B91248BDE85F
:10316000F840FFF70BBE3846314622460BF0AEFE64
:1031700001350028EED10448314645710B48BDE8C1
:10318000F84007F00BBE00BF08140020E0FC000868
:1031900043000108F309010857000108DCFC00089E
:1031A000E5FE0008A80101086A0001088200010884
:1031B00010B5044620460BF059FE10F0FF0F07D162
:1031C0000B490C4891F87813BDE8104007F0E6BDB4
:1031D00020460BF069FB022808D8054B064C83F803
:1031E00078030020014600F0ADFDE3E710BD00BF0D
:1031F0000814002094000108B803010870B50446C3
:103200000BF034FE08B9204830E020461F490CF08E
:10321000A5FA00242646254678B12CB1012C06D10A
:103220000BF042FB064602E00BF03EFB0546002099
:10323000164901340CF092FAEEE70B2D05D914482B
:103240000C21BDE8704007F0A9BD012C08DC114A33
:10325000114832F915202946BDE8704007F09EBD9F
:10326000A6F57A73B3F57A7F04D90C48BDE87040AF
:1032700007F094BD0A482946324607F08FFD0548FD
:1032800020F8156070BD00BFAA0001088203010884
:10329000E4000108181800200A01010822010108B1
:1032A0004401010838B505460BF0E0FDC0B260B935
:1032B00004461149114801EB4402D28F21460134E2
:1032C00007F06CFD152CF4D138BD28460BF0ECFA54
:1032D000142804460ADC202128460BF0EBFC0BF0F6
:1032E000E3FA054B03EB4404E08738BD044815219D
:1032F000BDE8384007F052BD441300205D010108CD
:1033000069010108931E222B88BF0A22031E10B5F3
:103310000C4603DA2D2001F8010B5842FFF784FC1C
:1033200000210170204610BD30B587B005460C461F
:1033300003A800210C220BF001FC28460021FDF718
:103340007DFE20B128462949FDF7B4FB03E028465D
:103350002649FDF7ADFB2649FDF7B4FCFDF778FEE5
:10336000054685EAE570A0EBE5700A226946FFF79D
:10337000C9FF002D01DB202300E02D2368468DF8D6
:103380000C300BF073FD012807D130228DF80D2091
:103390008DF80E208DF80F200CE0022805D1302189
:1033A0008DF80D108DF80E1004E0032802D13020A6
:1033B0008DF80D00694603A80BF056FC03A80BF02E
:1033C00055FDC51EEDB22A4603A920460BF0ECFDC3
:1033D00000236355204607490BF046FC03A920460D
:1033E00049190BF041FC204607B030BD6F12033A7B
:1033F00000007A4440FF000837B5037904460D46C3
:10340000052B34D8DFE803F003060A0D1114816898
:1034100009782DE0806890F9001029E08368198808
:1034200026E08268B2F9001022E0816809681FE096
:10343000806869460068FFF777FF0146114807F08A
:10344000ADFCF5B1E068FDF7E9FB6946FFF76CFFFD
:1034500001460D4807F0A2FC2069FDF7DFFB694635
:10346000FFF762FF0146084807F098FC09E00021D9
:10347000064807F093FC25B10548E168226907F08A
:103480008DFC3EBDF0FE0008EFFE00089301010830
:103490008F0101082DE9F04706460BF0E7FC0546D1
:1034A00020B1012819D133782A2B16D14748FFF7CC
:1034B00065FC002414266643454F4648F15907F041
:1034C0006DFCB8192946FFF797FF01344248FFF712
:1034D00055FC682CEED1BDE8F08730463D210BF05D
:1034E000E9FB002857D0441C20460BF0DDF982464A
:1034F0002046FFF7ADFB0027054614247C43DFF888
:10350000D09054F8098040460BF0B0FC414602468A
:1035100030460BF0DBFC002835D14C44E068FDF769
:103520007DFB01462846FDF77FFD002829D0206954
:10353000FDF774FB01462846FDF76CFD002820D0FE
:1035400020792279052818BF5546052A0FD8DFE8CB
:1035500002F003030606090CA1680D7007E0A268DB
:10356000158004E0A068056001E0A1680D60414697
:103570001A4807F013FC20460021BDE8F047FFF78A
:103580003BBF174803E00137682FB6D11548BDE8A7
:10359000F047FFF7F3BB0446142565430C4F314653
:1035A00055F8078040460BF063FF50B1094841468B
:1035B00007F0F4FB78190021FFF71EFF064807F01B
:1035C000EDFB0134682CE7D1BDE8F08796010108D6
:1035D000080C010875020108A8010108AB010108E7
:1035E000B6010108DB0101082DE9F043584885B018
:1035F000584C07F0D3FB5848FFF754FE6279574BFD
:10360000511E574853F8211007F0C8FB20690021CC
:10361000FDF7ECFC002858D1002526690021304632
:10362000FDF7E4FC00284CD101354E482946D4F87A
:103630001490D4F81880E76907F0B0FB30460021F9
:10364000FDF7DEFC10B1484807F0A8FB694630469C
:10365000FFF76AFE0146454807F0A0FB48460021F7
:10366000FDF7CEFC10B1404807F098FB694648468C
:10367000FFF75AFE01463D4807F090FB4046002107
:10368000FDF7BEFC10B1384807F088FB694640469C
:10369000FFF74AFE0146354807F080FB3846002117
:1036A000FDF7AEFC10B1304807F078FB69463846AC
:1036B000FFF73AFE01462E4807F070FB10340C2D40
:1036C000ABD12C48691C07F069FB00F049FD2A4C7E
:1036D000064654F8041F19B1284807F05FFBF8E7C5
:1036E0000D46274850F8251049B1012202FA05F28B
:1036F000324202D0234807F051FB0135F1E7154B68
:10370000214ACE1896F808418B5C04A801310519AE
:10371000082905F8103CF2D100241C4869468DF8B0
:10372000084007F03BFB14256543194E1948A95979
:1037300007F034FB00217019FFF75EFE01341648D4
:10374000FFF71CFB682CEED105B0BDE8F08300BF8D
:10375000F801010808140020B8030108E0FC000883
:10376000280201083302010882030108F0FE000864
:1037700084FE00083B0201089CFC00084D02010881
:10378000A0FC00085B020108281401086802010877
:10379000080C010871020108A80101082DE9F04395
:1037A00089B004460BF062FBC6B2002E6AD179489C
:1037B000FFF7E4FA784C20690021FDF717FC38BBCD
:1037C00001367648314607F0E9FA206904A9FFF787
:1037D000ABFD0146724807F0E1FA606904A9FFF702
:1037E000A3FD01466E4807F0D9FAA06904A9FFF7C6
:1037F0009BFD01466A4807F0D1FAE06904A9FFF78A
:1038000093FD0146674807F0C9FA10340C2ED2D157
:103810000025654C2F46A8464FF000091034B145ED
:1038200014DA404654F8101CFDF744F954F80C1C07
:1038300080462846FDF73EF954F8081C05463846F0
:10384000FDF738F909F101090746E7E75748CDF8D0
:10385000048002950397FFF791FA002401A82358EA
:10386000534923F00040FDF7E9FB5249524A043422
:10387000002814BF10460846FFF780FA0C2CEDD143
:103880004E4870E020464E4905220BF01FFB38B928
:10389000414B0022C1181030C0280A61F8D176E0EF
:1038A0002046484904220BF011FB0546204605BB83
:1038B00020210BF0FFF9002869D0461C30460BF0A0
:1038C000D5FA2C460746404850F824500DB93F48D9
:1038D00049E030462946FAB20BF0F8FA38B92046EA
:1038E00002F000FD3A48294607F058FA47E0013453
:1038F000E9E70AF0D9FF461E0B2E074643DC2046B7
:1039000020210BF0D7F9054640B1451C2846FFF7AA
:103910009FF9214B3F01D851012400E0044628467D
:1039200020210BF0C7F9054640B1451C2846FFF79A
:103930008FF91949013401EB061250612846202104
:103940000BF0B8F9054640B1451C2846FFF780F951
:10395000114B013403EB06118861284620210BF03E
:10396000A9F918B91B48FFF709FA10E00130FFF771
:103970006FF9094A032C02EB0616F061F2D11648E2
:10398000FFF70CFF03E015480C2107F007FA09B018
:10399000BDE8F0838302010808140020AE0201088C
:1039A000B402010884FE00081C140020B8020108BB
:1039B0000AD7233C7F0201087B020108A801010805
:1039C000C7020108CD020108E0FC00086A000108F6
:1039D000D2020108E5020108B80301081F0301082B
:1039E000F0B5694B87B01A783AB90120187067486A
:1039F000FFF7C4F96648FFF7C1F9664C206806F086
:103A0000A4FC002800F0BD80206806F0A3FC092873
:103A10000146614A01D03F2851D1002517685F4C0B
:103A20002E462FB15E4821683A460BF04FFA10B986
:103A3000254606B926465B490C348C42F1D3C6B103
:103A40003468D5F800E03B46E05C1EF80310814284
:103A50000DD1534A41B92D2B06D820244E48D454B9
:103A600001330360D15404E0D0540133ECE74A49F8
:103A70000B60494A14681CB1AE4201D13C4612E0C9
:103A80004948FFF77BF9AE4209D856F80C0BFFF70F
:103A900075F9404B0921186806F06CFEF3E73C48C5
:103AA000FFF76CF900243C4B18688442A5D23949D1
:103AB0003B4A0868115D06F05DFE0134F3E71368C8
:103AC0002BB9042838D13648FFF7F0FA59E00C2812
:103AD00001D136488CE70A2901D00D2948D12E4D55
:103AE0003348FFF74BF92E4C2A6832490023A35480
:103AF0000493009103A8294910220C2303940AF08F
:103B0000D7FE054638B100680BF0B0F90130AA685D
:103B10002018904702E02848FFF730F900213022B2
:103B20001F480BF00BF818481B4B02780021196056
:103B3000002A7FF45FAF24E00C28CAD07F2903D18C
:103B40005BE72F2B3FF659AF1F297FF656AF7E2933
:103B50003FF653AF13B920293FF44FAF104C0E4836
:103B60000C4AE15401330360106806F003FE44E799
:103B70007F29E6D10A485C1E0021015514600F48D8
:103B800039E707B0F0BD00BFDE0D00204703010894
:103B90007F030108EC170020A00700203CFD00086F
:103BA00070070020FCFD0008840301088903010858
:103BB000A8010108B52E000894030108B503010807
:103BC0000E4B1A783A2A16D15888B0F55F7F12D179
:103BD0001979BE290FD193F879230020EF2A0CD14F
:103BE00013F8011B064A48409342F9D1D0F1010075
:103BF00038BF0020704700207047704700F8010868
:103C00007CFB010870B50546441E14F8011F61B124
:103C1000064E30460BF04EF80028F6D0861B0448BE
:103C2000631B811981F80831EFE770BD2814010882
:103C3000081400202DE9F843FFF7C2FF10B90A204D
:103C400006F046FB3A4C3B4920464FF45F720AF0BF
:103C5000C7FE94F878332046022B02D9002284F85C
:103C6000782390F87813C42202FB0105324E05F543
:103C7000967130460AF0B4FE96F82070F47F002367
:103C800003FB03F01938784300F6C4165E4366431D
:103C900040F6C412294D96FBF2F125F813100133BA
:103CA000072BEDD1244C224A94F821000A274743E0
:103CB00094F82260B2F8D050B2F8D2804342C0F1FA
:103CC000640E9CB25FFA8EFEC6F1640CC5EB080868
:103CD000002322B2002A04DCB8BF014602DB012126
:103CE00000E0714602FB02F9494309FB06F999FB22
:103CF000F1F1614451434FF00A0991FBF9F2B9180F
:103D00000AB202FB08F14FF47A7291FBF2F10C4A0D
:103D10006918995202334C44182BA4B2D9D10648E1
:103D2000007803F031FBBDE8F84300F0C9BB00BFE9
:103D30000814002000F80108441300202A1900206C
:103D40005A1800202C4B70B53A2206464FF45F708B
:103D50001A705880BE25EF2200201D7183F8792348
:103D600083F87A0349B193F87813C42202FB013334
:103D7000224903F596700AF033FE00210D461E4AD3
:103D8000885C0131B1F55F7F85EA0005F7D182F8E3
:103D90007A53002507F084FC342007F095FC18487E
:103DA00007F0E8FC042811D1154C164B2046E158C9
:103DB00007F0B6FC042805D0013507F07DFC032D83
:103DC000E8D103E0104A04349442EED107F074FCC9
:103DD000032D02D0FFF7F4FE10B90A2006F078FA9E
:103DE000FFF728FF36B10F2014210122BDE87040F3
:103DF00003F018B870BD00BF081400204413002061
:103E000000F80108081CFE177CFB0108034B196829
:103E100008420CBF00200120704700BFA40700200B
:103E2000024B1A6810431860704700BFA4070020B7
:103E3000024B1A6822EA000018607047A4070020AD
:103E4000014B1868704700BFA4070020034B996816
:103E500008420CBF00200120704700BF081400205A
:103E6000024B9A6810439860704700BF0814002006
:103E70002DE9F7430446FFF7A3FE10B1002C00F034
:103E80005381AB4AAB4D10685168AB4C6B4603C3D2
:103E90004FF45F72002128460AF050FEC422002130
:103EA00020460AF04BFE3A20032128700220697157
:103EB000FFF7D6FFFA222021A5F8F2202A2385F861
:103EC000F4106E2240F2DC514FF4FA70A5F8EE3097
:103ED000A5F8F60085F804212B23A1F5C87221204E
:103EE00085F8053185F80601A5F8142102F5487317
:103EF00040F27E404FF47A7200274FF00108A5F897
:103F00001211A5F81631A5F8D00000F52F7102F5B1
:103F1000CB734FF4167640F2B450A5F8F060A5F8D4
:103F2000D210A5F8D42085F87873A5F8F870A5F814
:103F3000FA70A5F8FC7085F8E27085F8E37085F8F2
:103F4000E470A5F8E670A5F8E870A5F8EA7085F8C1
:103F5000ED7085F8EC8085F8077185F8107185F8AB
:103F6000297185F82A7185F8187185F8197185F815
:103F70001A81A5F8D630A5F8DA004FF4E1306C3399
:103F8000C5F820014FF4C8711E20A5F8D830A5F857
:103F9000DE10322340F6AC51E07220730B201A463B
:103FA000A5F8DC30A5F8E030A9814FF496435521FF
:103FB00060710820C5F82431E170172314212074A2
:103FC0000E2085F81C7185F81D7185F8287185F81B
:103FD0001B7163752825A375A1712D23E071617490
:103FE0006420502163732271A37627706570A570D9
:103FF000E775A7732776E7736776E17620777820F1
:10400000A072237584F82120412304224B485A21B1
:1040100084F8203084F82C20494B4A4A21724FF012
:104020000A09E17720631521474884F82F1063635C
:1040300084F81290657284F81E8084F8237084F8E6
:10404000247084F8257084F8227027856785E784BA
:1040500084F82D5084F82E50A26384F83C80FFF73A
:10406000D1FDC8214FF4966040F2D9333E4684F822
:10407000687084F8697084F86A5084F86B8084F8FA
:104080006C7084F8AE9084F8AF10A4F8B000A4F877
:10409000B2304FF4FA611DF807304FF47F72A1F58A
:1040A000FA700137A4F86E20A4F87010A4F872001A
:1040B00084F874300834082FEBD11F4C0122C8213A
:1040C000142084F8B42084F8B52084F8B620A4F82D
:1040D000B81084F8BA0084F8BC201E2364224FF480
:1040E0009671282084F8BB30A4F8BE20A4F8C01034
:1040F000A4F8C20000240F4B0021E2181034C02C99
:104100001161F8D100241148C42220180A49C4348E
:104110000AF066FCB4F5137FF5D10020014603B028
:10412000BDE8F043FFF70EBE03B0BDE8F08300BF6B
:1041300034FB000808140020441300209A99193F0A
:10414000F6287C3F3D0A773F3114010834150020E2
:10415000024B9A6822EA0000986070470814002019
:10416000014B9868704700BF0814002010B5FCF799
:1041700055FD00210446FCF761FF08B1204601E02F
:1041800004F100400549FCF751FE0549FCF79AFD92
:1041900008F06AF8034B186010BD00BF8096184BFA
:1041A00035FA8E3C0C00002010B5044C0023207022
:1041B000236105F0DDFF606110BD00BF881700209E
:1041C000F8B5101A0C461F46FCF728FD0546381BAB
:1041D000FCF724FD174B079E1968FCF773FD294671
:1041E00004462846FCF76EFD214607462046FCF7AC
:1041F00069FD01463846FCF75DFC08F07BFA0E4984
:10420000FCF760FDFCF74AFF06990860214605F1BE
:10421000004008F0D9F80949FCF754FD0849FCF7BB
:1042200049FCFCF715FF0028BCBF00F50C40A0308E
:104230003060F8BD0C0000202C7D8E3FA00CB345F3
:1042400000A00C46F8B51D4614460E46FCF7E6FCE9
:104250006968FCF737FD3146FCF734FD2168FCF74F
:1042600029FC2060FCF7F4FEED68074605F10040EC
:10427000FCF7EEFE06462846FCF7EAFE314602460B
:10428000384606F0A7FDFCF7C9FC2060FCF7E0FE0D
:10429000F8BD000010B50446002003460B49CA5C77
:1042A00092B12E2A04D1013374B1C91800220A55E3
:1042B000064A0A21D25C4843A2F13001092901D8FB
:1042C000303880180133E9E710BD00BF95080020A1
:1042D0002DE9F0412E4B93F81C0110B1012852D169
:1042E0000AE02C4B0C2059782B4A41432B4B506849
:1042F000595806F034F843E0274D686806F034F862
:10430000002840D0234C21782646012920D105F0F1
:104310002FFF06466069321A632A37D921690429BA
:1043200014D84FF00C0808FB01F31C4F6868F958CB
:1043300006F015F8607808FB00776868796805F082
:10434000F9FF22696661511C21611CE0022018E01E
:1043500022693AB964780C235C43104968680959AA
:1043600005F0FDFF33690B4C8B2B09D80C4A0A482A
:10437000D15C406805F0D9FF21694B1C236102E044
:104380000320FFF711FF034800214160BDE8F081E1
:104390000814002088170020EC170020A015010841
:1043A0001415010810B51A4C2378581E03282DD86F
:1043B000DFE800F002021C06BDE81040FFF788BFEE
:1043C000637860685A1C411C0523D0B26160B0FB61
:1043D000F3F103FB1102627005F0CAFE0D4B0E49AA
:1043E000A06000201870C87201200BE005F0C0FE2C
:1043F000A16840F6C412431A934207D92020FFF760
:1044000017FD0420BDE81040FFF7CEBE10BD00BF71
:1044100088170020EA1800204218002010B50B4C25
:10442000E37A8BB10A48017804290DD9094A0A4B6D
:104430001068516818605960FFF798FE0748084BEC
:10444000028801211A80217310BD00BF421800208C
:10445000EA180020CC1800209C18002074190020B5
:1044600062080020002370B51C460F480021195235
:10447000142060430D4A0E4E0E4D995200223250C8
:10448000595335180C4E6960AA60325035180B4EDE
:1044900001346960AA6002333518022C3250696019
:1044A000AA60E2D170BD00BF56180020C80B0020E2
:1044B0002008002072180020D4070020A80800203F
:1044C00070B5204C204D6079FCF7A4FB1F49FCF728
:1044D000ADFC2860E07BFCF79DFB1C49FCF7A6FCCB
:1044E0001B4E6860EE60A079FCF794FB1949FCF75D
:1044F0009DFC194D2860207CFCF78CFB1349FCF7D0
:1045000095FC6860A07EFCF785FB1449FCF78EFCE7
:10451000EE60A860E079FCF77DFB0E49FCF786FCB5
:104520000F4D2860607CFCF775FB0849FCF77EFCAA
:104530006860E07EFCF76EFB0849FCF777FCEE60F4
:10454000A86070BD441300204C0800200000C84241
:104550000000FA44000020417808002000007A445E
:104560001008002038B505460020FFF71DFE4FF467
:104570008070FFF76BFC00281FD0104C657005F0B1
:10458000F7FDA0600E48002390F81C11636000291D
:104590000CBF01240324FFF793FF0C225543094B62
:1045A00009495A590948234606F09EF908494860C6
:1045B0000120BDE83840FFF7F7BD38BD881700205F
:1045C00008140020A0150108994700080044004085
:1045D000EC170020F8B51A4B187803282CD119498C
:1045E000194D4C68002208261027E2622E612F61C7
:1045F000144C606805F0A9FE58B1134D08266E6191
:104600006068276805F0A6FE0146384605F08DFE75
:104610002E610C4C206805F098FE0028E8D00A4D69
:10462000102694E881006E6105F094FE014638463C
:1046300005F07BFE2E61DBE74FF0FF30F8BD00BFD9
:1046400088170020EC170020000C0140F7B5036824
:10465000164C174D23600968164E61600068FFF71D
:1046600085FD94E80C0014480196009095E803003D
:10467000FFF7A6FD6B68114A61683668C81A1660B4
:10468000FCF7CCFA0E4A0F4F1168FCF71BFBFCF746
:10469000DFFC2968786020680B4A431A0B483B60AE
:1046A000B0F8BE100A4B16601980FEBD68080020E5
:1046B000CC180020D0080020DC080020640800206E
:1046C0000C00002004090020E00800204413002012
:1046D000FC08002044F25063984203DDA0F50C4032
:1046E000A038704703498842BCBF00F50C40A03099
:1046F000704700BFB0B9FFFF244BF0B51D680246FC
:1047000016781446A9194B78013203F00401CBB294
:10471000002BF5D1221A022A09DD13B10A225343D4
:10472000DBB210F8011B30395B18DBB2F2E7002175
:10473000844209D911B10A225143C9B210F8012BA0
:10474000303A8918C9B2F3E72E2E11D10134042072
:1047500000220A2672432678AF197F7807F00407F3
:10476000FFB217B1303A921901340138F1D100E0AB
:10477000002207484143642000FB0211062205483D
:10478000B1FBF2F100FB0310F0BD00BF740100208B
:1047900040420F00809698002DE9F04F9F4B91B05A
:1047A00093F81C11C4B2012900F0DC8002D3022965
:1047B00040F0BE85242C07D1994A9A489A49002393
:1047C000137003700B70C7E02C2C02D02A2C40F021
:1047D0008280944D924A2978944B15780020585441
:1047E000934AB5B918781570472868D15978502977
:1047F00065D19878472840F08985D978472940F0D5
:1048000085851B79412B40F081850120107000F0D7
:104810007DBD117801293AD1022D05D11846FFF747
:104820006BFF844908604AE0032D07D119785329AA
:1048300045D1804802685342036040E0042D05D111
:104840001846FFF759FF7B4B586038E0052D07D11C
:104850001B78572B33D177494A68504248602EE085
:10486000062D07D119787448302994BF0021012101
:10487000C17224E0072D04D1FFF70CFD6F4A1070C0
:104880001DE0092D1BD1FFF705FD6D4B16E0022938
:1048900015D1072D0CD10120FFF7FCFC41F2184285
:1048A00050434FF47A71674BB0FBF1F0188006E08B
:1048B000082D04D10120FFF7EDFC634B1880584B05
:1048C0005849013500202A2C1D7008703BD15F49E2
:1048D0000120087040E00D2C5C4A01D00A2C28D140
:1048E00013780BB3514908784978A0F13003DAB254
:1048F000092A84BFA0F13702D2B2A1F1300302F03D
:104900000F00DAB20001092A84BFA1F13702D2B246
:10491000454B02F00F0140181A78C1B2B2EB010CFE
:10492000DCF1000050EB0C03484A002111707BB908
:1049300012E03C490B780E2B03D83C48C454013399
:104940000B70127842B9384B1A7854401C7003E04F
:1049500037480378012B00D00023D80700F13581B8
:1049600000F0E6BC3A4B00221978082900F2E084F6
:10497000DFE801F00A05101827377C95A100622CAA
:1049800001D1022294E01A70B52C40F0D18418783D
:10499000421C8DE02F4D304A032119702C70147089
:1049A0002E4B0BE02C4904251D700A782B4BA518C3
:1049B0001878EAB210181870294B0A701C7000F0B1
:1049C000B7BC254A05251D70244B15781978641944
:1049D000E4B2147064181C70224BC0B2188000F04E
:1049E000A7BC06221A701C4A1C4B1578197864194A
:1049F000E4B2147064181C701A4B198801EB002083
:104A000082B2B2F5007F01D81A8003E0002018803E
:104A10000F4B18700022144900F076BC08140020D7
:104A20000E080020700800205E0800209508002075
:104A30000C090020CC18002042180020EA180020A1
:104A400054180020761800205C0B00200808002075
:104A5000A4080020E40800205C0800205D08002075
:104A6000D107002060080020480800205E495F4D03
:104A70000B782878E218D3B2181828705C4D0B70A8
:104A80002A885C48C72A9CBF5B498C54511C8BB256
:104A90002B8005889D4240F04B84072207E00825C3
:104AA0001D70514B1978A14200F042840022534BF3
:104AB0001A7000F03DBC4D4D1A702878A04240F0AD
:104AC00037844F4B197806293BD005D8022913D0DB
:104AD000032940F02D8423E0122947D0302940F0EB
:104AE00027844549474B0A794349102A88BF102239
:104AF0001A701D78002347E03F4B434D9A68596870
:104B000018692A60414A69604FF47A7590FBF5F1A3
:104B10003F4B10783F4D1980E87201213E4A23E057
:104B2000354A557915F0010504D01079C11E4B4264
:104B300053EB0105354A1570002D39D13548C57242
:104B400036E02D4DEB7A13F0010304D0A87AC11E94
:104B50004A4252EB01032D4D2B700BB92D48C37205
:104B600025492E4A91F82F10117021E0224D2C4931
:104B70006869AA69088042F210732A4892FBF3F52B
:104B800005800121284AEFE70C31AB4210DA11F819
:104B9000044C264811F8032C1C54254C25481A5562
:104BA00011F8012C0C781A54234A9C540133EBE77A
:104BB000194A1378002B00F0BB831B4D287800287E
:104BC00000F0B683002414702C701C4CA168E160C6
:104BD00005F0CEFAA0602020FFF722F9184B1A78D2
:104BE000012A2FD100202EE05C0800205D08002063
:104BF000480800206008002010090020A4080020B8
:104C0000D1070020EB180020CC180020F808002065
:104C100054180020421800205F080020EA180020E5
:104C2000761800205C0B0020E508002030180020DA
:104C3000BB180020D4180020181900208817002065
:104C4000C60B002001207D491870CB7A002B00F0A4
:104C50006F837B4A1078042840F26A834E7806B945
:104C60000E730F7B17B90EB1FFF7D8FB754D0521F9
:104C70002C78754E631C93FBF1F201FB1230734FDD
:104C8000287096F800C0724D07EB80020023714C2B
:104C900071491E59DFF80CE27048714F5E5096FB67
:104CA000FEF1195007FB0160DFF8FC9103EB040AE9
:104CB00042F2107490FBF4F6B4B2176853F809602E
:104CC0001060C7EB06084044052643F8090090FB36
:104CD000F6F00EFB01016348BCF1010F25F8024F0D
:104CE000195005D1023CB4F5797F98BFCAF800107D
:104CF00004331432082BCAD105F03AFA5A4D5B4CF2
:104D00002A68801AFBF786FF5949FCF78FF8206064
:104D100005F02EFA286025684FF07E512846FCF7F2
:104D20006FF908B94FF07E550CA90DAA4948514BAF
:104D300025600091019203C80CCBFFF741FA0C9853
:104D40006423B0FBF3F24C490D980A8090FBF3F317
:104D50004A4A3A481380037B0BB90B8013804849B9
:104D60000A78002A36D0414F4FF07E503968FCF760
:104D70005DF8444D374E2B6804463068C01AFBF787
:104D80004DFF2146FBF79EFFFCF762F96A687168E8
:104D90003D4D0746881AFBF741FF2968FBF792FF54
:104DA0002146FBF78FFFFCF753F904B23748022581
:104DB000B0F902303FB2E11891FBF5F2B0F9001002
:104DC00093B27A18324C92FBF5F18AB2638022805A
:104DD000438002801F4A2A4B012018705168294BDA
:104DE000106859601860154B1A7A1AB9DB79002BD4
:104DF00000F09E82274E284D284C01960095154FB5
:104E000094E80C00FFF7DCF961687868244E081A12
:104E1000FBF704FF1C4A1168FBF754FFFCF718F975
:104E200021683B68084A7060C81A92F90010306027
:104E300001293BD0022940F07B82F0E0421800209B
:104E4000EA18002094080020600B0020A80700202A
:104E500070080020CC180020F00800208C080020EA
:104E6000806967FF00080020D8090020880800201A
:104E700000007A449C1800209A180020A4180020F2
:104E8000D0070020E80800200C0000200A080020BD
:104E9000FE080020D0080020DC0800206808002060
:104EA0000409002080969800D408002000252C4694
:104EB0002E46DFF870B28A4F5BF82680DFF86092EA
:104EC0004046FBF7ABFE3968FBF7FCFEFCF7C0F889
:104ED00034F80930834AC01A81B2A1520FB2CDF81A
:104EE0000890DFF8449238460397FBF797FED9F80D
:104EF0000010FBF7E7FEFCF7ABF87B4983B2142008
:104F000000FB0617DFF8FCA1039ADAF8001002EBA9
:104F1000080008933A464B46FFF794F9089B5BF864
:104F20002610DFF80882DAF800B0181824F8080014
:104F300058460891FBF77AFAD7F808A0CDE90401A2
:104F40005046FBF773FA694ACDE9060192F8BA00B8
:104F5000FBF760FEFBF76AFA5FA3D3E90023FBF7D8
:104F6000B9FA02460B4600206149FBF7DDFBDDE99B
:104F70000423FBF7FDF802460B46DDE90401FBF7CD
:104F8000D3FB089BCDE9040178680136181AFBF7BA
:104F900045FE5946FBF74AFF5146FBF789FDFBF7F3
:104FA00045FA02460B46DDE90401FBF793FA0B468E
:104FB0000246DDE90601FBF7DBF8FBF725FD089A61
:104FC000D9F808107A603861B860FBF77BFEFCF70F
:104FD0003FF848494FF4FA6205F0FCFEDDF808C0DE
:104FE00034F8082034F80C30313399B2622998BF74
:104FF0000020801883B224F808303F4940F6B832C8
:1050000018B205F0E7FE384928F804004A593B4831
:1050100002342A501435022E00F08A8149E72F68A5
:10502000324D7C08B5F9C080354DA04528BFA0465B
:105030002E881FFA88F80FFA88F033B298420BDDF9
:10504000304A31491068FBF73DFEFCF701F8811941
:105050001FFA81F8A5F800802C4C2D4E2568306889
:105060002C1A2046FFF736FB0028D8BF404241F2F9
:1050700093139842CCBF00200120002858D020462E
:10508000FBF7CCFD2349FBF71DFE07F061F906464F
:105090003846FBF7BFFD01463046FBF713FEFBF732
:1050A000D7FF1D4A1449108000B240F6B83205F00F
:1050B00091FE291848F6A045A94203DDA1F50C414F
:1050C000A03904E00029BCBF01F50C41A031134810
:1050D00001602FE0AFF30080182D4454FB211940EC
:1050E0004C080020FC070020D407002044130020B7
:1050F0000000F03F30F8FFFF48F4FFFFA808002051
:10510000FC080020880800200000C842D0080020C9
:10511000E0080020D3023739FA0800206408002094
:10512000FE080020040900207808002072180020E2
:10513000834F3D60824C002523682C46C3F50C50FC
:105140002830FBF76BFD7F49FBF7BCFD074607F0F6
:105150008BF80F90384607F0FBF82F460E900EAEF6
:105160000FFA88F0FBF75AFD56F82710FBF7AAFD57
:10517000754A0646105FFBF751FD01463046FBF7C6
:1051800097FCFBF765FFDFF8FCA14FF47A7224F877
:105190000A006E4900B205F01DFE81B20BB2DFF8C5
:1051A000E89124F80A1018460393FBF737FDD9F865
:1051B0000010FBF787FDFBF74BFF654A142606FB43
:1051C0000726DFF8C8B1039980B2324606904B46F5
:1051D0000846DBF80010FFF735F8DBF800C034F9BB
:1051E0000A3009906046D6F808A00893CDF808C0A8
:1051F000FBF71CF9CDE904015046FBF717F9DFF87E
:1052000090B1CDE90A019BF8BA00FBF703FDFBF76B
:105210000DF949A3D3E90023FBF75CF902460B46DD
:1052200000204C49FBF780FADDE90423FAF7A0FFE0
:105230000B460246DDE90401FBF776FA089ACDE950
:10524000040170680137101AFBF7E8FCDDF808C0AC
:105250006146FBF7EBFD5146FBF72AFCFBF7E6F84E
:1052600002460B46DDE90401FBF734F902460B4622
:10527000DDE90A01FAF77CFFFBF7C6FB089B099AF8
:1052800073603061B060069ED9F80810B618FBF75D
:1052900019FDFBF7DDFE30182F4E81B2A15308B285
:1052A00040F6B8322D4905F095FD294B3053EA58A8
:1052B0002B4802342A501435022F5B467FF44FAF3F
:1052C00093F8BC1031B11E4A64211068254A90FB46
:1052D000F1F010802449B3F8B830086898420DD92D
:1052E000224A234B11681868081AFFF7F3F942F2B3
:1052F00010720028B8BF4042904219DD1D4B1E4875
:1053000001211970028817490A8011E01B498A7827
:10531000522A7FF4D4AACB784D2B7FF4D0AA0879F7
:1053200043287FF4CCAA164A02211170FFF7C7BAAE
:1053300011B0BDE8F08F00BF182D4454FB21194077
:1053400064080020D3023739FE08002018FCFFFF54
:10535000A80800200000F03F7218002048F4FFFF6A
:10536000D407002048190020DC080020D0080020C5
:10537000E0080020600B0020620800209508002053
:105380000C090020FC0700201008002088080020DD
:1053900044130020AFF300802DE9F84F384E044647
:1053A0003768384606F060FF0546384606F0D0FFFD
:1053B00076688046304606F057FF8346304606F052
:1053C000C7FFD4F80490064629464846FBF77AFC06
:1053D000A768824641463846FBF774FC01465046B2
:1053E000FBF766FB216882465846FBF76BFC41469B
:1053F00004464846FBF766FC3146FBF763FC014672
:105400002046FBF757FB314604463846FBF75AFC6B
:105410002946FBF757FC01462046FBF74BFB0146AC
:10542000504606F0D1FF1749FBF74CFCFAF7FEFF98
:1054300011A3D3E90023FBF777F9134B044618684F
:105440000D46FAF7F3FF02460B4620462946FAF7C7
:105450008FFE00220D4BFBF767F9FBF7D5FA06F03C
:1054600037FF81B20A0444BF00F5B47189B208B2B3
:10547000BDE8F88FAFF30080182D4454FB2109409C
:10548000340A00200000E144040A00200000244007
:105490000B4B10B51888FBF7C1FB0A490446FBF714
:1054A00011FCFBF7D5FD0849088021460748FBF7AA
:1054B000BDFC0749FBF7BAFC064A106010BD00BFEF
:1054C00034000020C903683F080A00200AE81C4194
:1054D00000401C46BC1700202DE9F04F0C68836883
:1054E00089B0D0F800A0D0F8048006462046039387
:1054F0008B4606F0B9FE0746204606F029FFDBF88A
:1055000004408146204606F0AFFE0546204606F0E0
:105510001FFFDBF8082004461046019206F0A4FEA7
:105520008346019806F014FF394602905846FBF76F
:10553000C9FB394604900298FBF7C4FB5946059015
:105540004846FBF7BFFB029906904846FBF7BAFBBB
:10555000294607905846FBF7B5FB01465046FBF736
:10556000B1FB214683460698FBF7ACFB0146059844
:10557000FBF7A0FA01464046FBF7A4FB014658465C
:10558000FBF798FA214683460498FBF79BFB0146FC
:105590000798FBF78DFA01460398FBF793FB01464A
:1055A0005846FBF787FA3060029905F10040FBF797
:1055B00089FB01465046FBF785FB21468346079849
:1055C000FBF780FB01460498FBF772FA0146404660
:1055D000FBF778FB01465846FBF76CFA21468346F9
:1055E0000598FBF76FFB01460698FBF763FA014647
:1055F0000398FBF767FB01465846FBF75BFA214629
:1056000070605046FBF75EFB2946044609F10040F6
:10561000FBF758FB01464046FBF754FB014620468A
:10562000FBF748FA394604462846FBF74BFB014690
:105630000398FBF747FB01462046FBF73BFAB060B7
:1056400009B0BDE8F08F80EAE073A3EBE0738B4212
:1056500006DB002801DD401A704702D04018704771
:105660000020704700000000F0B5574B87B01A6863
:105670005B6802F1004203F100430193534B05467E
:10568000B3F900000092FBF7C9FA00F10040FAF705
:10569000CDFE4BA3D3E90023FAF71CFFFBF7B4F9C7
:1056A0004B4C0290B4F90000FBF7B8FA0390B4F940
:1056B0000200FBF7B3FA0490B4F90400FBF7AEFA6A
:1056C0006946059003A8FFF707FF424B93F83C306B
:1056D000012B16D14048417869B9404C40262268D8
:1056E00092FBF6F7D01BFBF799FA0599FBF7E2F965
:1056F000FBF7AEFC2060394B4021186890FBF1F0BD
:1057000001E0374B1888FBF789FA01460598FBF74B
:10571000CFF905902846FBF77DFA32490746FBF79B
:10572000C9F901463846FBF781FB2F4E074634681E
:1057300005982146FBF7BCF901463846FBF7C2FA4B
:1057400001462046FBF7B6F9224C306006F0C0FD5A
:1057500094F82D10FFF777FFFBF760FA0590039898
:1057600006F0B6FD94F82E10FFF76DFFFBF756FA22
:105770000390049806F0ACFD94F82E10FFF763FF39
:10578000FBF74CFA04901948194B01681A684C1C35
:105790000460184CAD1803981D60256806F098FD4C
:1057A0002B1804986568236006F092FD2A18059866
:1057B000A568626006F08CFD2818A06007B0F0BDF7
:1057C000399D52A246DF913F340A0020741900200F
:1057D000D81700204413002042180020F0090020B0
:1057E000340000203661823CEC0900202C0A0020A5
:1057F000600A0020B01700202DE9F04F87B002F0BA
:1058000035FD0220FEF702FB002800F03B8102F08C
:10581000EDFB04F093FCA64C05462768C71B3846F1
:10582000FBF7F8F9A349C968FBF74CFA8346A2488D
:10583000256090F82C8000252C462E469F4A105F4C
:10584000FBF7ECF95946FBF73DFA03AB5851B8F1B9
:10585000000F27D04046FBF7E1F901464FF07E509C
:10586000FBF7E4FADFF89892824651464FF07E50FB
:10587000FBF71EF955F80910FBF724FA9049034687
:10588000085F0193FBF7CAF95146FBF71BFA014683
:105890000198FBF70FF949F80500FBF7D9FB894A96
:1058A000105303E08649874A605AA052854B04355D
:1058B000E15E0234062C01FB0166BFD1824A6420FE
:1058C000138846435B43814803A996FBF3F6FFF731
:1058D00003FE0820FEF79AFA08B17D4800E07D48F3
:1058E00003A9493EFFF7F8FDB1B23B2904D90820CE
:1058F000FEF78CFA48BB50E0774CB4F8F000FBF7A9
:1059000089F94FF07E518046FBF7D4F801464FF0FD
:105910007E50FBF78BFA002406466C4D404655F846
:105920001410FBF7CFF981466648005FFBF776F964
:1059300001464846FBF7BEF83146FBF7C3F945F888
:1059400014000234062CE8D1D1E7634A0024B2F8EF
:10595000F200FBF75FF94FF07E518046FBF7AAF8A3
:1059600001464FF07E50FBF761FA0646584D40461F
:1059700055F81410FBF7A6F9584B8146185FFBF752
:105980004DF901464846FBF795F83146FBF79AF981
:1059900045F814000234062CE8D151494B4DB1F9B9
:1059A0000000FBF73BF9AE6801463046FBF746FBCB
:1059B0004C4B10B10120587300E0587331466868B1
:1059C00006F002FD484C2A682060686802F1004633
:1059D0000146FBF777F9D5F8088005464146404671
:1059E000FBF770F901462846FBF764F806F082FEE3
:1059F0000146304606F0E8FC60602068FAF716FDC4
:105A000029A3D3E90023FAF765FDFAF7FDFF06F0B5
:105A10005FFC364D28806068FAF708FD22A3D3E9C1
:105A20000023FAF757FDFAF7EFFF06F051FC688004
:105A30000820FEF7EBF92E4C08B1254800E0254878
:105A4000FFF7AAFC20803846FFF70EFE1A4991F8AE
:105A50006C40DCB11D4B27499868FBF733F9FBF725
:105A6000F7FA194A1188642290FBF1F0C0F1640042
:105A7000002105F0AFF960431F4B082490FBF4F4BC
:105A80001C8003E00E4B188058809880124A0B4B04
:105A90005179012936D019481A8859889B88028083
:105AA0004180838040E000BF3B597E90A9E7814060
:105AB000F40900204C19002044130020A8170020EE
:105AC000C0170020D817002034000020E017002065
:105AD0003C0A00201000002008140020CC170020F1
