:020000040800F2
:103000000050002091590008415A0008D59100084D
:10301000415A0008415A0008415A000800000000C7
:10302000000000000000000000000000415A0008FD
:10303000415A000800000000415A0008DDD2000893
:10304000415A0008415A0008415A0008415A0008F4
:10305000415A0008415A0008415A0008415A0008E4
:10306000415A0008415A0008415A0008415A0008D4
:10307000415A0008415A000809DC0008415A00087A
:10308000415A0008415A0008415A0008415A0008B4
:10309000415A0008415A0008415A0008415A0008A4
:1030A000415A0008415A0008415A000811590008C5
:1030B0001D59000825590008315900084DCF000856
:1030C000CDD2000851CF0008C9D20008415A0008EB
:1030D000415A00083DDC000879DC0008415A00082C
:1030E000DD450008415A0008415A00080000000070
:1030F00000000000000000000000000000000000D0
:0C31000000000000000000005FF808F173
:1031100010B5054C237833B9044810B10448AFF317
:1031200000800121217010BDA405002000000000D6
:103130004453010808B5064B1BB106480649AFF3D6
:1031400000800648016811B1054A02B1904708BDE8
:103150000000000044530108A8050020A405002039
:103160000000000081F0004102E000BF83F0004356
:1031700030B54FEA41044FEA430594EA050F08BF12
:1031800090EA020F1FBF54EA000C55EA020C7FEAD6
:10319000645C7FEA655C00F0E2804FEA5454D4EB53
:1031A0005555B8BF6D420CDD2C4480EA020281EA1D
:1031B000030382EA000083EA010180EA020281EA55
:1031C0000303362D88BF30BD11F0004F4FEA0131A7
:1031D0004FF4801C4CEA113102D0404261EB4101B6
:1031E00013F0004F4FEA03334CEA133302D052423C
:1031F00063EB430394EA050F00F0A780A4F10104F8
:10320000D5F1200E0DDB02FA0EFC22FA05F2801831
:1032100041F1000103FA0EF2801843FA05F3594117
:103220000EE0A5F120050EF1200E012A03FA0EFC96
:1032300028BF4CF0020C43FA05F3C01851EBE371C0
:1032400001F0004507D54FF0000EDCF1000C7EEBDD
:1032500000006EEB0101B1F5801F1BD3B1F5001F1B
:103260000CD349085FEA30004FEA3C0C04F101043A
:103270004FEA445212F5800F80F09A80BCF1004F63
:1032800008BF5FEA500C50F1000041EB045141EAE5
:10329000050130BD5FEA4C0C404141EB010111F4E6
:1032A000801FA4F10104E9D191F0000F04BF014691
:1032B0000020B1FA81F308BF2033A3F10B03B3F16F
:1032C00020020CDA0C3208DD02F1140CC2F10C02FF
:1032D00001FA0CF021FA02F10CE002F11402D8BF5D
:1032E000C2F1200C01FA02F120FA0CFCDCBF41EA29
:1032F0000C019040E41AA2BF01EB0451294330BDF8
:103300006FEA04041F3C1CDA0C340EDC04F11404D4
:10331000C4F1200220FA04F001FA02F340EA0300AB
:1033200021FA04F345EA030130BDC4F10C04C4F1F1
:10333000200220FA02F001FA04F340EA03002946D1
:1033400030BD21FA04F0294630BD94F0000F83F41B
:10335000801306BF81F480110134013D4EE77FEAFE
:10336000645C18BF7FEA655C29D094EA050F08BF4A
:1033700090EA020F05D054EA000C04BF194610462B
:1033800030BD91EA030F1EBF0021002030BD5FEA6F
:10339000545C05D14000494128BF41F0004130BD97
:1033A00014F580043CBF01F5801130BD01F00045EB
:1033B00045F0FE4141F470014FF0000030BD7FEA5E
:1033C000645C1ABF194610467FEA655C1CBF0B4659
:1033D000024650EA013406BF52EA033591EA030F70
:1033E00041F4002130BD00BF90F0000F04BF002168
:1033F000704730B54FF4806404F132044FF000059B
:103400004FF0000150E700BF90F0000F04BF002113
:10341000704730B54FF4806404F1320410F0004579
:1034200048BF40424FF000013EE700BF42004FEA74
:10343000E2014FEA31014FEA02701FBF12F07F43F1
:1034400093F07F4F81F06051704792F0000F14BFEE
:1034500093F07F4F704730B54FF4607401F0004532
:1034600021F0004120E700BF50EA010208BF704789
:1034700030B54FF000050AE050EA010208BF70477E
:1034800030B511F0004502D5404261EB41014FF4E7
:10349000806404F132045FEA915C3FF4DCAE4FF0EB
:1034A00003025FEADC0C18BF03325FEADC0C18BFD2
:1034B000033202EBDC02C2F1200300FA03FC20FA23
:1034C00002F001FA03FE40EA0E0021FA02F1144470
:1034D000C1E600BF70B54FF0FF0C4CF4E06C1CEA85
:1034E00011541DBF1CEA135594EA0C0F95EA0C0FFA
:1034F00000F0DEF82C4481EA030621EA4C5123EA6D
:103500004C5350EA013518BF52EA033541F480119B
:1035100043F4801338D0A0FB02CE4FF00005E1FB4E
:1035200002E506F00042E0FB03E54FF00006E1FB98
:1035300003569CF0000F18BF4EF0010EA4F1FF04DB
:10354000B6F5007F64F5407404D25FEA4E0E6D411B
:1035500046EB060642EAC62141EA55514FEAC5202C
:1035600040EA5E504FEACE2EB4F1FD0C88BFBCF5A8
:10357000E06F1ED8BEF1004F08BF5FEA500E50F159
:10358000000041EB045170BD06F0004646EA01011F
:1035900040EA020081EA0301B4EB5C04C2BFD4EB51
:1035A0000C0541EA045170BD41F480114FF0000E4A
:1035B000013C00F3AB8014F1360FDEBF002001F0B8
:1035C000004170BDC4F10004203C35DA0C341BDC32
:1035D00004F11404C4F1200500FA05F320FA04F004
:1035E00001FA05F240EA020001F0004221F0004138
:1035F00010EBD37021FA04F642EB06015EEA430EAB
:1036000008BF20EAD37070BDC4F10C04C4F12005DA
:1036100000FA04F320FA05F001FA04F240EA02008D
:1036200001F0004110EBD37041F100015EEA430E5E
:1036300008BF20EAD37070BDC4F1200500FA05F27E
:103640004EEA020E20FA04F301FA05F243EA0203FD
:1036500021FA04F001F0004121FA04F220EA02000C
:1036600000EBD3705EEA430E08BF20EAD37070BD52
:1036700094F0000F0FD101F00046400041EB010132
:1036800011F4801F08BF013CF7D041EA060195F014
:10369000000F18BF704703F00046520043EB0303CE
:1036A00013F4801F08BF013DF7D043EA06037047BB
:1036B00094EA0C0F0CEA135518BF95EA0C0F0CD0C6
:1036C00050EA410618BF52EA4306D1D181EA03010C
:1036D00001F000414FF0000070BD50EA410606BF06
:1036E0001046194652EA430619D094EA0C0F02D14B
:1036F00050EA013613D195EA0C0F05D152EA033690
:103700001CBF104619460AD181EA030101F00041AD
:1037100041F0FE4141F470014FF0000070BD41F0F6
:10372000FE4141F4780170BD70B54FF0FF0C4CF4D0
:10373000E06C1CEA11541DBF1CEA135594EA0C0FEF
:1037400095EA0C0F00F0A7F8A4EB050481EA030E3C
:1037500052EA03354FEA013100F088804FEA033323
:103760004FF0805545EA131343EA12634FEA0222F1
:1037700045EA111545EA10654FEA00260EF00041B2
:103780009D4208BF964244F1FD0404F5407402D204
:103790005B084FEA3202B61A65EB03055B084FEA95
:1037A00032024FF480104FF4002CB6EB020E75EB92
:1037B000030E22BFB61A754640EA0C005B084FEABA
:1037C0003202B6EB020E75EB030E22BFB61A754637
:1037D00040EA5C005B084FEA3202B6EB020E75EB82
:1037E000030E22BFB61A754640EA9C005B084FEAFA
:1037F0003202B6EB020E75EB030E22BFB61A754607
:1038000040EADC0055EA060E18D04FEA051545EAF5
:1038100016754FEA06164FEAC30343EA52734FEA9E
:10382000C2025FEA1C1CC0D111F4801F0BD141EA17
:1038300000014FF000004FF0004CB6E711F4801F7C
:1038400004BF01430020B4F1FD0C88BFBCF5E06F5C
:103850003FF6AFAEB5EB030C04BFB6EB020C5FEA6C
:10386000500C50F1000041EB045170BD0EF0004EC1
:103870004EEA113114EB5C04C2BFD4EB0C0541EAF3
:10388000045170BD41F480114FF0000E013C90E6F0
:1038900045EA060E8DE60CEA135594EA0C0F08BFB4
:1038A00095EA0C0F3FF43BAF94EA0C0F0AD150EAB3
:1038B00001347FF434AF95EA0C0F7FF425AF104646
:1038C00019462CE795EA0C0F06D152EA03353FF46E
:1038D000FDAE1046194622E750EA410618BF52EAEB
:1038E00043067FF4C5AE50EA41047FF40DAF52EABF
:1038F00043057FF4EBAE12E74FF0FF3C06E000BF5C
:103900004FF0010C02E000BF4FF0010C4DF804CD68
:103910004FEA410C7FEA6C5C4FEA430C18BF7FEA28
:103920006C5C1BD001B050EA410C0CBF52EA430C56
:1039300091EA030F02BF90EA020F0020704710F1D6
:10394000000F91EA030F58BF994208BF90422CBF65
:10395000D8176FEAE37040F0010070474FEA410C5E
:103960007FEA6C5C02D150EA013C07D14FEA430C7C
:103970007FEA6C5CD6D152EA033CD3D05DF8040BED
:10398000704700BF8446104662468C46194663461F
:1039900000E000BF01B5FFF7B7FF002848BF10F1F6
:1039A000000F01BD4DF808EDFFF7F4FF0CBF01203B
:1039B00000205DF808FB00BF4DF808EDFFF7EAFFB7
:1039C00034BF012000205DF808FB00BF4DF808ED72
:1039D000FFF7E0FF94BF012000205DF808FB00BF67
:1039E0004DF808EDFFF7CEFF94BF012000205DF8F1
:1039F00008FB00BF4DF808EDFFF7C4FF34BF0120FE
:103A000000205DF808FB00BF4FEA4102B2F1E0433D
:103A100024BFB3F5001CDCF1FE5C0DD901F0004CB5
:103A20004FEAC0024CEA5070B2F1004F40EB830005
:103A300008BF20F00100704711F0804F21D113F131
:103A40003872BCBF01F00040704741F480114FEA6A
:103A50005252C2F11802C2F1200C10FA0CF320FAF3
:103A600002F018BF40F001004FEAC1234FEAD32310
:103A700003FA0CFC40EA0C0023FA02F34FEA43037A
:103A8000CCE77FEA625307D150EA01331EBF4FF003
:103A9000FE4040F44000704701F0004040F0FE401E
:103AA00040F40000704700BF80F0004002E000BF1B
:103AB00081F0004142001FBF5FEA410392EA030F19
:103AC0007FEA226C7FEA236C6AD04FEA1262D2EB63
:103AD0001363C1BFD218414048404140B8BF5B4268
:103AE000192B88BF704710F0004F40F4000020F001
:103AF0007F4018BF404211F0004F41F4000121F017
:103B00007F4118BF494292EA030F3FD0A2F1010260
:103B100041FA03FC10EB0C00C3F1200301FA03F19E
:103B200000F0004302D5494260EB4000B0F5000FC1
:103B300013D3B0F1807F06D340084FEA310102F180
:103B40000102FE2A51D2B1F1004F40EBC25008BF32
:103B500020F0010040EA03007047490040EB0000FC
:103B600010F4000FA2F10102EDD1B0FA80FCACF12B
:103B7000080CB2EB0C0200FA0CF0AABF00EBC2502A
:103B800052421843BCBFD0401843704792F0000F18
:103B900081F4000106BF80F400000132013BB5E76B
:103BA0004FEA41037FEA226C18BF7FEA236C21D0E1
:103BB00092EA030F04D092F0000F08BF0846704746
:103BC00090EA010F1CBF0020704712F07F4F04D114
:103BD000400028BF40F00040704712F100723CBF27
:103BE00000F50000704700F0004343F0FE4040F451
:103BF000000070477FEA226216BF08467FEA23630F
:103C00000146420206BF5FEA412390EA010F40F4F9
:103C1000800070474FF0000304E000BF10F0004345
:103C200048BF40425FEA000C08BF704743F096432C
:103C300001464FF000001CE050EA010208BF704747
:103C40004FF000030AE000BF50EA010208BF7047CE
:103C500011F0004302D5404261EB41015FEA010CE3
:103C600002BF84460146002043F0B64308BFA3F1DB
:103C70008053A3F50003BCFA8CF2083AA3EBC253BD
:103C800010DB01FA02FC634400FA02FCC2F12002DC
:103C9000BCF1004F20FA02F243EB020008BF20F013
:103CA0000100704702F1200201FA02FCC2F1200279
:103CB00050EA4C0021FA02F243EB020008BF20EA6E
:103CC000DC7070474FF0FF0C1CEAD0521EBF1CEA9C
:103CD000D15392EA0C0F93EA0C0F6FD01A4480EA8A
:103CE000010C400218BF5FEA41211ED04FF0006373
:103CF00043EA501043EA5111A0FB01310CF000409F
:103D0000B1F5000F3EBF490041EAD3715B0040EAC4
:103D1000010062F17F02FD2A1DD8B3F1004F40EB94
:103D2000C25008BF20F00100704790F0000F0CF067
:103D3000004C08BF49024CEA502040EA51207F3A2B
:103D4000C2BFD2F1FF0340EAC250704740F4000006
:103D50004FF00003013A5DDC12F1190FDCBF00F0F7
:103D600000407047C2F10002410021FA02F1C2F1A5
:103D7000200200FA02FC5FEA310040F1000053EA41
:103D80004C0308BF20EADC70704792F0000F00F08F
:103D9000004C02BF400010F4000F013AF9D040EA95
:103DA0000C0093F0000F01F0004C02BF490011F429
:103DB000000F013BF9D041EA0C018FE70CEAD15327
:103DC00092EA0C0F18BF93EA0C0F0AD030F0004CA7
:103DD00018BF31F0004CD8D180EA010000F000405B
:103DE000704790F0000F17BF90F0004F084691F019
:103DF000000F91F0004F14D092EA0C0F01D1420253
:103E00000FD193EA0C0F03D14B0218BF084608D11B
:103E100080EA010000F0004040F0FE4040F4000065
:103E2000704740F0FE4040F4400070474FF0FF0CF8
:103E30001CEAD0521EBF1CEAD15392EA0C0F93EA3F
:103E40000C0F69D0A2EB030280EA010C49024FEA91
:103E5000402037D04FF0805343EA111143EA10134A
:103E60000CF000408B4238BF5B0042F17D024FF402
:103E7000000C8B4224BF5B1A40EA0C00B3EB510FDD
:103E800024BFA3EB510340EA5C00B3EB910F24BFC6
:103E9000A3EB910340EA9C00B3EBD10F24BFA3EB4B
:103EA000D10340EADC001B0118BF5FEA1C1CE0D113
:103EB000FD2A3FF650AF8B4240EBC25008BF20F0C6
:103EC000010070470CF0004C4CEA50207F32C2BF1A
:103ED000D2F1FF0340EAC250704740F400004FF0B7
:103EE0000003013A37E792F0000F00F0004C02BFE8
:103EF000400010F4000F013AF9D040EA0C0093F0B2
:103F0000000F01F0004C02BF490011F4000F013B0B
:103F1000F9D041EA0C0195E70CEAD15392EA0C0F73
:103F200008D142027FF47DAF93EA0C0F7FF470AFAB
:103F3000084676E793EA0C0F04D14B023FF44CAFEE
:103F400008466EE730F0004C18BF31F0004CCAD183
:103F500030F000427FF45CAF31F000437FF43CAFBF
:103F60005FE700BF4FF0FF3C06E000BF4FF0010CE1
:103F700002E000BF4FF0010C4DF804CD4FEA4002C3
:103F80004FEA41037FEA226C18BF7FEA236C11D00D
:103F900001B052EA530C18BF90EA010F58BFB2EBC0
:103FA000030088BFC81738BF6FEAE17018BF40F040
:103FB000010070477FEA226C02D15FEA402C05D1F4
:103FC0007FEA236CE4D15FEA412CE1D05DF8040B79
:103FD000704700BF844608466146FFE70FB5FFF70C
:103FE000C9FF002848BF10F1000F0FBD4DF808EDC4
:103FF000FFF7F4FF0CBF012000205DF808FB00BFB5
:104000004DF808EDFFF7EAFF34BF012000205DF80E
:1040100008FB00BF4DF808EDFFF7E0FF94BF01205B
:1040200000205DF808FB00BF4DF808EDFFF7D2FF58
:1040300094BF012000205DF808FB00BF4DF808ED9B
:10404000FFF7C8FF34BF012000205DF808FB00BF68
:104050004FEA4002B2F1FE4F0FD34FF09E03B3EB95
:1040600012620DD94FEA002343F0004310F0004FD5
:1040700023FA02F018BF404270474FF0000070472B
:1040800012F1610F01D1420205D110F0004008BFCA
:104090006FF0004070474FF00000704742000ED2B2
:1040A000B2F1FE4F0BD34FF09E03B3EB126209D473
:1040B0004FEA002343F0004323FA02F070474FF029
:1040C0000000704712F1610F01D1420202D14FF09E
:1040D000FF3070474FF00000704700BF2DE9F041FE
:1040E000057890B000350646334818BF01250AF020
:1040F00095FA00243148A542314B0CBF214680215E
:1041000006904FF400500CBF4FF001084FF002082A
:104110004FF4807205930A9120234FF480670E902C
:1041200005A925480B920D930C970794CDF8208094
:1041300009940F940AF0EAFA1F4801210AF013FBD0
:104140004FF46021012702911E48694600948DF8C2
:1041500004508DF8057003948DF810800AF0C0F9B2
:10416000184804213A4603230AF00BFA2DB11548EA
:104170003178022203230AF004FA124801210AF0DE
:10418000DCF9104801210AF0CFF90E480AF0DEF9F7
:104190000C480AF0E0F90028FAD10A480AF0DFF9E1
:1041A00008480AF0E1F90028FAD1064801210AF08E
:1041B000DFF910B0BDE8F08108000240C005002022
:1041C0004C24014000240140024B33F8100080B21F
:1041D000704700BFC00500202DE9FF41334B8046EA
:1041E000187800283BD0002425462646274608227A
:1041F00032210DEB0203532008F044FF9DF8091013
:104200009DF80800013400EB01239DF80B109DF888
:104210000A001AB200EB01239DF80D109DF80C0066
:10422000E4B2BF181AB200EB01239DF80F10B618C4
:10423000202C1AB2154401F07F0001D00028D6D1FD
:104240001B4B97FBF4F796FBF4F695FBF4F5ADF8F2
:104250000070ADF80260ADF804501C701DE0322112
:10426000062202AB532008F00DFF9DF809209DF8AF
:1042700008109DF80B0001EB02239DF80A20ADF811
:10428000003002EB00219DF80C309DF80D00ADF8D8
:10429000021003EB0022ADF80420064A68464146AE
:1042A000127809F093FFBDE8FF8100BFC40500202C
:1042B000C505002000000020154B10B51B780446F2
:1042C0002D21532008227BB108F0A0FF31210A22C2
:1042D000532008F09BFF2C210C22532008F096FF5E
:1042E00053203821902209E008F090FF31210A2262
:1042F000532008F08BFF53202C210A2208F086FF60
:10430000044840F2091202800CB103490C7010BD40
:10431000C4050020340000200000002037B5104BF9
:1043200005461A680F480C46002182428DF8071096
:1043300001D1002013E0532001220DF1070308F002
:10434000A1FE0028F5D09DF80710E529F1D12A78C3
:104350000548064B064920601A70616001203EBD89
:1043600054010020001BB700B9420008C40500201A
:10437000D94100081FB50446022106226B461820C9
:1043800008F080FE9DF800309DF8012098089DF807
:10439000023000EB02219DF8032098089DF80430BC
:1043A000ADF8081000EB02219DF805209808ADF843
:1043B0000A1000EB0221044AADF80C1002A82146B5
:1043C000127809F003FF1FBD0100002010B50F2176
:1043D00008220446182008F019FF0E221820102188
:1043E00008F014FF034B4FF480521A800CB10248BE
:1043F000047010BD340000200100002037B50024F7
:1044000002AB054603F8014D18202146012208F0B1
:1044100039FE50B19DF80730FB2B05D10348044904
:1044200028606960012000E020463EBDCD430008C1
:1044300075430008334B2DE9F0411C88324B5A89F3
:104440001E89A51A7543B3F91240B3F91420EF136E
:10445000BE18E50295FBF6F43F19A7F57A6202FB58
:1044600002F4B3F90480B3F902C00A257D43DF6189
:1044700002FB0CFCB3F90E7002FB08F2B3F90C80DE
:104480002413674304FB08F4241404EB6232941CE5
:10449000A210DC88083502F5004262432E114FEA73
:1044A000EC24B3F92050B3F9003004EBE72404EB1B
:1044B000830303FA05F39C1C144BD20B1B68A3EB7C
:1044C000A4044CF2503343FA05F3634303D45C0075
:1044D000B4FBF2F302E0B3FBF2F253001A125243C0
:1044E00040F6DE3462430A4C5C43241404EB22425F
:1044F00002F6CF6203EB221300B1036001B10E603C
:10450000BDE8F081F6050020CC050020F005002074
:1045100043E3FFFF104B07B5187818B90F490A8815
:10452000531C0B80F621032201AB772008F0AAFD73
:104530009DF805109DF804000A02094942EA00406E
:104540009DF80630B1F920201843C2F1080320FA83
:1045500003F0044908600EBDC6050020C805002010
:10456000CC050020F00500200B4B07B5187818B9D2
:104570000A490A88531C0B80F621022201AB7720DE
:1045800008F080FD9DF804009DF80510044B41EAF9
:1045900000221A800EBD00BFC6050020C8050020FD
:1045A000F6050020064B074893F8202000219201D1
:1045B0003432017002F0FC027720F42108F026BEAC
:1045C000CC050020C6050020034B00221A7077207E
:1045D000F4212E2208F01ABEC605002010B54FF4B3
:1045E00080400AF01FF90128044605D14FF48040AD
:1045F0000AF028F9014B1C7010BD00BFC605002051
:104600002DE9F0476B4B05461A686B488CB0824227
:1046100000F0CA80DFF8C0A19AF80080B8F1000F5E
:1046200040F0C480654F102102264FF400598DF8E8
:104630000A10384602A94FF480448DF80B60ADF89B
:10464000089008F09FFA0423384602A98DF80A3032
:10465000ADF8084008F096FA0E213046C7F81090E1
:1046600008F0CCFA0126082204A88DF8152004943D
:104670008DF814808DF816600AF098F828200F2124
:104680008DF80C0003A88DF80D108DF80E108DF824
:104690000F6009F0F1FE142008F053FE7720D021BE
:1046A00032460DF1070308F0EDFC9DF80730444C4D
:1046B0000322552BE375228418BFC7F8149073D1D9
:1046C000D12132460DF10703772008F0DBFC9DF87D
:1046D0000700162200F00F01030921766376AA2154
:1046E00006AB772008F0CEFC9DF818209DF8190045
:1046F0009DF81B3040EA02219DF81A20218043EAF0
:1047000002209DF81C109DF81D20608042EA0123C4
:104710009DF81E009DF81F10A38041EA00229DF81D
:1047200021309DF82000E28043EA00219DF82220FC
:104730009DF82300218140EA02239DF824109DF872
:104740002520638142EA01209DF827309DF826103C
:10475000A08143EA01229DF828009DF82910E281FA
:1047600041EA00239DF82A209DF82B00238240EA8D
:1047700002219DF82D309DF82C20618243EA022011
:10478000104B41F2707146F67812A0828AF80060F0
:104790000D4829806A806B600C490D4A0D4BA8605A
:1047A000E9602A616B6101E0002000E001200CB0AB
:1047B000BDE8F08754010020001BB7000010014045
:1047C000CC050020C945000869450008A54500083A
:1047D0001545000835440008F40500202DE9F04F88
:1047E0004E4E4F4B85B077890391196832898446C4
:1047F00038020F1A87FB0201C00940EA4162CB115F
:10480000F188B48887FB01012404002514EB020819
:1048100045EB0309000A40EA01620B12B189748872
:1048200087FB0101E403002514EB020A45EB030BAF
:10483000C00D40EA41224FF4FA60CB1500218018E8
:1048400041EB0301CDE90001B0F5FA6F71F1000110
:1048500047DAA2FB024502FB03F605EB4607B80068
:1048600040EA9471A0002646241847EB0105691020
:104870004FEA3400A408B8EB000869EB0109A9105D
:1048800044EA8570BAEB000A6BEB010B25484FF048
:10489000FF31DDE9004584428D4122DA40F6AC501B
:1048A0000021801841EB03014143A0FB00236FF07E
:1048B000060003EB4103544200FB0344A2FB00014A
:1048C00018EB0008214449EB01090B24A2FB040169
:1048D00004FB031149104FEA3000BAEB000A6BEBFE
:1048E000010B114A1368A3FB0A0103FB0B11400DD6
:1048F00040EAC1224B15B2EB080263EB0903D20B6D
:1049000042EA4343BCF1000F01D0CCF800300398D9
:1049100008B10099016005B0BDE8F08F00060020E5
:10492000FC05002024FAFFFFF805002007B5002150
:10493000032201AB772008F0A5FB9DF805009DF848
:10494000043001029DF8062041EA034010430EBDE9
:1049500008B5FFF7EBFF014B186008BDF805002014
:1049600008B5FFF7E3FF014B186008BDFC05002008
:1049700077204821012208F049BC772058210122E4
:1049800008F044BC454B73B51A680446444882425B
:104990000FD010258DF80650424D02214FF40056DD
:1049A0008DF80710284601A9ADF8046008F0EAF870
:1049B0006E610A2008F0C5FC7720A02101220DF1CC
:1049C000030308F05FFB002866D01E210122772038
:1049D00008F01CFC4FF42F6008F0A8FC0025A5F19E
:1049E00060030026D9B20222772001AB8DF8046063
:1049F0008DF8056008F046FB9DF804209DF8050041
:104A0000294B40EA0221E9520235102DE7D1DA891B
:104A100002F47F4502F00F00DD8132460123224976
:104A2000515A0232002918BF0023102AF7D113BBB4
:104A30001A4612F0010F1C494FEA620604D011F821
:104A400016104B40082104E031F8161083EA1123B8
:104A5000F8E713F4004F18BF83F4C0535B0001392B
:104A6000F7D10132102AE4D10F49C3F303330543D0
:104A70009842CD8101D000200EE00C4A42F2107025
:104A80002080608062600A480A490B4B0B4A206113
:104A9000A160E360626101207CBD00BF5401002081
:104AA000001BB70000100140000600207B490008F1
:104AB000514900086149000871490008DD470008B4
:104AC0001FB50446012106226B461C2008F0DAFAC5
:104AD0009DF800209DF8013043EA022040F38D014B
:104AE000042391FBF3F29DF802009DF80310ADF84A
:104AF000082041EA002242F38D0090FBF3F19DF87B
:104B000005209DF80400ADF80A1042EA0021064A8B
:104B100041F38D0090FBF3F3214602A81278ADF823
:104B20000C3009F053FB1FBD0200002037B50421F3
:104B3000202302248DF80610054669441B48ADF871
:104B400004308DF8074008F01DF82A2100221C20AF
:104B500008F05CFB0E211C20224608F057FB0F21B9
:104B600003221C2008F052FB2B2112221C2008F0EB
:104B70004DFB2C211C20224608F048FB2D21012250
:104B80001C2008F043FB2E2100221C2008F03EFBD5
:104B900005221C202A2108F039FB05484FF48072B9
:104BA00002800DB1034B1D703EBD00BF00080140E7
:104BB000340000200200002013B5044610481149BB
:104BC000026800238A428DF8073001D1002015E0E9
:104BD0001C200D2101220DF1070308F053FA0028D3
:104BE000F4D09DF807302A2B01D01A2BEED10648BD
:104BF000064A0749206062600B7001201CBD00BF9F
:104C000054010020001BB7002D4B0008C14A0008CA
:104C10001006002013B5022204461B2101AB6820B8
:104C200008F030FA9DF804209DF8053043EA022090
:104C300000F54E5110314FF48C7291FBF2F3233397
:104C400023801CBD1FB504461D2106226B4668202B
:104C500008F018FA9DF800209DF8013043EA022080
:104C600001B2042391FBF3F29DF802009DF80310BA
:104C7000ADF8082041EA002210B290FBF3F19DF854
:104C800005209DF80400ADF80A1042EA0021064A0A
:104C900008B290FBF3F3214602A81278ADF80C306D
:104CA00009F094FA1FBD00BF0400002010B50446AF
:104CB000192008F046FB68201521002208F0A6FA0A
:104CC00010B9032008F0DCFB0D4B16211A78682080
:104CD00042F0180208F09AFA17210022682008F022
:104CE00095FA3D210122682008F090FA68203E21C3
:104CF000012208F08BFA0CB10248047010BD00BF0D
:104D0000030000200400002038B5054619200C4699
:104D100008F017FB68201521002208F077FA18B375
:104D2000124B13481349144A622C2B606860A96027
:104D3000EA60124B0FD004D80A2C12D0142C0CD1DC
:104D40000DE0BC2C04D0B4F5807F06D1002009E032
:104D50000120187038BD022004E0032002E0042086
:104D600000E005201870012038BD00BFAD4C0008E0
:104D7000454C0008154C00081844923103000020EF
:104D8000064B07491A7812B14FF4FF6301E04FF464
:104D900080530B8008B1034A107070471106002041
:104DA00034000020050000201FB5044643210622E0
:104DB0006B46682008F066F99DF800209DF80130E8
:104DC00043EA022001B2042391FBF3F29DF80200B2
:104DD0009DF80310ADF8082041EA002210B290FBC4
:104DE000F3F19DF805209DF80400ADF80A1042EAA1
:104DF0000021064A08B290FBF3F3214602A812787C
:104E0000ADF80C3009F0E2F91FBD00BF070000202B
:104E10001FB504463B2106226B46682008F032F994
:104E20009DF800209DF801309DF8021043EA022011
:104E30009DF80320ADF8080042EA01239DF8040024
:104E40009DF80510ADF80A30054B41EA0022ADF897
:104E50000C2002A821461A7809F0B8F91FBD00BF3E
:104E60000500002013B5224A4FF4005304460220E7
:104E7000ADF804308DF8070013681E480421834202
:104E80008DF8061001D11C4803E01C498B4203D168
:104E90001B4801A907F076FE6B218022682008F0EC
:104EA000B5F9052008F04DFA19210022682008F014
:104EB000ADF96B210322682008F0A8F937210222FE
:104EC000682008F0A3F90F4A1A211278682008F028
:104ED0009DF91B211822682008F098F968201C21F0
:104EE000102208F093F90CB1074B1C701CBD00BFD9
:104EF0005401002000127A00000C0140001BB70092
:104F00000010014006000020070000202DE9F043BA
:104F1000814685B023200E461446984608F011FAC3
:104F20006820752101220DF1070308F0ABF8002875
:104F30006FD09DF80770682F6AD106210A4602AB30
:104F4000384608F09FF89DF80B309DF80D5003F09F
:104F5000010105F001004A0042EA80059DF80900C0
:104F600000F001031D4308D0012D01D12A481AE0A9
:104F7000022D0ED10023284813E00C2101223846CF
:104F80000DF1070308F07EF89DF8071011F00F02ED
:104F900003D1052008F074FA06E0042A1E4802D165
:104FA0000123037000E005701C491D4AC9F8001078
:104FB0001C481D4B1D49C9F8042030607360F16026
:104FC000B8F1000F03D0144A107888F80000142CB0
:104FD000174B15D004D8052C16D00A2C0ED111E091
:104FE000BC2C08D0B4F5807F03D0622C06D10221FE
:104FF0000BE0002109E0012018700AE0032104E021
:10500000042102E0052100E006211970012000E0E2
:10501000002005B0BDE8F08311060020814D000896
:10502000114E0008654E0008A94D00081844923141
:10503000060000201FB50446A82106226B46682002
:1050400008F020F89DF800209DF8013043EA022086
:1050500001B2042391FBF3F29DF802009DF80310C6
:10506000ADF8082041EA002210B290FBF3F19DF860
:1050700005209DF80400ADF80A1042EA0021064A16
:1050800008B290FBF3F3214602A81278ADF80C3079
:1050900009F09CF81FBD00BF0800002010B50446B1
:1050A000642008F04EF968202321F02208F0AEF8C1
:1050B00010B9032008F0E4F9052008F042F9064B86
:1050C00068201A78202142F00F0208F09FF80CB1F6
:1050D0000248047010BD00BF120600200800002026
:1050E00037B5054619200C4608F02BF968200F212A
:1050F00001220DF1070307F0C5FF9DF80730D32B00
:1051000016D10C480C490D4A4E2C28606960EA60A3
:105110000B4B07D05D2C09D0362C01D0002002E0CB
:10512000402000E080201870012002E0C020FAE753
:1051300000203EBD9D50000835500008DDE9A73134
:1051400012060020074BA1F57A7153F820008388DE
:1051500002684B434FF47A7093FBF0F18BB21380EB
:10516000704700BF14070020024B53F8200002686C
:1051700011807047140700202DE9F04FDFF82881D7
:105180004FEA001558F805408E468BB008EB05072E
:1051900011468346924620467246019300F018FB62
:1051A000B96807F108024FF0020C18237868ADF8CF
:1051B000141005A98DF816308DF817C00392CDF89C
:1051C00008C007F0DFFC0398364E077906A809F0FF
:1051D0005AFF70220198DDF808C0ADF818200121AF
:1051E00000234FF4807206EB0509ADF81A10ADF8F4
:1051F0001C30ADF81E00ADF820C0ADF824200C2FF7
:105200002BD8DFE807F0072A2A2A102A2A2A192A87
:105210002A2A2200204606A909F02EFE204608214F
:1052200009F066FF19E0204606A909F069FE20464C
:10523000082109F065FF10E0204606A909F0A4FE48
:105240002046082109F066FF07E0204606A909F07C
:10525000DDFE2046082109F065FF08EB0B118B7B72
:105260001BB12046012109F02CFF2046012109F045
:105270001CFF0C2F10D8DFE807F0070F0F0F090FE6
:105280000F0F0B0F0F0F0D00343404E0383402E021
:105290003C3400E040347451A9F804A048460BB0F7
:1052A000BDE8F08F28060020442D01081B4A1C4849
:1052B00013881180C91A89B240F68C22914203806A
:1052C000184B02D900221A707047A1F2EF2080B269
:1052D00040F2DA52904218D81B78072B15D81248A2
:1052E000032B20F81310114A09D81148008888426E
:1052F00005D2012101FA03F31078034313701278E9
:105300000F2A02D1094B002119700648094B027877
:10531000511C017000201880704700BF64070020F6
:105320000C07002024060020140600200907002096
:105330000A000020580B00207FB5044601A80D4646
:10534000164609F0AAFE00200123ADF80A00ADF8C8
:105350000C0001A92046ADF80450ADF80660ADF888
:10536000083009F019FF7FBD2DE9F743DFF85880B9
:105370000501144E05EB0804A36889467619282117
:105380000746B271606802228DF8061001A9ADF8D7
:1053900004308DF8072007F0F5FB55F80800217B55
:1053A0000022FFF7C9FF204601224FF6FF7100F0EF
:1053B00031FA204639464A4600F0ECF93046BDE85D
:1053C000FE8300BF28060020442D010810B5134BB2
:1053D00000011B18DA795AB901221981DA71104BD0
:1053E00002221918097B1858BDE81040FFF7A4BF26
:1053F0001C8959810B4A091B9C7989B222F8141027
:1054000000249981DC71064B22461918097B185833
:10541000FFF792FF0448048010BD00BF280600205B
:10542000442D010814060020580B00202DE9F041FE
:105430000446028A484B807961781A80002814BF9C
:105440000225002501B10135444F57F8257000258C
:105450007A5DFF2A02F00F0002F0F00309D12289E1
:105460003F484049B2F5FA7F016071D93E4B036075
:105470006EE0A17811B1811E012965D9E17811B1E1
:10548000011F032960D9E17909B181425CD012F092
:10549000300F03D02278002A08BF0023217931B1D0
:1054A000A27922B9A0F10801012998BF802362796D
:1054B0002AB1A17919B9021F032A98BF802303F0EA
:1054C0001001CAB23AB100222849FFF74DFF284B1C
:1054D00008221A7038E003F02001CAB242B1244E0B
:1054E00024493278FFF740FF3078411C31702BE0BF
:1054F00003F04001CAB292B123891F4AB3F5FA7F83
:1055000094BF012108214A431C4EB2FBF3F39AB227
:10551000A38996F80080FFF72FFE194B0EE01B06BB
:1055200012D563891449174E91FBF3F292B2E389C5
:10553000012196F80080FFF71FFE134B43F8280067
:1055400008F1010886F8008001350E2D80D186E72C
:105550000020BDE8F08100BF0A000020142D0108E2
:10556000100700206951000845510008AD5200089D
:1055700008070020CD53000840420F000A07002012
:10558000140700200E0700204407002008B5044B34
:105590001A78824202D9034B1A68904708BD00BFAF
:1055A0000A07002010070020044B1A78824204D911
:1055B000034B53F820000268118070470E0700204B
:1055C00044070020014B33F81000704714060020F8
:1055D000F8B5134B05469B890E461446ECB116B13F
:1055E00016F8017B00E0FF270D48022109F084FB3B
:1055F0000028F9D00A48394609F079FB084801210A
:1056000009F07AFB0028F9D0054809F072FBC0B216
:105610000DB105F8010B013CE0E70120F8BD00BF2A
:10562000003800402DE9F047012188B04FF4804058
:1056300009F0D4FA374C01214FF4804009F0E6FA22
:1056400003214FF420401823ADF800008DF803101B
:10565000204669468DF802304FF0040807F092FAB0
:105660002D4E4FF4804220466946ADF800204FF49D
:1056700080554FF0100A8DF8028007F083FA6946D2
:105680002046ADF800508DF802A007F07BFA3046B6
:1056900009F0D0FA07214FF4007000230222ADF880
:1056A0001600ADF81C104FF00109304603A94FF465
:1056B0008277ADF80C30ADF81030ADF81A30ADF897
:1056C0001220ADF80E70ADF814901F46ADF818A07A
:1056D00009F0E2FA3046494609F0FDFA9F238DF8B9
:1056E00004308DF805708DF806708DF807700DEB9D
:1056F00008014246656102A8FFF76AFF25619DF82F
:105700000900B0F1EF014A4252EB010008B0BDE8D8
:10571000F08700BF000C01400038004030B5002485
:105720000E4D55F82450854202D00134E4B2F7E71B
:10573000A400E4B200200A4D2D5C8D4202D0451C2D
:10574000E8B2F8E70019C0B20F2805D8054C04EB01
:10575000001083600171027330BD00BF242E010868
:10576000342E0108701200200C2912D8DFE801F055
:1057700007111111091111110B1111110D00022145
:1057800004E0042102E0082100E01021012209F0D8
:10579000A6BC704738B504460D461346217B006809
:1057A0002A46FFF7BBFF2068217BBDE83840FFF7A2
:1057B000DBBF07B58DF80400012000238DF806003B
:1057C0008DF8070001A88DF8053008F055FE0EBDD4
:1057D0007FB5044601A80D46164609F04BFC0B4B5D
:1057E0000B485E4301680023B1FBF6F2013D561EF3
:1057F000204601A9ADF80850ADF80460ADF80A30B4
:10580000ADF8063009F0EEFA7FBD00BF40420F0050
:105810005801002010B504460068FFF7D9FF206842
:10582000012109F042FC607BBDE81040FFF7C1BFD9
:1058300000230C4A52F82320824202D05A1CD3B2D1
:10584000F7E79B00D8B20023074AD25C8A4202D015
:105850005A1CD3B2F8E71818044BC1B203EB01107D
:10586000704700BF242E0108342E0108701200205A
:1058700038B50221044609F038FD012820460BD135
:10588000022109F03DFD20460021FFF7D1FF05462A
:10589000204609F01DFD34E0042109F026FD012811
:1058A00020460BD1042109F02BFD20460421FFF7EF
:1058B000BFFF0546204609F00EFD22E0082109F051
:1058C00014FD012820460BD1082109F019FD2046BE
:1058D0000821FFF7ADFF0546204609F0FFFC10E068
:1058E000102109F002FD012810D12046102109F0F5
:1058F00007FD20460C21FFF79BFF0546204609F0D7
:10590000F0FCAB6801460BB1287B984738BD00001E
:105910000148FFF7ADBF00BF002C01404FF08040B1
:10592000FFF7A6BF0148FFF7A3BF00BF0004004078
:105930000148FFF79DBF00BF00080040014B33F84E
:105940002000704768070020034B0022DA6008B18E
:1059500002490160704700BF181800203D59000837
:10596000072802D1034B01221A70034A42F8201083
:10597000704700BF8807002068070020034B187895
:1059800010B100221A700120704700BF8807002064
:105990001D481E49026800608A4200F01F800021F5
:1059A00000F004B81A4B5B584350043119481A4BA5
:1059B00042189A42FFF4F6AF184A00F003B80023E9
:1059C00042F8043B164B9A42FFF4F9AF08F03CFC56
:1059D0000CF094F803F0B8FAFFF7FEBF114E12482E
:1059E00030601248016821F070610160410201607D
:1059F0000F4C182020600F490F4808600F48D0F85E
:105A000000D0406800470000F04F0020EFBEADDE40
:105A10006853010800000020A4050020A405002010
:105A2000441E00201810024009000000040001403C
:105A3000140C0140000C01404434434400F0FF1FAB
:105A4000FFF7FEBFF8B5174C06462378274673B913
:105A500007F066FC144D2A683232904207D30120C9
:105A6000207007F039FD07F05BFC2860F8BD38783E
:105A7000B0B107F055FC0C4C2168731898420FD355
:105A8000084A0020107007F027FD07F049FC20604D
:105A90000648017809B14B1E0370054801220270C7
:105AA000F8BD00BF8907002090070020680C002087
:105AB0008A07002037B58DF8051022498DF8073088
:105AC0000B788DF8040002A88DF80620C21812F891
:105AD000044C0D46443CE0B20A282CD81A49022B4B
:105AE00031F8104003D814B12046FFF7ABFF2B78F4
:105AF000022B0BD9154D2D6807F012FC021B9542A5
:105B000004D21049124B0020087018701148027816
:105B10000146012A00D094B90A4B1878022801D80E
:105B2000421C1A70002008700B49087003B0BDE8D1
:105B3000304007F0D1BC3224022BD5D9D7E703B0CF
:105B400030BD00BF8D070020382E010890070020CF
:105B5000680C00208A070020890700202DE9F04109
:105B60003D4B04465A7B3D4802B1012202704FF47E
:105B7000007001F095F9D8B1394E3A4996F8AE5017
:105B8000052000FB05F20B8819B291420DDD364F5E
:105B9000364A7F783FB196F8AF600127AD19684368
:105BA0008142177001DD022111700BB92F4803707B
:105BB000202001F055F960B1274A2D4B917A09B99F
:105BC000D07A20B1284AD17A09B9012000E000201A
:105BD0001870264B1A78022A02D14C204E211EE062
:105BE000012A07D14D2153204C220B46BDE8F0413C
:105BF000FFF760BF1E490878012803D153200146F2
:105C00004E2206E0154B1A78012A04D15320014692
:105C100002464D23EAE7042C03D153204D210A46C6
:105C20000AE0022C03D1532001464D2204E0012C4E
:105C300004D153204D214E224423D7E70D49087843
:105C400020B13220BDE8F041FFF7FCBE0A4B1870CE
:105C5000BDE8F04107F040BCD21800208B070020BF
:105C600070130020580B00206E1800208E070020B3
:105C70008C070020680C00208907002070B50646BC
:105C8000B6FBF2F40846154614B12046FFF7F6FFBE
:105C900005FB1464024B195D00F8011B70BD00BFC9
:105CA000C82F01082DE9F041027803460130202A6F
:105CB000FAD0092AF8D02D2A02D10346414D04E03A
:105CC0002B2A08BF03464FF07E551E46002433465C
:105CD00016F8010BA0F13007F9B209290DD83A499D
:105CE0002046FDF7EFFF04463846FDF797FF0146D3
:105CF0002046FDF7DFFE0446E9E72E2817D1324F94
:105D0000334616F8010B3038C2B2092A0FD8FDF716
:105D100085FF3946FEF78AF801462046FDF7CAFEA0
:105D2000294904463846FDF7CDFF0746E8E71878CD
:105D3000652801D0452839D15E782D2E02D19F1CCF
:105D4000012605E02B2E01D05F1C00E09F1C0026E1
:105D50007B1E002713F8012F303AD1B2092903D84E
:105D60000A2000FB0727F5E7B7F59A7F28BF4FF415
:105D70009A77B8464FF07E51B8F1070F07D9084619
:105D80001249FDF79FFFA8F108080146F4E707F064
:105D9000070737B108460C49FDF794FF013F01465C
:105DA000F7E72EB12046FEF741F804E04FF07E51B0
:105DB0002046FDF787FF01462846FDF783FFBDE833
:105DC000F08100BF000080BF0000204120BCBE4C1D
:105DD00010B5441E14F8011F21B1034B186807F0D9
:105DE000A1FDF7E710BD00BF181800200148FFF71C
:105DF000EFBF00BFED2F010810B50748FFF7E8FF20
:105E00000024064B06481A19E15852680C3408F071
:105E10009DF8C02CF5D110BD1B300108EC2E0108F7
:105E20003130010870B507F07BFA274C274B4FF44F
:105E30007A71B0FBF1F11A782548237808F086F8DA
:105E400001F028F805462348234902682348B2FB9D
:105E5000F1F108F07BF80024214B53F8241051B1E4
:105E6000012000FA04F0284202D01E4808F06EF823
:105E70000134E4B2F0E7022000F0F2FF98B11A4CCE
:105E80001A4922781A4851F8221008F05FF823784E
:105E9000022B08D11748047C1748002C0CBF6E2138
:105EA0006F2108F053F81548FFF792FF144A148841
:105EB00007F00EFA0246134821464FF45F73BDE81F
:105EC000704008F043B800BF2C000020BC18002030
:105ED000393001085801002040420F007730010896
:105EE000983D010895300108940D0020AC2F010861
:105EF0009930010818180020A33001085833010810
:105F0000040C0020A730010838B50C68054620466F
:105F10000CF084F8024628682146BDE838400CF0B1
:105F2000ADB8000008B50948FFF752FF0121002075
:105F300000F032FF0648FFF74BFF0A2007F001FA96
:105F40000020BDE8084007F0B7BA00BFD93001080B
:105F5000E33001087FB504460CF060F8082824D12E
:105F600000231E49E25C086885186E7806F003017C
:105F7000022908BF203AE2540133082BF1D1002551
:105F8000665D174831460BF06DFF28B10135601989
:105F900031460BF067FF18B11248FFF719FF1CE0FC
:105FA000082DEDD1204600F057FE0F48FFF710FFF7
:105FB00000230E4A04A9981890F808218818084A66
:105FC000995C0133082B00F80C1CF2D100208DF8ED
:105FD0000C0001A9064807F0B9FF7FBD740100203D
:105FE000D8450108F23001081231010834140020AC
:105FF0003430010808B501F01FFB01300CBF034825
:106000000348BDE80840FFF7E3BE00BF27310108A1
:106010004D3101082DE9F04105460BF0FFFF044624
:1060200001F0D0F8064694B92A48FFF7D1FE2A4974
:1060300051F8241049B1012202FA04F2324202D08E
:10604000264807F083FF0134F1E7254821E0284680
:10605000244922460CF012F858B92348FFF7B8FE3D
:10606000224C54F8041F0029EFD01C4807F06EFFA3
:10607000F7E72B782D2B04D10135013C4FF00108B7
:1060800001E04FF000080026134850F8267027B9A9
:106090001748BDE8F041FFF79BBE28463946224627
:1060A0000BF0ECFFA0B9012000FA06F0B8F1000FE8
:1060B00003D001F07FF80F4802E000F0FBFE0E482D
:1060C000FFF786FE0D483946BDE8F04107F03EBFB8
:1060D0000136D9E76B310108502E010895300108CF
:1060E00058330108A33B01087E3101084C2E0108FA
:1060F00093310108AD310108B7310108343001088E
:1061000010B504460848FFF763FE084A08480949E5
:106110000023036013700B7003F07AF82046BDE88B
:106120001040FFF7FFBE00BFC031010894070020F8
:10613000C4070020090E002008B50848FFF748FEF4
:10614000012000F0BFFE0648FFF742FE0A2007F0DC
:10615000F8F80020BDE8084007F0AEB9D8310108D2
:10616000E5300108F8B507460BF058FF044638B98A
:106170001A491B4B4A791B48511E53F8211028E03D
:106180003846194922460BF079FF60B91748FFF7E6
:106190001FFE174C54F8041F19B1164807F0D6FE1D
:1061A000F8E7154805E000250D4B53F8256026B9A2
:1061B0001248BDE8F840FFF70BBE3846314622468C
:1061C0000BF05CFF01350028EED1044831464571E3
:1061D0000B48BDE8F84007F0B9BE00BF34140020FA
:1061E000902E0108F3310108A33B01080732010892
:1061F0008C2E010895300108583301081A32010825
:106200003232010810B5044620460BF007FF10F0AB
:10621000FF0F07D10B490C4891F87813BDE81040E7
:1062200007F094BE20460BF017FC022808D8054B57
:10623000064C83F878030020014600F0ADFDE3E74B
:1062400010BD00BF34140020443201086835010835
:1062500070B504460BF0E2FE08B9204830E0204655
:106260001F490CF053FB00242646254678B12CB17B
:10627000012C06D10BF0F0FB064602E00BF0ECFB24
:1062800005460020164901340CF040FBEEE70B2DCB
:1062900005D914480C21BDE8704007F057BE012C09
:1062A00008DC114A114832F915202946BDE8704032
:1062B00007F04CBEA6F57A73B3F57A7F04D90C4883
:1062C000BDE8704007F042BE0A482946324607F052
:1062D0003DFE054820F8156070BD00BF5A32010828
:1062E000323501089432010844180020BA320108FE
:1062F000D2320108F432010838B505460BF08EFEA3
:10630000C0B260B904461149114801EB4402D28F72
:106310002146013407F01AFE152CF4D138BD284669
:106320000BF09AFB142804460ADC202128460BF0C7
:1063300099FD0BF091FB054B03EB4404E08738BD5E
:1063400004481521BDE8384007F000BE7013002056
:106350000D33010819330108931E222B88BF0A222E
:10636000031E10B50C4603DA2D2001F8010B58422C
:10637000FFF784FC00210170204610BD30B587B0C6
:1063800005460C4603A800210C220BF0AFFC284662
:106390000021FDF753FE20B128462949FDF78AFB6D
:1063A00003E028462649FDF783FB2649FDF78AFCD2
:1063B000FDF74EFE054685EAE570A0EBE5700A2282
:1063C0006946FFF7C9FF002D01DB202300E02D23E4
:1063D00068468DF80C300BF021FE012807D13022E1
:1063E0008DF80D208DF80E208DF80F200CE002287E
:1063F00005D130218DF80D108DF80E1004E0032822
:1064000002D130208DF80D00694603A80BF004FD81
:1064100003A80BF003FEC51EEDB22A4603A92046D1
:106420000BF09AFE00236355204607490BF0F4FC5D
:1064300003A9204649190BF0EFFC204607B030BDF8
:106440006F12033A00007A44F030010837B503793F
:1064500004460D46052B34D8DFE803F003060A0D89
:106460001114816809782DE0806890F9001029E006
:106470008368198826E08268B2F9001022E08168FA
:1064800009681FE0806869460068FFF777FF0146EA
:10649000114807F05BFDF5B1E068FDF7BFFB694609
:1064A000FFF76CFF01460D4807F050FD2069FDF72E
:1064B000B5FB6946FFF762FF0146084807F046FD55
:1064C00009E00021064807F041FD25B10548E168D3
:1064D000226907F03BFD3EBDA03001089F30010856
:1064E000433301083F3301082DE9F04706460BF01E
:1064F00095FD054620B1012819D133782A2B16D1F4
:106500004748FFF765FC002414266643454F46487C
:10651000F15907F01BFDB8192946FFF797FF013421
:106520004248FFF755FC682CEED1BDE8F0873046B5
:106530003D210BF097FC002857D0441C20460BF05F
:106540008BFA82462046FFF7ADFB00270546142450
:106550007C43DFF8D09054F8098040460BF05EFD94
:106560004146024630460BF089FD002835D14C44A7
:10657000E068FDF753FB01462846FDF755FD00286E
:1065800029D02069FDF74AFB01462846FDF742FD68
:10659000002820D020792279052818BF5546052AE1
:1065A0000FD8DFE802F003030606090CA1680D709E
:1065B00007E0A268158004E0A068056001E0A1681A
:1065C0000D6041461A4807F0C1FC20460021BDE895
:1065D000F047FFF73BBF174803E00137682FB6D1FC
:1065E0001548BDE8F047FFF7F3BB044614256543A3
:1065F0000C4F314655F8078040460CF011F850B169
:106600000948414607F0A2FC78190021FFF71EFF58
:10661000064807F09BFC0134682CE7D1BDE8F08701
:1066200046330108B83D01082534010858330108F4
:106630005B330108663301088B3301082DE9F04311
:10664000584885B0584C07F081FC5848FFF754FE75
:106650006279574B511E574853F8211007F076FCCA
:1066600020690021FDF7C2FC002858D100252669C9
:1066700000213046FDF7BAFC00284CD101354E48C8
:106680002946D4F81490D4F81880E76907F05EFC26
:1066900030460021FDF7B4FC10B1484807F056FC25
:1066A00069463046FFF76AFE0146454807F04EFC52
:1066B00048460021FDF7A4FC10B1404807F046FC15
:1066C00069464846FFF75AFE01463D4807F03EFC42
:1066D00040460021FDF794FC10B1384807F036FC25
:1066E00069464046FFF74AFE0146354807F02EFC52
:1066F00038460021FDF784FC10B1304807F026FC35
:1067000069463846FFF73AFE01462E4807F01EFC60
:1067100010340C2DABD12C48691C07F017FC00F08D
:1067200051FD2A4C064654F8041F19B1284807F0B9
:106730000DFCF8E70D46274850F8251049B1012215
:1067400002FA05F2324202D0234807F0FFFB01357E
:10675000F1E7154B214ACE1896F808418B5C04A846
:1067600001310519082905F8103CF2D100241C4814
:1067700069468DF8084007F0E9FB14256543194E7A
:106780001948A95907F0E2FB00217019FFF75EFED6
:1067900001341648FFF71CFB682CEED105B0BDE8AC
:1067A000F08300BFA83301083414002068350108C5
:1067B000902E0108D8330108E3330108323501086F
:1067C000A030010834300108EB3301084C2E0108D9
:1067D000FD330108502E01080B340108D84501088B
:1067E00018340108B83D0108213401085833010864
:1067F0002DE9F04389B004460BF010FCC6B2002E20
:106800006AD17948FFF7E4FA784C20690021FDF756
:10681000EDFB38BB01367648314607F097FB20691F
:1068200004A9FFF7ABFD0146724807F08FFB6069D2
:1068300004A9FFF7A3FD01466E4807F087FBA06996
:1068400004A9FFF79BFD01466A4807F07FFBE0695A
:1068500004A9FFF793FD0146674807F077FB103462
:106860000C2ED2D10025654C2F46A8464FF00009CA
:106870001034B14514DA404654F8101CFDF71AF9EB
:1068800054F80C1C80462846FDF714F954F8081CEF
:1068900005463846FDF70EF909F101090746E7E715
:1068A0005748CDF8048002950397FFF791FA00242A
:1068B00001A82358534923F00040FDF7BFFB52497C
:1068C000524A0434002814BF10460846FFF780FAE5
:1068D0000C2CEDD14E4870E020464E4905220BF0BD
:1068E000CDFB38B9414B0022C1181030C0280A61D5
:1068F000F8D176E02046484904220BF0BFFB05465C
:10690000204605BB20210BF0ADFA002869D0461CBB
:1069100030460BF083FB2C460746404850F8245085
:106920000DB93F4849E030462946FAB20BF0A6FBC4
:1069300038B9204602F00EFD3A48294607F006FB1A
:1069400047E00134E9E70BF087F8461E0B2E0746B7
:1069500043DC204620210BF085FA054640B1451C5A
:106960002846FFF79FF9214B3F01D851012400E051
:106970000446284620210BF075FA054640B1451C17
:106980002846FFF78FF91949013401EB06125061CF
:10699000284620210BF066FA054640B1451C2846E2
:1069A000FFF780F9114B013403EB0611886128468B
:1069B00020210BF057FA18B91B48FFF709FA10E02D
:1069C0000130FFF76FF9094A032C02EB0616F0615C
:1069D000F2D11648FFF70CFF03E015480C2107F031
:1069E000B5FA09B0BDE8F08333340108341400204F
:1069F0005E34010864340108343001084814002072
:106A0000683401080AD7233C2F3401082B340108CD
:106A100058330108773401087D340108902E0108AD
:106A20001A320108823401089534010868350108DA
:106A3000CF340108F0B5694B87B01A783AB9012014
:106A400018706748FFF7C4F96648FFF7C1F9664C4C
:106A5000206806F052FD002800F0BD80206806F096
:106A600051FD09280146614A01D03F2851D1002536
:106A700017685F4C2E462FB15E4821683A460BF0EE
:106A8000FDFA10B9254606B926465B490C348C42FE
:106A9000F1D3C6B13468D5F800E03B46E05C1EF89F
:106AA000031081420DD1534A41B92D2B06D8202421
:106AB0004E48D45401330360D15404E0D054013320
:106AC000ECE74A490B60494A14681CB1AE4201D157
:106AD0003C4612E04948FFF77BF9AE4209D856F828
:106AE0000C0BFFF775F9404B0921186806F01AFFE7
:106AF000F3E73C48FFF76CF900243C4B18688442EC
:106B0000A5D239493B4A0868115D06F00BFF0134F4
:106B1000F3E713682BB9042838D13648FFF7F0FAA9
:106B200059E00C2801D136488CE70A2901D00D29FB
:106B300048D12E4D3348FFF74BF92E4C2A68324985
:106B40000023A3540493009103A8294910220C2385
:106B500003940AF085FF054638B100680BF05EFA31
:106B60000130AA682018904702E02848FFF730F962
:106B7000002130221F480BF0B9F818481B4B02784F
:106B800000211960002A7FF45FAF24E00C28CAD0EE
:106B90007F2903D15BE72F2B3FF659AF1F297FF6E3
:106BA00056AF7E293FF653AF13B920293FF44FAFBC
:106BB000104C0E480C4AE15401330360106806F093
:106BC000B1FE44E77F29E6D10A485C1E0021015549
:106BD00014600F4839E707B0F0BD00BF090E002070
:106BE000F73401082F35010818180020C4070020C9
:106BF000EC2E010894070020AC2F01083435010861
:106C00003935010858330108095F00084435010887
:106C1000653501080E4B1A783A2A16D15888B0F516
:106C20005F7F12D11979BE290FD193F87923002003
:106C3000EF2A0CD113F8011B064A48409342F9D1C0
:106C4000D0F1010038BF0020704700207047704726
:106C500000F801087CFB010870B50546441E14F8D5
:106C6000011F61B1064E30460BF0FCF80028F6D04B
:106C7000861B0448631B811981F80831EFE770BD5A
:106C8000D8450108341400202DE9F843FFF7C2FF6E
:106C900010B90A2006F0F4FB3A4C3B4920464FF469
:106CA0005F720AF075FF94F878332046022B02D900
:106CB000002284F8782390F87813C42202FB01059F
:106CC000324E05F5967130460AF062FF96F8207054
:106CD000F47F002303FB03F01938784300F6C41651
:106CE0005E43664340F6C412294D96FBF2F125F847
:106CF00013100133072BEDD1244C224A94F82100C4
:106D00000A27474394F82260B2F8D050B2F8D280F4
:106D10004342C0F1640E9CB25FFA8EFEC6F1640C71
:106D2000C5EB0808002322B2002A04DCB8BF0146E4
:106D300002DB012100E0714602FB02F9494309FB35
:106D400006F999FBF1F1614451434FF00A0991FBB7
:106D5000F9F2B9180AB202FB08F14FF47A7291FB0A
:106D6000F2F10C4A6918995202334C44182BA4B220
:106D7000D9D10648007803F03FFBBDE8F84300F0A6
:106D8000D1BB00BF3414002000F8010870130020AC
:106D900056190020861800202C4B70B53A22064662
:106DA0004FF45F701A705880BE25EF2200201D71CD
:106DB00083F8792383F87A0349B193F87813C422CE
:106DC00002FB0133224903F596700AF0E1FE00212F
:106DD0000D461E4A885C0131B1F55F7F85EA0005EA
:106DE000F7D182F87A53002507F032FD342007F0FE
:106DF00043FD184807F096FD042811D1154C164B99
:106E00002046E15807F064FD042805D0013507F05D
:106E10002BFD032DE8D103E0104A04349442EED157
:106E200007F022FD032D02D0FFF7F4FE10B90A206F
:106E300006F026FBFFF728FF36B10F2014210122B0
:106E4000BDE8704003F01EB870BD00BF34140020D0
:106E50007013002000F80108341CFE177CFB0108A9
:106E6000034B196808420CBF00200120704700BF87
:106E7000C8070020024B1A6810431860704700BF13
:106E8000C8070020024B1A6822EA00001860704709
:106E9000C8070020014B1868704700BFC8070020D2
:106EA000034B996808420CBF00200120704700BFC7
:106EB00034140020024B9A6810439860704700BF5A
:106EC000341400202DE9F7430446FFF7A3FE10B168
:106ED000002C00F05B81AF4AAF4D10685168AF4C99
:106EE0006B4603C34FF45F72002128460AF0FEFE92
:106EF000C422002120460AF0F9FE3A20072128701A
:106F000008206971FFF7D6FF1020FFF7D3FF2A236F
:106F100020214FF4FA70FA22A5F8EE30A5F8F60019
:106F200085F8F4102B23212040F2DC51A5F8F22043
:106F300085F805316E2285F80601A1F5C8734FF476
:106F4000FA6000274FF0010885F80421A5F8121116
:106F50000422A5F81431A5F81601A5F8D2004FF4C3
:106F600016764FF47A7040F27E4140F27E53A5F8D7
:106F7000F06085F81021A5F8D010A5F8D40085F8A8
:106F80007873A5F8F870A5F8FA70A5F8FC7085F884
:106F9000E27085F8E37085F8E470A5F8E670A5F86E
:106FA000E870A5F8EA7085F8ED7085F8EC8085F852
:106FB000077185F8297185F82A7185F8187185F8A7
:106FC000197185F81A81A5F8D630A5F8DE004FF4BE
:106FD000E130C5F8200140F6AC506C33A8811E208A
:106FE000A5F8D83040F2B4513223E0722073552016
:106FF000A5F8DA10A5F8DC301946A5F8E030E07005
:107000004FF496430B20C5F82431607117231420E8
:1070100085F81C7185F81D7185F8287185F81B713C
:1070200063752825A375A0712D234FF0080E4FF02E
:107030000E09607450206373217184F810E0A37608
:1070400084F8079027706570A570E775A773277699
:10705000E7736776E0765A2020722375E077412344
:107060004F4884F8203084F821104E4B4E494FF0A1
:107070000A094FF0640C4FF0780E84F82C206063FE
:1070800015224A4884F82F20216384F8129084F84E
:107090001CC0657284F80AE084F81E8084F82370AE
:1070A00084F8247084F8257084F822702785678519
:1070B000E78484F82D5084F82E50A36384F83C8034
:1070C000FFF7CAFDC8224FF4966140F2D9303E4620
:1070D00084F8687084F8697084F86A5084F86B806A
:1070E00084F86C7084F8AE9084F8AF20A4F8B010E7
:1070F000A4F8B2004FF4FA621DF807004FF47F7352
:10710000A2F5FA710137A4F86E30A4F87020A4F843
:10711000721084F874000834082FEBD11F4C012240
:10712000FF23C821142084F8B43084F8B52084F8F3
:10713000B620A4F8B81084F8BA0084F8BC201E2346
:1071400064224FF49671282084F8BB30A4F8BE2046
:10715000A4F8C010A4F8C20000240F4B0021E218CC
:107160001034C02C1161F8D100241148C422201819
:107170000A49C4340AF00CFDB4F5137FF5D10020A0
:10718000014603B0BDE8F043FFF706BE03B0BDE81B
:10719000F08300BFE42C0108341400207013002099
:1071A000F6287C3F3D0A773F9A99193FE14501084F
:1071B00060150020024B9A6822EA00009860704730
:1071C00034140020014B9868704700BF341400202D
:1071D00010B5FCF723FD00210446FCF72FFF08B192
:1071E000204601E004F100400549FCF71FFE054977
:1071F000FCF768FD08F010F9034B186010BD00BFE4
:107200008096184B35FA8E3C0C00002010B5044CCB
:1072100000232070236106F083F8606110BD00BF79
:10722000B4170020F8B5101A0C461F46FCF7F6FC00
:107230000546381BFCF7F2FC174B079E1968FCF754
:1072400041FD294604462846FCF73CFD21460746F9
:107250002046FCF737FD01463846FCF72BFC08F0CA
:1072600021FB0E49FCF72EFDFCF718FF069908607C
:10727000214605F1004008F07FF90949FCF722FD9D
:107280000849FCF717FCFCF7E3FE0028BCBF00F53B
:107290000C40A0303060F8BD0C0000202C7D8E3FEB
:1072A000A00CB34500A00C46F8B51D4614460E468A
:1072B000FCF7B4FC6968FCF705FD3146FCF702FDFC
:1072C0002168FCF7F7FB2060FCF7C2FEED6807467B
:1072D00005F10040FCF7BCFE06462846FCF7B8FE68
:1072E00031460246384606F04DFEFCF797FC20601A
:1072F000FCF7AEFEF8BD000010B5044600200346C2
:107300000B49CA5C92B12E2A04D1013374B1C91859
:1073100000220A55064A0A21D25C4843A2F13001F4
:10732000092901D8303880180133E9E710BD00BFC2
:10733000360800202DE9F0412E4B93F81C0110B1C6
:10734000012852D10AE02C4B0C2059782B4A41439A
:107350002B4B5068595806F0DAF843E0274D68681F
:1073600006F0DAF8002840D0234C2178264601297F
:1073700020D105F0D5FF06466069321A632A37D955
:107380002169042914D84FF00C0808FB01F31C4FA5
:107390006868F95806F0BBF8607808FB0077686801
:1073A000796806F09FF822696661511C21611CE032
:1073B000022018E022693AB964780C235C43104932
:1073C0006868095906F0A3F833690B4C8B2B09D870
:1073D0000C4A0A48D15C406806F07FF821694B1CD2
:1073E000236102E00320FFF711FF03480021416001
:1073F000BDE8F08134140020B417002018180020D4
:1074000050470108C446010810B51A4C2378581E8D
:1074100003282DD8DFE800F002021C06BDE810406A
:10742000FFF788BF637860685A1C411C0523D0B2FF
:107430006160B0FBF3F103FB1102627005F070FFB5
:107440000D4B0E49A06000201870C87201200BE09F
:1074500005F066FFA16840F6C412431A934207D9AB
:107460002020FFF70FFD0420BDE81040FFF7CEBE3F
:1074700010BD00BFB4170020161900206E180020A0
:1074800010B50B4CE37A8BB10A48017804290DD969
:10749000094A0A4B1068516818605960FFF798FE56
:1074A0000748084B028801211A80217310BD00BFD4
:1074B0006E18002016190020F8180020C8180020A7
:1074C000A01900209C080020002370B51C460F481E
:1074D00000211952142060430D4A0E4E0E4D995250
:1074E00000223250595335180C4E6960AA60325050
:1074F00035180B4E01346960AA6002333518022C2E
:1075000032506960AA60E2D170BD00BF82180020CD
:10751000000C0020580800209E180020FC070020C6
:10752000D808002070B5204C204D6079FCF772FB24
:107530001F49FCF77BFC2860E07BFCF76BFB1C49D8
:10754000FCF774FC1B4E6860EE60A079FCF762FBF0
:107550001949FCF76BFC194D2860207CFCF75AFB9D
:107560001349FCF763FC6860A07EFCF753FB1449E9
:10757000FCF75CFCEE60A860E079FCF74BFB0E4981
:10758000FCF754FC0F4D2860607CFCF743FB084976
:10759000FCF74CFC6860E07EFCF73CFB0849FCF71C
:1075A00045FCEE60A86070BD7013002084080020C8
:1075B0000000C8420000FA4400002041B408002046
:1075C00000007A444808002038B505460020FFF73F
:1075D0001DFE4FF48070FFF763FC00281FD0104C95
:1075E000657005F09DFEA0600E48002390F81C1108
:1075F000636000290CBF01240324FFF793FF0C22D2
:107600005543094B09495A590948234606F044FA9B
:10761000084948600120BDE83840FFF7F7BD38BD94
:10762000B4170020341400205047010801780008E6
:107630000044004018180020F8B51A4B18780328A9
:107640002CD11949194D4C68002210262027E262DE
:107650002E612F61144C606805F04FFF58B1134D37
:1076600010266E616068276805F04CFF01463846B9
:1076700005F033FF2E610C4C206805F03EFF00281A
:10768000E8D00A4D202694E881006E6105F03AFFAB
:107690000146384605F021FF2E61DBE74FF0FF3051
:1076A000F8BD00BFB417002018180020000C0140DE
:1076B000F7B50368164C174D23600968164E6160D4
:1076C0000068FFF785FD94E80C00144801960090CF
:1076D00095E80300FFF7A6FD6B68114A61683668FC
:1076E000C81A1660FCF79AFA0E4A0F4F1168FCF799
:1076F000E9FAFCF7ADFC2968786020680B4A431A68
:107700000B483B60B0F8BE100A4B16601980FEBDF6
:10771000A4080020F8180020000900200C0900200F
:10772000A00800200C0000203409002014090020CB
:10773000701300203209002044F25063984203DDA8
:10774000A0F50C40A038704703498842BCBF00F543
:107750000C40A030704700BFB0B9FFFF244BF0B51C
:107760001D68024616781446A9194B78013203F0B9
:107770000401CBB2002BF5D1221A022A09DD13B184
:107780000A225343DBB210F8011B30395B18DBB21D
:10779000F2E70021844209D911B10A225143C9B24A
:1077A00010F8012B303A8918C9B2F3E72E2E11D107
:1077B0000134042000220A2672432678AF197F780C
:1077C00007F00407FFB217B1303A921901340138BB
:1077D000F1D100E0002207484143642000FB021180
:1077E00006220548B1FBF2F100FB0310F0BD00BF1B
:1077F0007401002040420F008096980000000000B5
:107800002DE9F04F9F4B91B093F81C11C4B20129A0
:1078100000F0DC8002D3022940F0BE85242C07D181
:10782000994A9A489A490023137003700B70C7E075
:107830002C2C02D02A2C40F08280944D924A297838
:10784000944B157800205854934AB5B918781570A0
:10785000472868D15978502965D19878472840F051
:107860008985D978472940F085851B79412B40F0DF
:1078700081850120107000F07DBD117801293AD179
:10788000022D05D11846FFF769FF844908604AE0D8
:10789000032D07D11978532945D1804802685342F6
:1078A000036040E0042D05D11846FFF757FF7B4BDE
:1078B000586038E0052D07D11B78572B33D1774915
:1078C0004A68504248602EE0062D07D11978744866
:1078D000302994BF00210121C17224E0072D04D179
:1078E000FFF70AFD6F4A10701DE0092D1BD1FFF74D
:1078F00003FD6D4B16E0022915D1072D0CD1012097
:10790000FFF7FAFC41F2184250434FF47A71674B8B
:10791000B0FBF1F0188006E0082D04D10120FFF73C
:10792000EBFC634B1880584B5849013500202A2C3A
:107930001D7008703BD15F490120087040E00D2C9C
:107940005C4A01D00A2C28D113780BB3514908782E
:107950004978A0F13003DAB2092A84BFA0F13702D6
:10796000D2B2A1F1300302F00F00DAB20001092A0D
:1079700084BFA1F13702D2B2454B02F00F0140188B
:107980001A78C1B2B2EB010CDCF1000050EB0C0331
:10799000484A002111707BB912E03C490B780E2B4C
:1079A00003D83C48C45401330B70127842B9384BA9
:1079B0001A7854401C7003E037480378012B00D03C
:1079C0000023D80700F1358100F0E6BC3A4B0022D5
:1079D0001978082900F2E084DFE801F00A051018A0
:1079E00027377C95A100622C01D1022294E01A7005
:1079F000B52C40F0D1841878421C8DE02F4D304AD0
:107A0000032119702C7014702E4B0BE02C490425A7
:107A10001D700A782B4BA5181878EAB21018187048
:107A2000294B0A701C7000F0B7BC254A05251D7053
:107A3000244B157819786419E4B2147064181C701A
:107A4000224BC0B2188000F0A7BC06221A701C4A54
:107A50001C4B157819786419E4B2147064181C7002
:107A60001A4B198801EB002082B2B2F5007F01D8D1
:107A70001A8003E0002018800F4B18700022144970
:107A800000F076BC341400209408002097080020F1
:107A9000300900203608002010090020F8180020C6
:107AA0006E1800201619002080180020A21800204F
:107AB000800B002018090020D4080020190900209C
:107AC0009508002096080020F80700209A0800205A
:107AD000800800205E495F4D0B782878E218D3B209
:107AE000181828705C4D0B702A885C48C72A9CBF08
:107AF0005B498C54511C8BB22B8005889D4240F011
:107B00004B84072207E008251D70514B1978A142CC
:107B100000F042840022534B1A7000F03DBC4D4DE2
:107B20001A702878A04240F037844F4B1978062904
:107B30003BD005D8022913D0032940F02D8423E03F
:107B4000122947D0302940F027844549474B0A790C
:107B50004349102A88BF10221A701D78002347E07D
:107B60003F4B434D9A68596818692A60414A6960D9
:107B70004FF47A7590FBF5F13F4B10783F4D19802B
:107B8000E87201213E4A23E0354A557915F0010596
:107B900004D01079C11E4B4253EB0105354A1570D4
:107BA000002D39D13548C57236E02D4DEB7A13F0F2
:107BB000010304D0A87AC11E4A4252EB01032D4DA5
:107BC0002B700BB92D48C37225492E4A91F82F10FE
:107BD000117021E0224D2C496869AA69088042F29F
:107BE00010732A4892FBF3F505800121284AEFE73C
:107BF0000C31AB4210DA11F8044C264811F8032C72
:107C00001C54254C25481A5511F8012C0C781A548F
:107C1000234A9C540133EBE7194A1378002B00F0F8
:107C2000BB831B4D2878002800F0B6830024147015
:107C30002C701C4CA168E16005F072FBA060202054
:107C4000FFF718F9184B1A78012A2FD100202EE0DF
:107C50009508002096080020800800209A0800203F
:107C600040090020D4080020F80700201719002040
:107C7000F818002024090020801800206E18002029
:107C80009808002016190020A2180020800B002060
:107C90001A0900205C180020E718002000190020B5
:107CA00044190020B4170020B40B002001207D49A6
:107CB0001870CB7A002B00F06F837B4A1078042871
:107CC00040F26A834E7806B90E730F7B17B90EB176
:107CD000FFF7D6FB754D05212C78754E631C93FB81
:107CE000F1F201FB1230734F287096F800C0724D0C
:107CF00007EB80020023714C71491E59DFF80CE23A
:107D00007048714F5E5096FBFEF1195007FB016001
:107D1000DFF8FC9103EB040A42F2107490FBF4F6D6
:107D2000B4B2176853F809601060C7EB0608404406
:107D3000052643F8090090FBF6F00EFB01016348AD
:107D4000BCF1010F25F8024F195005D1023CB4F5E2
:107D5000797F98BFCAF8001004331432082BCAD1B7
:107D600005F0DEFA5A4D5B4C2A68801AFBF752FF89
:107D70005949FCF75BF8206005F0D2FA28602568C5
:107D80004FF07E512846FCF73BF908B94FF07E557D
:107D90000CA90DAA4948514B25600091019203C8D6
:107DA0000CCBFFF73FFA0C986423B0FBF3F24C497D
:107DB0000D980A8090FBF3F34A4A3A481380037BFC
:107DC0000BB90B80138048490A78002A36D0414FFE
:107DD0004FF07E503968FCF729F8444D374E2B6838
:107DE00004463068C01AFBF719FF2146FBF76AFF0B
:107DF000FCF72EF96A6871683D4D0746881AFBF753
:107E00000DFF2968FBF75EFF2146FBF75BFFFCF7E0
:107E10001FF904B237480225B0F902303FB2E11829
:107E200091FBF5F2B0F9001093B27A18324C92FB44
:107E3000F5F18AB263802280438002801F4A2A4B78
:107E4000012018705168294B106859601860154B53
:107E50001A7A1AB9DB79002B00F09E82274E284D42
:107E6000284C01960095154F94E80C00FFF7DAF9BD
:107E700061687868244E081AFBF7D0FE1C4A116826
:107E8000FBF720FFFCF7E4F821683B68084A7060C4
:107E9000C81A92F90010306001293BD0022940F045
:107EA0007B82F0E06E180020161900203C090020AB
:107EB000D80B0020CC070020AC080020F8180020C8
:107EC0001C090020C8080020806967FF2C080020DA
:107ED000F4070020C408002000007A44C8180020DD
:107EE000C6180020D0180020AC0800202809002067
:107EF0000C00002024080020D008002000090020E9
:107F00000C090020A4080020340900208096980065
:107F10000409002000252C462E46DFF870B28A4F57
:107F20005BF82680DFF860924046FBF777FE396801
:107F3000FBF7C8FEFCF78CF834F80930834AC01A06
:107F400081B2A1520FB2CDF80890DFF844923846C2
:107F50000397FBF763FED9F80010FBF7B3FEFCF7BD
:107F600077F87B4983B2142000FB0617DFF8FCA1E9
:107F7000039ADAF8001002EB080008933A464B46E1
:107F8000FFF792F9089B5BF82610DFF80882DAF811
:107F900000B0181824F8080058460891FBF746FA74
:107FA000D7F808A0CDE904015046FBF73FFA694A2B
:107FB000CDE9060192F8BA00FBF72CFEFBF736FA82
:107FC0005FA3D3E90023FBF785FA02460B460020A6
:107FD0006149FBF7A9FBDDE90423FBF7C9F8024679
:107FE0000B46DDE90401FBF79FFB089BCDE904018B
:107FF00078680136181AFBF711FE5946FBF716FF91
:108000005146FBF755FDFBF711FA02460B46DDE939
:108010000401FBF75FFA0B460246DDE90601FBF7B8
:10802000A7F8FBF7F1FC089AD9F808107A603861D4
:10803000B860FBF747FEFCF70BF848494FF4FA62CB
:1080400005F0A0FFDDF808C034F8082034F80C3043
:10805000313399B2622998BF0020801883B224F886
:1080600008303F4940F6B83218B205F08BFF384966
:1080700028F804004A593B4802342A501435022E8D
:1080800000F08A8149E72F68324D7C08B5F9C0803D
:10809000354DA04528BFA0462E881FFA88F80FFA54
:1080A00088F033B298420BDD304A31491068FBF753
:1080B00009FEFBF7CDFF81191FFA81F8A5F80080B2
:1080C0002C4C2D4E256830682C1A2046FFF734FBC7
:1080D0000028D8BF404241F293139842CCBF002001
:1080E0000120002858D02046FBF798FD2349FBF7D4
:1080F000E9FD07F005FA06463846FBF78BFD014619
:108100003046FBF7DFFDFBF7A3FF1D4A1449108043
:1081100000B240F6B83205F035FF291848F6A04500
:10812000A94203DDA1F50C41A03904E00029BCBF40
:1081300001F50C41A031134801602FE0AFF300803E
:10814000182D4454FB2119408408002028080020E1
:10815000FC070020701300200000F03F30F8FFFF04
:1081600048F4FFFFD808002032090020C40800208E
:108170000000C8420009002014090020D30237394A
:1081800034080020A0080020D00800203409002076
:10819000B40800209E180020834F3D60824C0025CB
:1081A00023682C46C3F50C502830FBF737FD7F4978
:1081B000FBF788FD074607F02FF90F90384607F0C8
:1081C0009FF92F460E900EAE0FFA88F0FBF726FDB2
:1081D00056F82710FBF776FD754A0646105FFBF749
:1081E0001DFD01463046FBF763FCFBF731FFDFF86E
:1081F000FCA14FF47A7224F80A006E4900B205F02F
:10820000C1FE81B20BB2DFF8E89124F80A101846DB
:108210000393FBF703FDD9F80010FBF753FDFBF7C1
:1082200017FF654A142606FB0726DFF8C8B1039935
:1082300080B2324606904B460846DBF80010FFF746
:1082400033F8DBF800C034F90A3009906046D6F8FC
:1082500008A00893CDF808C0FBF7E8F8CDE90401C1
:108260005046FBF7E3F8DFF890B1CDE90A019BF83F
:10827000BA00FBF7CFFCFBF7D9F849A3D3E90023F9
:10828000FBF728F902460B4600204C49FBF74CFA55
:10829000DDE90423FAF76CFF0B460246DDE9040131
:1082A000FBF742FA089ACDE9040170680137101A09
:1082B000FBF7B4FCDDF808C06146FBF7B7FD51469B
:1082C000FBF7F6FBFBF7B2F802460B46DDE90401CB
:1082D000FBF700F902460B46DDE90A01FAF748FF11
:1082E000FBF792FB089B099A73603061B060069EB1
:1082F000D9F80810B618FBF7E5FCFBF7A9FE301813
:108300002F4E81B2A15308B240F6B8322D4905F084
:1083100039FE294B3053EA582B4802342A50143581
:10832000022F5B467FF44FAF93F8BC1031B11E4A69
:1083300064211068254A90FBF1F010802449B3F8BD
:10834000B830086898420DD9224A234B1168186842
:10835000081AFFF7F1F942F210720028B8BF404244
:10836000904219DD1D4B1E480121197002881749E2
:108370000A8011E01B498A78522A7FF4D4AACB786C
:108380004D2B7FF4D0AA087943287FF4CCAA164A53
:1083900002211170FFF7C7BA11B0BDE8F08F00BF1E
:1083A000182D4454FB211940A0080020D30237396E
:1083B000D008002018FCFFFFD80800200000F03F84
:1083C0009E18002048F4FFFFFC07002074190020CD
:1083D0000C0900200009002014090020D80B0020FF
:1083E0009C080020360800201009002028080020E2
:1083F00048080020C408002070130020AFF300805C
:108400002DE9F84F384E04463768384607F004F82F
:108410000546384607F074F876688046304606F020
:10842000FBFF8346304607F06BF8D4F8049006460D
:1084300029464846FBF746FCA7688246414638462F
:10844000FBF740FC01465046FBF732FB21688246B1
:108450005846FBF737FC414604464846FBF732FCDA
:108460003146FBF72FFC01462046FBF723FB314644
:1084700004463846FBF726FC2946FBF723FC014659
:108480002046FBF717FB0146504607F075F81749E1
:10849000FBF718FCFAF7CAFF11A3D3E90023FBF797
:1084A00043F9134B044618680D46FAF7BFFF02461E
:1084B0000B4620462946FAF75BFE00220D4BFBF7E0
:1084C00033F9FBF7A1FA06F0DBFF81B20A0444BFDF
:1084D00000F5B47189B208B2BDE8F88FAFF300803F
:1084E000182D4454FB210940640A00200000E14497
:1084F000340A0020000024400B4B10B51888FBF70D
:108500008DFB0A490446FBF7DDFBFBF7A1FD08499B
:10851000088021460748FBF789FC0749FBF786FCE2
:10852000064A106010BD00BF34000020C903683F38
:10853000140A00200AE81C4100401C46E8170020ED
:108540002DE9F04F0C68836889B0D0F800A0D0F80E
:1085500004800646204603938B4606F05DFF0746DF
:10856000204606F0CDFFDBF804408146204606F0A9
:1085700053FF0546204606F0C3FFDBF808200446FB
:108580001046019206F048FF8346019806F0B8FFB6
:10859000394602905846FBF795FB394604900298FD
:1085A000FBF790FB594605904846FBF78BFB029979
:1085B00006904846FBF786FB294607905846FBF78E
:1085C00081FB01465046FBF77DFB2146834606981A
:1085D000FBF778FB01460598FBF76CFA014640462D
:1085E000FBF770FB01465846FBF764FA21468346C9
:1085F0000498FBF767FB01460798FBF759FA014619
:108600000398FBF75FFB01465846FBF753FA3060CF
:10861000029905F10040FBF755FB01465046FBF778
:1086200051FB214683460798FBF74CFB0146049813
:10863000FBF73EFA01464046FBF744FB014658462D
:10864000FBF738FA214683460598FBF73BFB0146CA
:108650000698FBF72FFA01460398FBF733FB014618
:108660005846FBF727FA214670605046FBF72AFB75
:108670002946044609F10040FBF724FB0146404629
:10868000FBF720FB01462046FBF714FA3946044667
:108690002846FBF717FB01460398FBF713FB01463F
:1086A0002046FBF707FAB06009B0BDE8F08F80EA1A
:1086B000E073A3EBE0738B4206DB002801DD401A78
:1086C000704702D04018704700207047000000003B
:1086D000F0B5574B87B01A685B6802F1004203F1AE
:1086E00000430193534B0546B3F900000092FBF79A
:1086F00095FA00F10040FAF799FE4BA3D3E9002365
:10870000FAF7E8FEFBF780F94B4C0290B4F9000051
:10871000FBF784FA0390B4F90200FBF77FFA0490A8
:10872000B4F90400FBF77AFA6946059003A8FFF74D
:1087300007FF424B93F83C30012B16D1404841785B
:1087400069B9404C4026226892FBF6F7D01BFBF734
:1087500065FA0599FBF7AEF9FBF77AFC2060394B17
:108760004021186890FBF1F001E0374B1888FBF7C7
:1087700055FA01460598FBF79BF905902846FBF74B
:1087800049FA32490746FBF795F901463846FBF7A7
:108790004DFB2F4E0746346805982146FBF788F9B4
:1087A00001463846FBF78EFA01462046FBF782F970
:1087B000224C306006F064FE94F82D10FFF777FF2E
:1087C000FBF72CFA0590039806F05AFE94F82E1049
:1087D000FFF76DFFFBF722FA0390049806F050FEB6
:1087E00094F82E10FFF763FFFBF718FA049019486E
:1087F000194B01681A684C1C0460184CAD1803989A
:108800001D60256806F03CFE2B18049865682360FF
:1088100006F036FE2A180598A568626006F030FE5C
:108820002818A06007B0F0BD399D52A246DF913FE5
:10883000640A0020A01900200418002070130020F2
:108840006E180020180A0020340000203661823C97
:10885000480A0020900A0020880A0020DC17002027
:108860002DE9F04F87B002F049FD0220FEF7F8FA3B
:10887000002800F03B8102F001FC04F037FDA64C1B
:1088800005462768C71B3846FBF7C4F9A349C968E2
:10889000FBF718FA8346A248256090F82C80002543
:1088A0002C462E469F4A105FFBF7B8F95946FBF756
:1088B00009FA03AB5851B8F1000F27D04046FBF737
:1088C000ADF901464FF07E50FBF7B0FADFF8989211
:1088D000824651464FF07E50FBF7EAF855F80910F2
:1088E000FBF7F0F990490346085F0193FBF796F90F
:1088F0005146FBF7E7F901460198FBF7DBF849F829
:108900000500FBF7A5FB894A105303E08649874A17
:10891000605AA052854B0435E15E0234062C01FBFF
:108920000166BFD1824A6420138846435B43814875
:1089300003A996FBF3F6FFF703FE0820FEF790FA73
:1089400008B17D4800E07D4803A9493EFFF7F8FDE6
:10895000B1B23B2904D90820FEF782FA48BB50E0A7
:10896000774CB4F8F000FBF755F94FF07E51804694
:10897000FBF7A0F801464FF07E50FBF757FA0024B2
:1089800006466C4D404655F81410FBF79BF981469E
:108990006648005FFBF742F901464846FBF78AF854
:1089A0003146FBF78FF945F814000234062CE8D164
:1089B000D1E7634A0024B2F8F200FBF72BF94FF03D
:1089C0007E518046FBF776F801464FF07E50FBF76C
:1089D0002DFA0646584D404655F81410FBF772F92B
:1089E000584B8146185FFBF719F901464846FBF7DB
:1089F00061F83146FBF766F945F814000234062C9D
:108A0000E8D151494B4DB1F90000FBF707F9AE68C9
:108A100001463046FBF712FB4C4B10B10120587356
:108A200000E058733146686806F0A6FD484C2A6895
:108A30002060686802F100460146FBF743F9D5F86B
:108A40000880054641464046FBF73CF9014628466A
:108A5000FBF730F806F026FF0146304606F08CFDA5
:108A600060602068FAF7E2FC29A3D3E90023FAF753
:108A700031FDFAF7C9FF06F003FD364D2880606826
:108A8000FAF7D4FC22A3D3E90023FAF723FDFAF77F
:108A9000BBFF06F0F5FC68800820FEF7E1F92E4CDC
:108AA00008B1254800E02548FFF7AAFC2080384699
:108AB000FFF70EFE1A4991F86C40DCB11D4B2749B7
:108AC0009868FBF7FFF8FBF7C3FA194A118864228C
:108AD00090FBF1F0C0F16400002105F053FA60430F
