:020000040800F2
:1030000000500020015D0008B15D000845950008F2
:10301000B15D0008B15D0008B15D0008000000006E
:10302000000000000000000000000000B15D00088A
:10303000B15D000800000000B15D000855D800082F
:10304000B15D0008B15D0008B15D0008B15D000828
:10305000B15D0008B15D0008B15D0008B15D000818
:10306000B15D0008B15D0008B15D0008B15D000808
:10307000B15D0008B15D000875E10008B15D0008B0
:10308000B15D0008B15D0008B15D0008B15D0008E8
:10309000B15D0008B15D0008B15D0008B15D0008D8
:1030A000B15D0008B15D0008B15D0008815C0008F9
:1030B0008D5C0008955C0008A15C0008E9D400085C
:1030C000BDD60008EDD40008C1D60008B15D0008E7
:1030D000B15D0008A9E10008E5E10008B15D000864
:1030E000DD460008B15D0008B15D00080000000089
:1030F00000000000000000000000000000000000D0
:0C31000000000000000000005FF808F173
:1031100010B5054C237833B9044B13B10448AFF311
:1031200000800123237010BDB405002000000000C2
:10313000FC4A010808B5064B1BB106480649AFF327
:1031400000800648036813B1054B03B1984708BDDA
:1031500000000000FC4A0108B8050020B40500206A
:103160000000000081F0004102E000BF83F0004356
:1031700030B54FEA41044FEA430594EA050F08BF12
:1031800090EA020F1FBF54EA000C55EA020C7FEAD6
:10319000645C7FEA655C00F0E2804FEA5454D4EB53
:1031A0005555B8BF6D420CDD2C4480EA020281EA1D
:1031B000030382EA000083EA010180EA020281EA55
:1031C0000303362D88BF30BD11F0004F4FEA0131A7
:1031D0004FF4801C4CEA113102D0404261EB4101B6
:1031E00013F0004F4FEA03334CEA133302D052423C
:1031F00063EB430394EA050F00F0A780A4F10104F8
:10320000D5F1200E0DDB02FA0EFC22FA05F2801831
:1032100041F1000103FA0EF2801843FA05F3594117
:103220000EE0A5F120050EF1200E012A03FA0EFC96
:1032300028BF4CF0020C43FA05F3C01851EBE371C0
:1032400001F0004507D54FF0000EDCF1000C7EEBDD
:1032500000006EEB0101B1F5801F1BD3B1F5001F1B
:103260000CD349085FEA30004FEA3C0C04F101043A
:103270004FEA445212F5800F80F09A80BCF1004F63
:1032800008BF5FEA500C50F1000041EB045141EAE5
:10329000050130BD5FEA4C0C404141EB010111F4E6
:1032A000801FA4F10104E9D191F0000F04BF014691
:1032B0000020B1FA81F308BF2033A3F10B03B3F16F
:1032C00020020CDA0C3208DD02F1140CC2F10C02FF
:1032D00001FA0CF021FA02F10CE002F11402D8BF5D
:1032E000C2F1200C01FA02F120FA0CFCDCBF41EA29
:1032F0000C019040E41AA2BF01EB0451294330BDF8
:103300006FEA04041F3C1CDA0C340EDC04F11404D4
:10331000C4F1200220FA04F001FA02F340EA0300AB
:1033200021FA04F345EA030130BDC4F10C04C4F1F1
:10333000200220FA02F001FA04F340EA03002946D1
:1033400030BD21FA04F0294630BD94F0000F83F41B
:10335000801306BF81F480110134013D4EE77FEAFE
:10336000645C18BF7FEA655C29D094EA050F08BF4A
:1033700090EA020F05D054EA000C04BF194610462B
:1033800030BD91EA030F1EBF0021002030BD5FEA6F
:10339000545C05D14000494128BF41F0004130BD97
:1033A00014F580043CBF01F5801130BD01F00045EB
:1033B00045F0FE4141F470014FF0000030BD7FEA5E
:1033C000645C1ABF194610467FEA655C1CBF0B4659
:1033D000024650EA013406BF52EA033591EA030F70
:1033E00041F4002130BD00BF90F0000F04BF002168
:1033F000704730B54FF4806404F132044FF000059B
:103400004FF0000150E700BF90F0000F04BF002113
:10341000704730B54FF4806404F1320410F0004579
:1034200048BF40424FF000013EE700BF42004FEA74
:10343000E2014FEA31014FEA02701FBF12F07F43F1
:1034400093F07F4F81F06051704792F0000F14BFEE
:1034500093F07F4F704730B54FF4607401F0004532
:1034600021F0004120E700BF50EA010208BF704789
:1034700030B54FF000050AE050EA010208BF70477E
:1034800030B511F0004502D5404261EB41014FF4E7
:10349000806404F132045FEA915C3FF4DCAE4FF0EB
:1034A00003025FEADC0C18BF03325FEADC0C18BFD2
:1034B000033202EBDC02C2F1200300FA03FC20FA23
:1034C00002F001FA03FE40EA0E0021FA02F1144470
:1034D000C1E600BF70B54FF0FF0C4CF4E06C1CEA85
:1034E00011541DBF1CEA135594EA0C0F95EA0C0FFA
:1034F00000F0DEF82C4481EA030621EA4C5123EA6D
:103500004C5350EA013518BF52EA033541F480119B
:1035100043F4801338D0A0FB02CE4FF00005E1FB4E
:1035200002E506F00042E0FB03E54FF00006E1FB98
:1035300003569CF0000F18BF4EF0010EA4F1FF04DB
:10354000B6F5007F64F5407404D25FEA4E0E6D411B
:1035500046EB060642EAC62141EA55514FEAC5202C
:1035600040EA5E504FEACE2EB4F1FD0C88BFBCF5A8
:10357000E06F1ED8BEF1004F08BF5FEA500E50F159
:10358000000041EB045170BD06F0004646EA01011F
:1035900040EA020081EA0301B4EB5C04C2BFD4EB51
:1035A0000C0541EA045170BD41F480114FF0000E4A
:1035B000013C00F3AB8014F1360FDEBF002001F0B8
:1035C000004170BDC4F10004203C35DA0C341BDC32
:1035D00004F11404C4F1200500FA05F320FA04F004
:1035E00001FA05F240EA020001F0004221F0004138
:1035F00010EBD37021FA04F642EB06015EEA430EAB
:1036000008BF20EAD37070BDC4F10C04C4F12005DA
:1036100000FA04F320FA05F001FA04F240EA02008D
:1036200001F0004110EBD37041F100015EEA430E5E
:1036300008BF20EAD37070BDC4F1200500FA05F27E
:103640004EEA020E20FA04F301FA05F243EA0203FD
:1036500021FA04F001F0004121FA04F220EA02000C
:1036600000EBD3705EEA430E08BF20EAD37070BD52
:1036700094F0000F0FD101F00046400041EB010132
:1036800011F4801F08BF013CF7D041EA060195F014
:10369000000F18BF704703F00046520043EB0303CE
:1036A00013F4801F08BF013DF7D043EA06037047BB
:1036B00094EA0C0F0CEA135518BF95EA0C0F0CD0C6
:1036C00050EA410618BF52EA4306D1D181EA03010C
:1036D00001F000414FF0000070BD50EA410606BF06
:1036E0001046194652EA430619D094EA0C0F02D14B
:1036F00050EA013613D195EA0C0F05D152EA033690
:103700001CBF104619460AD181EA030101F00041AD
:1037100041F0FE4141F470014FF0000070BD41F0F6
:10372000FE4141F4780170BD70B54FF0FF0C4CF4D0
:10373000E06C1CEA11541DBF1CEA135594EA0C0FEF
:1037400095EA0C0F00F0A7F8A4EB050481EA030E3C
:1037500052EA03354FEA013100F088804FEA033323
:103760004FF0805545EA131343EA12634FEA0222F1
:1037700045EA111545EA10654FEA00260EF00041B2
:103780009D4208BF964244F1FD0404F5407402D204
:103790005B084FEA3202B61A65EB03055B084FEA95
:1037A00032024FF480104FF4002CB6EB020E75EB92
:1037B000030E22BFB61A754640EA0C005B084FEABA
:1037C0003202B6EB020E75EB030E22BFB61A754637
:1037D00040EA5C005B084FEA3202B6EB020E75EB82
:1037E000030E22BFB61A754640EA9C005B084FEAFA
:1037F0003202B6EB020E75EB030E22BFB61A754607
:1038000040EADC0055EA060E18D04FEA051545EAF5
:1038100016754FEA06164FEAC30343EA52734FEA9E
:10382000C2025FEA1C1CC0D111F4801F0BD141EA17
:1038300000014FF000004FF0004CB6E711F4801F7C
:1038400004BF01430020B4F1FD0C88BFBCF5E06F5C
:103850003FF6AFAEB5EB030C04BFB6EB020C5FEA6C
:10386000500C50F1000041EB045170BD0EF0004EC1
:103870004EEA113114EB5C04C2BFD4EB0C0541EAF3
:10388000045170BD41F480114FF0000E013C90E6F0
:1038900045EA060E8DE60CEA135594EA0C0F08BFB4
:1038A00095EA0C0F3FF43BAF94EA0C0F0AD150EAB3
:1038B00001347FF434AF95EA0C0F7FF425AF104646
:1038C00019462CE795EA0C0F06D152EA03353FF46E
:1038D000FDAE1046194622E750EA410618BF52EAEB
:1038E00043067FF4C5AE50EA41047FF40DAF52EABF
:1038F00043057FF4EBAE12E74FF0FF3C06E000BF5C
:103900004FF0010C02E000BF4FF0010C4DF804CD68
:103910004FEA410C7FEA6C5C4FEA430C18BF7FEA28
:103920006C5C1BD001B050EA410C0CBF52EA430C56
:1039300091EA030F02BF90EA020F0020704710F1D6
:10394000000F91EA030F58BF994208BF90422CBF65
:10395000D8176FEAE37040F0010070474FEA410C5E
:103960007FEA6C5C02D150EA013C07D14FEA430C7C
:103970007FEA6C5CD6D152EA033CD3D05DF8040BED
:10398000704700BF8446104662468C46194663461F
:1039900000E000BF01B5FFF7B7FF002848BF10F1F6
:1039A000000F01BD4DF808EDFFF7F4FF0CBF01203B
:1039B00000205DF808FB00BF4DF808EDFFF7EAFFB7
:1039C00034BF012000205DF808FB00BF4DF808ED72
:1039D000FFF7E0FF94BF012000205DF808FB00BF67
:1039E0004DF808EDFFF7CEFF94BF012000205DF8F1
:1039F00008FB00BF4DF808EDFFF7C4FF34BF0120FE
:103A000000205DF808FB00BF4FEA4102B2F1E0433D
:103A100024BFB3F5001CDCF1FE5C0DD901F0004CB5
:103A20004FEAC0024CEA5070B2F1004F40EB830005
:103A300008BF20F00100704711F0804F21D113F131
:103A40003872BCBF01F00040704741F480114FEA6A
:103A50005252C2F11802C2F1200C10FA0CF320FAF3
:103A600002F018BF40F001004FEAC1234FEAD32310
:103A700003FA0CFC40EA0C0023FA02F34FEA43037A
:103A8000CCE77FEA625307D150EA01331EBF4FF003
:103A9000FE4040F44000704701F0004040F0FE401E
:103AA00040F40000704700BF80F0004002E000BF1B
:103AB00081F0004142001FBF5FEA410392EA030F19
:103AC0007FEA226C7FEA236C6AD04FEA1262D2EB63
:103AD0001363C1BFD218414048404140B8BF5B4268
:103AE000192B88BF704710F0004F40F4000020F001
:103AF0007F4018BF404211F0004F41F4000121F017
:103B00007F4118BF494292EA030F3FD0A2F1010260
:103B100041FA03FC10EB0C00C3F1200301FA03F19E
:103B200000F0004302D5494260EB4000B0F5000FC1
:103B300013D3B0F1807F06D340084FEA310102F180
:103B40000102FE2A51D2B1F1004F40EBC25008BF32
:103B500020F0010040EA03007047490040EB0000FC
:103B600010F4000FA2F10102EDD1B0FA80FCACF12B
:103B7000080CB2EB0C0200FA0CF0AABF00EBC2502A
:103B800052421843BCBFD0401843704792F0000F18
:103B900081F4000106BF80F400000132013BB5E76B
:103BA0004FEA41037FEA226C18BF7FEA236C21D0E1
:103BB00092EA030F04D092F0000F08BF0846704746
:103BC00090EA010F1CBF0020704712F07F4F04D114
:103BD000400028BF40F00040704712F100723CBF27
:103BE00000F50000704700F0004343F0FE4040F451
:103BF000000070477FEA226216BF08467FEA23630F
:103C00000146420206BF5FEA412390EA010F40F4F9
:103C1000800070474FF0000304E000BF10F0004345
:103C200048BF40425FEA000C08BF704743F096432C
:103C300001464FF000001CE050EA010208BF704747
:103C40004FF000030AE000BF50EA010208BF7047CE
:103C500011F0004302D5404261EB41015FEA010CE3
:103C600002BF84460146002043F0B64308BFA3F1DB
:103C70008053A3F50003BCFA8CF2083AA3EBC253BD
:103C800010DB01FA02FC634400FA02FCC2F12002DC
:103C9000BCF1004F20FA02F243EB020008BF20F013
:103CA0000100704702F1200201FA02FCC2F1200279
:103CB00050EA4C0021FA02F243EB020008BF20EA6E
:103CC000DC7070474FF0FF0C1CEAD0521EBF1CEA9C
:103CD000D15392EA0C0F93EA0C0F6FD01A4480EA8A
:103CE000010C400218BF5FEA41211ED04FF0006373
:103CF00043EA501043EA5111A0FB01310CF000409F
:103D0000B1F5000F3EBF490041EAD3715B0040EAC4
:103D1000010062F17F02FD2A1DD8B3F1004F40EB94
:103D2000C25008BF20F00100704790F0000F0CF067
:103D3000004C08BF49024CEA502040EA51207F3A2B
:103D4000C2BFD2F1FF0340EAC250704740F4000006
:103D50004FF00003013A5DDC12F1190FDCBF00F0F7
:103D600000407047C2F10002410021FA02F1C2F1A5
:103D7000200200FA02FC5FEA310040F1000053EA41
:103D80004C0308BF20EADC70704792F0000F00F08F
:103D9000004C02BF400010F4000F013AF9D040EA95
:103DA0000C0093F0000F01F0004C02BF490011F429
:103DB000000F013BF9D041EA0C018FE70CEAD15327
:103DC00092EA0C0F18BF93EA0C0F0AD030F0004CA7
:103DD00018BF31F0004CD8D180EA010000F000405B
:103DE000704790F0000F17BF90F0004F084691F019
:103DF000000F91F0004F14D092EA0C0F01D1420253
:103E00000FD193EA0C0F03D14B0218BF084608D11B
:103E100080EA010000F0004040F0FE4040F4000065
:103E2000704740F0FE4040F4400070474FF0FF0CF8
:103E30001CEAD0521EBF1CEAD15392EA0C0F93EA3F
:103E40000C0F69D0A2EB030280EA010C49024FEA91
:103E5000402037D04FF0805343EA111143EA10134A
:103E60000CF000408B4238BF5B0042F17D024FF402
:103E7000000C8B4224BF5B1A40EA0C00B3EB510FDD
:103E800024BFA3EB510340EA5C00B3EB910F24BFC6
:103E9000A3EB910340EA9C00B3EBD10F24BFA3EB4B
:103EA000D10340EADC001B0118BF5FEA1C1CE0D113
:103EB000FD2A3FF650AF8B4240EBC25008BF20F0C6
:103EC000010070470CF0004C4CEA50207F32C2BF1A
:103ED000D2F1FF0340EAC250704740F400004FF0B7
:103EE0000003013A37E792F0000F00F0004C02BFE8
:103EF000400010F4000F013AF9D040EA0C0093F0B2
:103F0000000F01F0004C02BF490011F4000F013B0B
:103F1000F9D041EA0C0195E70CEAD15392EA0C0F73
:103F200008D142027FF47DAF93EA0C0F7FF470AFAB
:103F3000084676E793EA0C0F04D14B023FF44CAFEE
:103F400008466EE730F0004C18BF31F0004CCAD183
:103F500030F000427FF45CAF31F000437FF43CAFBF
:103F60005FE700BF4FF0FF3C06E000BF4FF0010CE1
:103F700002E000BF4FF0010C4DF804CD4FEA4002C3
:103F80004FEA41037FEA226C18BF7FEA236C11D00D
:103F900001B052EA530C18BF90EA010F58BFB2EBC0
:103FA000030088BFC81738BF6FEAE17018BF40F040
:103FB000010070477FEA226C02D15FEA402C05D1F4
:103FC0007FEA236CE4D15FEA412CE1D05DF8040B79
:103FD000704700BF844608466146FFE70FB5FFF70C
:103FE000C9FF002848BF10F1000F0FBD4DF808EDC4
:103FF000FFF7F4FF0CBF012000205DF808FB00BFB5
:104000004DF808EDFFF7EAFF34BF012000205DF80E
:1040100008FB00BF4DF808EDFFF7E0FF94BF01205B
:1040200000205DF808FB00BF4DF808EDFFF7D2FF58
:1040300094BF012000205DF808FB00BF4DF808ED9B
:10404000FFF7C8FF34BF012000205DF808FB00BF68
:104050004FEA4002B2F1FE4F0FD34FF09E03B3EB95
:1040600012620DD94FEA002343F0004310F0004FD5
:1040700023FA02F018BF404270474FF0000070472B
:1040800012F1610F01D1420205D110F0004008BFCA
:104090006FF0004070474FF00000704742000ED2B2
:1040A000B2F1FE4F0BD34FF09E03B3EB126209D473
:1040B0004FEA002343F0004323FA02F070474FF029
:1040C0000000704712F1610F01D1420202D14FF09E
:1040D000FF3070474FF00000704700BF844641EA50
:1040E000000313F0030349D1403A23D30B68036064
:1040F0004B6843608B688360CB68C3600B69036166
:104100004B6943618B698361CB69C3610B6A03624D
:104110004B6A43628B6A8362CB6AC3620B6B036335
:104120004B6B43638B6B8363CB6BC363403040311A
:10413000403ADBD230320BD30B6803604B684360EC
:104140008B688360CB68C36010301031103AF3D2B3
:104150000C3205D351F8043B40F8043B043AF9D241
:10416000043208D0D2071CBF11F8013B00F8013B14
:1041700001D30B8803806046704700BF082A13D321
:104180008B07B1D010F00303AED0C3F10403D21AF1
:10419000DB071CBF11F8013B00F8013BA4D331F849
:1041A000023B20F8023B9FE7043AD9D3013A11F8C9
:1041B000013B00F8013BF9D20B7803704B78437058
:1041C0008B788370604670472DE9F041057890B098
:1041D00000350646344818BF01250AF0DDFC334B94
:1041E00000240593324BA54206930CBF234680233F
:1041F0000A934FF480730B934FF480630C934FF04A
:1042000020030CBF4FF001084FF002080D93264821
:104210004FF4005305A90E930794CDF8208009941C
:104220000F940AF031FD204801210AF058FD0127C2
:104230004FF460231F486946029300948DF80450A0
:104240008DF8057003948DF810800AF00BFC194866
:1042500004213A4603230AF056FC2DB11548317863
:10426000022203230AF04FFC124801210AF027FC26
:10427000104801210AF01AFC0E480AF029FC0D48EA
:104280000AF02BFC0028FAD10A480AF02AFC094857
:104290000AF02CFC0028FAD1064801210AF02AFC79
:1042A00010B0BDE8F08100BF080002404C2401407E
:1042B000D005002000240140024B33F8100080B2EA
:1042C000704700BFD00500202DE9FF41334B8046E9
:1042D0001B78002B3BD00024254626462746082283
:1042E0000DEB02035320322109F052FA9DF8092008
:1042F0009DF80830013403EB02231BB29DF80B201C
:104300001F449DF80A30E4B203EB02231BB21E44A3
:104310009DF80D209DF80C30202C03EB02231BB2DE
:104320001D449DF80F3003F07F0301D0002BD6D140
:104330001B4B97FBF4F796FBF4F695FBF4F5ADF801
:104340000070ADF80260ADF804501C701DE006224C
:1043500002AB5320322109F01BFA9DF809209DF889
:10436000083003EB0223ADF800309DF80B209DF8D8
:104370000A3003EB0223ADF802309DF80D209DF8C2
:104380000C3003EB0223ADF80430064B684641467F
:104390001A780AF0E7F904B0BDE8F081D4050020EE
:1043A000D505002000000020154B10B51B780446F1
:1043B0002D21532008227BB109F0E0F931210A2296
:1043C000532009F0DBF92C210C22532009F0D6F9F7
:1043D00053203821902209E009F0D0F931210A2236
:1043E000532009F0CBF953202C210A2209F0C6F9F9
:1043F000044B40F209121A800CB1034B1C7010BD23
:10440000D4050020460000200000002037B5114BE5
:104410000C461A68104B00219A4205468DF8071089
:1044200001D1002013E0532001220DF1070309F010
:10443000AFF90028F5D09DF80730E52BF1D12A78A7
:10444000064B01201A70064B2360064B636003B0D5
:1044500030BD00BF64010020001BB700D405002060
:10446000A9430008C94200081FB504466B46022153
:104470000622182009F08CF99DF800309DF80120E3
:104480009B0803EB0223ADF808309DF802309DF83D
:1044900003209B0803EB0223ADF80A309DF804309B
:1044A0009DF805209B0803EB0223ADF80C30044B6C
:1044B00002A821461A780AF055F904B010BD00BFD1
:1044C0000100002010B50F2108220446182009F031
:1044D00055F90E221820102109F050F9034B4FF422
:1044E00080521A800CB1024B1C7010BD4600002097
:1044F0000100002037B5002402AB054603F8014D4A
:1045000018202146012209F043F950B19DF80730E7
:10451000FB2B05D1044B01202B60044B6B6000E0AA
:10452000204603B030BD00BFC54400086944000800
:10453000324B2DE9F0411C88314B0A265A89B3F9D8
:104540001250A41A1A89ED025443B3F91420E4134B
:10455000224495FBF2F22244DA615643A2F57A62D4
:1045600002FB02F4B3F90480B3F902C0B3F90E7090
:1045700002FB0CFC02FB08F2B3F90C802413674326
:1045800004FB08F4241404EB62320232DC8892103B
:1045900002F50042B3F920506243B3F900304FEA0C
:1045A000EC2404EBE72404EB8304AC40154B023409
:1045B0001B68D20BA3EBA4044CF250332B41634392
:1045C00055BF5B00B3FBF2F3B3FBF2F35B001A12CF
:1045D000524340F6DE3462430B4C08365C432414ED
:1045E00004EB224202F6CF62361103EB221300B134
:1045F000036001B10E60BDE8F08100BF0606002037
:10460000DC0500200006002043E3FFFF114B07B547
:104610001B781BB9104B1A8801321A8001ABF621A6
:104620000322772009F0B4F89DF805209DF80430A6
:10463000120242EA03429DF806301A43074BB3F9CF
:104640002030C3F10803DA40054B1A6003B05DF86F
:1046500004FB00BFD6050020D8050020DC050020A3
:10466000000600200C4B07B51B781BB90B4B1A88B2
:1046700001321A8001ABF6210222772009F088F876
:104680009DF805309DF8042043EA0222044B1A806D
:1046900003B05DF804FB00BFD6050020D80500205C
:1046A00006060020064B002193F82020054B9201BE
:1046B000343219707720F42102F0FC0209F05EB860
:1046C000DC050020D6050020034B00221A7077205D
:1046D000F4212E2209F052B8D605002010B54FF46F
:1046E00080400AF059FB0128044605D14FF4804070
:1046F0000AF060FB014B1C7010BD00BFD605002006
:104700002DE9F0476B4B8CB01A686B4B05469A420B
:1047100000F0CA80DFF8C0A19AF80080B8F1000F5D
:1047200040F0C480654F4FF40059022610233846EC
:1047300002A94FF480448DF80B608DF80A30ADF873
:10474000089008F005FD0423384602A98DF80A30C8
:10475000ADF8084008F0FCFC0E213046C7F8109078
:1047600008F02FFD0126082304A804948DF81530C5
:104770008DF814808DF816600AF0D4FA28238DF88D
:104780000C3003A80F238DF80D308DF80E308DF806
:104790000F600AF033F9142009F08FF832460DF15A
:1047A00007037720D02108F0F3FF9DF80730444C31
:1047B0000322552BE375228418BFC7F8149073D1D8
:1047C000D12132460DF10703772008F0E1FF9DF873
:1047D0000730772003F00F021B092276637616223A
:1047E00006ABAA2108F0D4FF9DF818209DF81930D7
:1047F00043EA022323809DF81A209DF81B3043EAE8
:10480000022363809DF81C209DF81D3043EA02239B
:10481000A3809DF81E209DF81F3043EA0223E38009
:104820009DF820209DF8213043EA022323819DF842
:1048300022209DF8233043EA022363819DF824203F
:104840009DF8253043EA0223A3819DF826209DF898
:10485000273043EA0223E3819DF828209DF8293080
:1048600043EA022323829DF82A209DF82B3043EA55
:10487000022363829DF82C209DF82D3043EA022309
:10488000A38241F270738AF800602B8046F6781399
:104890006B800C4B6B600C4BAB600C4BEB600C4BB0
:1048A0002B610C4B6B6101E0002000E001200CB09B
:1048B000BDE8F08764010020001BB7000010014034
:1048C000DC050020C946000865460008A54600082A
:1048D0000D46000831450008040600202DE9F04F80
:1048E000504A514E1768738984463089A7EB0327D5
:1048F00085B0039187FB0001B288CB111404C20973
:10490000F08842EA416287FB000114EB02087288DA
:104910004FF000054FEAC2344FEA1022B08945EB50
:10492000030942EA01620B1287FB000114EB020A41
:104930004FEAD05242EA41224FF0000545EB030B0B
:1049400012F5FA604FEAE15343F10001CDE90001AD
:10495000B0F5FA6F71F1000147DAA2FB024502FBE4
:1049600003F1052605EB4105A4FB060106FB051135
:104970004D104FEA3004B8EB040869EB05098408D0
:104980002A4844EA81748D104FF0FF31BAEB040AD3
:104990006BEB050BDDE9004584428D4125DA40F6DD
:1049A000AC5012184FF0000143EB010302FB03F17E
:1049B000A2FB02236FF0060003EB4103544200FB0D
:1049C0000344A2FB000118EB000821444FF00B0444
:1049D00049EB0109A2FB040104FB031149104FEA52
:1049E0003000BAEB000A6BEB010B114B1A68A2FB0B
:1049F0000A0102FB0B11420D42EAC1224B15B2EB38
:104A0000080263EB0903D00B40EA4340BCF1000FFE
:104A100001D0CCF80000039808B10099016005B0FE
:104A2000BDE8F08F0C0600201006002024FAFFFFDE
:104A30000806002007B5002101AB0322772008F00B
:104A4000A7FE9DF805009DF80430000240EA0340EF
:104A50009DF80630184303B05DF804FB08B5FFF776
:104A6000E9FF014B186008BD0806002008B5FFF7F4
:104A7000E1FF014B186008BD0C060020772048219B
:104A8000012208F07BBE77205821012208F076BE73
:104A9000444BF7B51A68444B04469A420FD0434D35
:104AA00002234FF400568DF807302846102301A941
:104AB000ADF804608DF8063008F04AFB6E610A20FC
:104AC00008F0FBFE7720A02101220DF1030308F07E
:104AD0005FFE002863D01E210122772008F04EFEE1
:104AE0004FF42F6008F0DEFE0025A5F160010026DE
:104AF000022201AB7720C9B28DF804608DF8056001
:104B000008F046FE9DF804209DF8053043EA022394
:104B1000274AAB520235102DE7D1D789314607F02D
:104B20000F0507F47F47D7810123505A023100282F
:104B300018BF00231029F8D103BB194611F0010F4B
:104B40004FEA610004D012F810004340082004E04E
:104B500032F8100083EA1023F8E71E0448BF83F4FC
:104B6000C05301384FEA4303F7D101311029E5D191
:104B7000C3F303332F439D42D78101D000200EE0C1
:104B800042F21073238063800A4B012063600A4B5A
:104B9000A3600A4BE3600A4B23610A4B636103B0D5
:104BA000F0BD00BF64010020001BB70000100140F1
:104BB00010060020874A00086D4A00087D4A000858
:104BC0005D4A0008DD48000837B5002402AB054601
:104BD00003F8014D1E200A21012208F0D9FD50B131
:104BE0009DF80730482B03D125B1044B1D7001E01F
:104BF000204600E0012003B030BD00BF10000020BF
:104C000030B585B00622054603216B461E2008F00C
:104C1000BFFD9DF801309DF800001A4C43EA0020CA
:104C200000B2FEF7FBFF2168FFF74CF8FFF710FA20
:104C30009DF80330ADF808009DF8020043EA00201B
:104C400000B2FEF7EBFFA168FFF73CF8FFF700FAB0
:104C50009DF80530ADF80C009DF8040043EA0020F3
:104C600000B2FEF7DBFF6168FFF72CF8FFF7F0F901
:104C7000054BADF80A00294602A81A7809F072FD22
:104C800005B030BD04000020100000202DE9FF41D8
:104C9000634B644A1B6893420DD14FF48053ADF8C7
:104CA000043002238DF8073004238DF806305E4867
:104CB0000DEB030108E05D4A934207D104A94FF4CC
:104CC00080435B4821F80C3D08F042FA322008F09E
:104CD000F4FD002111221E2008F050FD0121602268
:104CE0001E2008F04BFD642008F0E7FD02A8FFF746
:104CF00087FF00240A2527462646022101221E207E
:104D000008F03CFD322008F0D8FD02A8FFF778FF3C
:104D1000BDF90820BDF90A10BDF90C3014449142C8
:104D2000B8BF0A461E449A42B8BF134613F5805FC7
:104D30000F4409DD3C4B013DDA6882F02002DA6065
:104D4000DBD14FF0010801E04FF000081E200021E8
:104D5000122208F013FD0A25022101221E2008F06C
:104D60000DFD322008F0A9FD02A8FFF749FFBDF9AB
:104D70000820BDF90A10BDF90C30A41A9142B8BF41
:104D80000A46F61A9A42B8BF134613F5805FC1EB84
:104D9000070707DD244B013DDA6882F02002DA6064
:104DA000DAD101E04FF000082046FEF737FF014658
:104DB0002048FFF73BF8204D20F00040286038469F
:104DC000FEF72CFF01461B48FFF730F820F00040AB
:104DD00068603046FEF722FF01461848FFF726F8C4
:104DE00020F00040A860002170221E2008F0C6FCC0
:104DF000012120221E2008F0C1FC1E2002210022D9
:104E000008F0BCFC642008F058FDB8F1000F04D194
:104E10004FF07E532B606B60AB6004B0BDE8F08157
:104E20006401002000127A00000C0140001BB70052
:104E30000010014000406F460400002001C05E46A3
:104E40001FB504466B46012106221C2008F0A0FC79
:104E50009DF801309DF800209DF8021043EA0222DF
:104E600042F38D02042392FBF3F2ADF808209DF883
:104E7000032002A842EA012242F38D0292FBF3F2E0
:104E80009DF80410ADF80A209DF8052042EA0122A1
:104E900042F38D0292FBF3F3ADF80C30034B214645
:104EA0001A7809F05FFC04B010BD00BF11000020AB
:104EB00037B52023ADF8043004230DEB03010224A1
:104EC00005461C488DF806308DF8074008F040F97B
:104ED0002A2100221C2008F051FC0E2122461C2011
:104EE00008F04CFC0F2103221C2008F047FC2B216A
:104EF00012221C2008F042FC2C2122461C2008F023
:104F00003DFC2D2101221C2008F038FC2E2100221E
:104F10001C2008F033FC05221C202A2108F02EFC5E
:104F2000054B4FF480721A800DB1044B1D7003B015
:104F300030BD00BF000801404600002011000020E5
:104F400013B500238DF807300F4B04461A680F4B3A
:104F50009A4201D1002015E01C200D2101220DF103
:104F6000070308F015FC0028F4D09DF807302A2B21
:104F700001D01A2BEED1064A01202260054A626058
:104F8000054A137002B010BD64010020001BB70079
:104F9000B14E0008414E00082006002013B5022241
:104FA000044601AB1B21682008F0F2FB9DF80420A9
:104FB0009DF8053043EA022303F54E534FF48C72FB
:104FC000103393FBF2F32333238002B010BD0000B3
:104FD0001FB504466B461D210622682008F0D8FB49
:104FE0009DF801309DF800209DF8021043EA02224E
:104FF00012B2042392FBF3F2ADF808209DF80320CF
:1050000002A842EA012212B292FBF3F29DF80410C8
:10501000ADF80A209DF8052042EA012212B292FB67
:10502000F3F3ADF80C30034B21461A7809F09AFBE4
:1050300004B010BD1300002010B50446192008F07C
:105040003CFC68201521002208F098FB10B90320D1
:1050500008F0C8FC0D4B16211A78682042F018029F
:1050600008F08CFB17210022682008F087FB3D2107
:105070000122682008F082FB68203E21012208F00E
:105080007DFB0CB1024B1C7010BD00BF1200002054
:105090001300002038B5054619200C4608F00DFC19
:1050A00068201521002208F069FB18B3124B622C0E
:1050B0002B60124B6B60124BAB60124BEB60124BD0
:1050C0000FD004D80A2C12D0142C0ED00BE0BC2C1C
:1050D00004D0B4F5807F06D1002209E001201870C9
:1050E00038BD022204E0032202E0042200E005228F
:1050F0001A70012038BD00BF39500008D14F000898
:105100009D4F00081844923112000020064B1A7877
:10511000064B12B14FF4FF6201E04FF480521A8047
:1051200008B1034B1870704721060020460000208C
:10513000140000201FB504466B4643210622682058
:1051400008F026FB9DF801309DF800209DF8021024
:1051500043EA022212B2042392FBF3F2ADF80820D4
:105160009DF8032002A842EA012212B292FBF3F258
:105170009DF80410ADF80A209DF8052042EA0122AE
:1051800012B292FBF3F3ADF80C30034B21461A78C0
:1051900009F0E8FA04B010BD160000201FB504465F
:1051A0006B463B210622682008F0F2FA9DF80020A9
:1051B0009DF8013002A843EA0223ADF808309DF8BB
:1051C00002209DF80330214643EA0223ADF80A305D
:1051D0009DF804209DF8053043EA0223ADF80C3019
:1051E000024B1A7809F0BEFA04B010BD140000207A
:1051F00013B54FF40053ADF8043002238DF8073097
:1052000004238DF806301D4B1D4A1B68044693424B
:1052100001D11C4803E01C4A934203D11B4801A959
:1052200007F096FF6B218022682008F0A7FA05207E
:1052300008F043FB19210022682008F09FFA6B2137
:105240000322682008F09AFA37210222682008F029
:1052500095FA0F4B1A211A78682008F08FFA1B2153
:105260001822682008F08AFA68201C21102208F011
:1052700085FA0CB1074B1C7002B010BD6401002010
:1052800000127A00000C0140001BB7000010014022
:1052900015000020160000202DE9F043814685B05E
:1052A00023200E461446984608F007FB6820752117
:1052B00001220DF1070308F06BFA00286FD09DF86A
:1052C0000770682F6AD1062102AB38460A4608F0FB
:1052D0005FFA9DF80B309DF80D5003F001035B0061
:1052E00005F0010543EA85059DF8093003F0010347
:1052F0001D4308D0012D01D12A4B1AE0022D0ED1F9
:105300000022284B13E00DF1070338460C2101223F
:1053100008F03EFA9DF8073013F00F0303D1052083
:1053200008F060FB06E0042B1E4B02D101221A702C
:1053300000E01D701C4BC9F800301C4BC9F804304C
:105340001B4B33601B4B73601B4BF360B8F1000FBA
:1053500003D0144B1B7888F80030142C174B15D051
:1053600004D8052C16D00A2C12D00DE0BC2C08D085
:10537000B4F5807F03D0622C06D102220BE000221C
:1053800009E0012018700AE0032204E0042202E090
:10539000052200E006221A70012000E0002005B07E
:1053A000BDE8F083210600200D5100089D51000842
:1053B000F1510008355100081844923115000020C1
:1053C0001FB504466B46A8210622682008F0E0F9C4
:1053D0009DF801309DF800209DF8021043EA02225A
:1053E00012B2042392FBF3F2ADF808209DF80320DB
:1053F00002A842EA012212B292FBF3F29DF80410D5
:10540000ADF80A209DF8052042EA012212B292FB73
:10541000F3F3ADF80C30034B21461A7809F0A2F9EA
:1054200004B010BD1700002010B50446642008F039
:1054300044FA68202321F02208F0A0F910B90320D3
:1054400008F0D0FA052008F038FA064B68201A78E0
:10545000202142F00F0208F091F90CB1024B1C70B0
:1054600010BD00BF220600201700002037B50546FA
:1054700019200C4608F021FA0DF1070368200F21CE
:10548000012208F085F99DF80730D32B15D10C4B7C
:105490004E2C2B600B4B6B600B4BEB600B4B06D019
:1054A0005D2C08D0362C14BF0022402200E0802260
:1054B0001A70012002E0C022FAE7002003B030BDDC
:1054C00029540008C1530008DDE9A7312206002055
:1054D000074BA1F57A7153F820304FF47A701A68AF
:1054E0009B884B4393FBF0F39BB21380704700BF44
:1054F00024070020024B53F820301B6819807047A6
:10550000240700202DE9F04FDFF81C81050158F831
:1055100005408E4687B008EB0507114620469246A7
:105520007246009300F00EFBB96807F10802ADF86F
:105530000810182178688DF80A104FF0020B02A9A4
:1055400001928DF80BB007F003FE019A02A81779BB
:105550000AF053F87022009B324EADF80820012269
:10556000ADF80A20ADF80E3000224FF4807306EB40
:105570000509ADF80C20ADF810B0ADF814300C2FC3
:105580002BD8DFE807F0072A2A2A102A2A2A192A04
:105590002A2A2200204602A909F028FF20460821D5
:1055A0000AF060F819E0204602A909F063FF2046DE
:1055B00008210AF05FF810E0204602A909F09EFFDA
:1055C000204608210AF060F807E0204602A909F009
:1055D000D7FF204608210AF05FF808EB05039B7B04
:1055E0001BB1204601210AF026F8204601210AF0CD
:1055F00016F80C2F10D8DFE807F0070F0F0F090F70
:105600000F0F0B0F0F0F0D00343404E0383402E09D
:105610003C3400E0403474514846A9F804A007B077
:10562000BDE8F08F38060020E82401081B4A1C481A
:10563000138810B51180C91A038089B240F68C23F3
:105640009942184B02D900221A7010BDA1F2EF2026
:1056500080B240F2DA52904218D81A78072A15D848
:105660001148032A20F81210104809D8104C248839
:105670008C4205D2012101FA02F201780A4302703C
:1056800002780F2A02D1094A002111701A780132DA
:105690001A70084B00221A8010BD00BF240600209B
:1056A0001A0700201C070020260600201D070020E6
:1056B00018000020700B00207FB5044601A80D469D
:1056C000164609F0A4FF0123ADF808302046002358
:1056D00001A9ADF80450ADF80660ADF80A30ADF898
:1056E0000C300AF013F804B070BD000038B5124B4E
:1056F00000010344DA79114C52B90122DA7119819F
:105700002318197B20580222BDE83840FFF7D4BF88
:105710001D8959810A4A491B9D7989B222F81510C1
:1057200000259981DD712318197B20582A46FFF73F
:10573000C3FF044B1D8038BD38060020E824010853
:1057400026060020700B00202DE9F743DFF8588073
:10575000050105EB0804A368124EADF804302E4491
:10576000282307468946B27160688DF8063001A982
:1057700002238DF8073007F0EBFC55F80800217B79
:105780000022FFF799FF20464FF6FF71012200F03B
:10579000FBF9204639464A4600F0B4F9304603B0DA
:1057A000BDE8F08338060020E8240108F8B5028A35
:1057B000474B04461A8083794278002B14BF02239A
:1057C000002302B10133434A002552F823707A5D69
:1057D000FF2A02F00F0002F0F00309D13E4A3F4BCE
:1057E0001A602289B2F5FA7F6FD93D4A1A606CE0DF
:1057F000A17819B1811EC9B2012962D9E17819B124
:10580000011FC9B203295CD9E17909B1814258D09D
:1058100012F0300F03D02278002A08BF002322792B
:105820003AB1A2792AB9A0F10802D2B2012A98BFEE
:105830008023627932B1A27922B9021FD2B2032A3F
:1058400098BF8023DE0607D500222649FFF77CFF9C
:10585000254B08221A7034E0990608D5224E2349B8
:105860003278FFF771FF33780133337029E05A063D
:1058700015D51F4A23891678B3F5FA7F06F1010E74
:1058800082F800E01B4A94BF012108214A43B2FB81
:10589000F3F292B2A389FFF735FE174B0FE01B0618
:1058A0000FD5164B01211E78721C1A706389114A9C
:1058B00092FBF3F292B2E389FFF724FE104B43F818
:1058C000260001350E2D82D188E70020F8BD00BFEB
:1058D00018000020C8240108F55400082007002003
:1058E000D15400082D56000818070020ED56000876
:1058F0001907002040420F00240700201E07002047
:105900005407002008B5044B1B78834202D9034B8F
:105910001B68984708BD00BF19070020200700201A
:10592000044B1B78834204D9034B53F820301B6887
:10593000198070471E07002054070020014B33F8E0
:105940001000704726060020F8B5134B04469B89CB
:105950000D461646EEB115B12F78013500E0FF2750
:105960000D48022109F082FC0028F9D00A48394686
:1059700009F077FC0848012109F078FC0028F9D0EB
:10598000054809F070FCC0B20CB120700134013E32
:10599000E0E70120F8BD00BF003800402DE9F047E6
:1059A0004FF4804088B0012109F0D2FB4FF48040D1
:1059B000012109F0E5FB344D18238DF802304FF436
:1059C0002043ADF800302846032369464FF0040811
:1059D0002E4F8DF8033007F0BBFB4FF48043284671
:1059E0006946ADF800304FF480564FF0100A8DF83C
:1059F000028007F0ADFB69462846ADF800608DF8DF
:105A000002A007F0A5FB384609F0CEFB4FF48273E5
:105A1000ADF80E304FF40073ADF8163007230024B4
:105A2000ADF81C304FF001090223384603A9ADF848
:105A30001230ADF80C40ADF81040ADF81A40ADF89A
:105A40001490ADF818A009F0E1FB3846494609F07A
:105A5000FCFB9F238DF804308DF805408DF806403F
:105A60008DF8074002A86E610DEB08014246FFF772
:105A70006BFF2E619DF80900B0F1EF0358425841C9
:105A800008B0BDE8F08700BF000C014000380040BE
:105A900070B500240D4EE5B256F8256001348642FB
:105AA000F8D1A800C0B20024094EE5B2765D0134F9
:105AB0008E42F9D12844C0B20F2805D8054C04EB1A
:105AC000001083600171027370BD00BFC82501081A
:105AD000D8250108901200200C2912D8DFE801F027
:105AE00007111111091111110B1111110D000221D2
:105AF00004E0042102E0082100E01021012209F065
:105B0000A8BD704738B504460D461346217B006892
:105B10002A46FFF7BDFF2068217BBDE83840FFF72C
:105B2000DBBF07B500238DF804008DF8053001A810
:105B300001238DF806308DF8073008F05FFF03B0C1
:105B40005DF804FB7FB5044601A816460D4609F032
:105B50004BFD0B4B013D5E430A4B20461B6801A9E0
:105B6000B3FBF6F6013E0023ADF80850ADF8046033
:105B7000ADF80A30ADF8063009F0EEFB04B070BDA8
:105B800040420F006801002010B504460068FFF78E
:105B9000D9FF2068012109F042FD607BBDE810407B
:105BA000FFF7BFBF10B500230A4CDAB254F8224009
:105BB00001338442F8D19200D0B20023064CDAB20D
:105BC000A45C01338C42F9D10244044BD0B203EB04
:105BD000001010BDC8250108D8250108901200202A
:105BE00038B50221044609F036FE012820460BD1C3
:105BF000022109F03BFE20460021FFF7D3FF0546B6
:105C0000204609F01BFE34E0042109F024FE01289F
:105C100020460BD1042109F029FE20460421FFF77C
:105C2000C1FF0546204609F00CFE22E0082109F0DC
:105C300012FE012820460BD1082109F017FE20464C
:105C40000821FFF7AFFF0546204609F0FDFD10E0F3
:105C5000102109F000FE012810D12046102109F082
:105C600005FE20460C21FFF79DFF0546204609F062
:105C7000EEFDAB6801460BB1287B984738BD0000AC
:105C80000148FFF7ADBF00BF002C01404FF080403E
:105C9000FFF7A6BF0148FFF7A3BF00BF0004004005
:105CA0000148FFF79DBF00BF00080040014B33F8DB
:105CB0002000704774070020034B0022DA6008B10F
:105CC000024B0360704700BF38180020AD5C00082D
:105CD000072802D1034B01221A70034B43F820100E
:105CE000704700BF9407002074070020034B18780A
:105CF00010B100221A700120704700BF94070020E5
:105D00001D481E49026800608A4200F01F80002181
:105D100000F004B81A4B5B584350043119481A4B31
:105D200042189A42FFF4F6AF184A00F003B8002375
:105D300042F8043B164B9A42FFF4F9AF08F050FDCD
:105D40000BF08AFD03F0C0FAFFF7FEBF114E1248B8
:105D500030601248016821F0706101604102016009
:105D60000F4C182020600F490F4808600F48D0F8EA
:105D700000D0406800470000F04F0020EFBEADDECD
:105D8000204B010800000020B4050020B4050020CD
:105D9000641E0020181002400900000004000140A9
:105DA000140C0140000C01404434434400F0FF1F38
:105DB000FFF7FEBFF8B5174C06462378274673B9A0
:105DC00007F06AFD144D2A683232904207D3012051
:105DD000207007F033FE07F05FFD2860F8BD3B78C8
:105DE000B3B107F059FD0C4C2368334498420FD3EC
:105DF000084B0020187007F021FE07F04DFD074BFF
:105E000020601A780AB1013A1A70054B01221A7003
:105E1000F8BD00BF960700209C070020EC0B002077
:105E20009807002073B5234D8DF807302B788DF837
:105E3000062002AA8DF804008DF805101A4412F805
:105E4000042C443AD2B20A2A2CD81B49022B31F82E
:105E5000124003D814B12046FFF7ACFF2B78022B79
:105E60000BD9164B1E6807F017FD001B864204D2A3
:105E7000104A00231370124A1370124B1A78012A29
:105E80001A4600D09CB92B78022B02D8094901335D
:105E90000B700D4B00201070187002B0BDE8704000
:105EA00007F0CCBD022B4FF03204D4D9D6E702B0B4
:105EB00070BD00BF95070020DC2501089C0700206D
:105EC000EC0B002098070020960700202DE9F041F8
:105ED0003F4F06467B7B3F4D03B101234FF40070DB
:105EE0002B7001F09FF93C4CF8B13C4B3C481B88AF
:105EF00090F8AE2019B202EB820E714513DDDFF887
:105F0000E8E09EF801E0BEF1000F0AD090F8AF0083
:105F10004FF0010E024402EB8202914284F800E04D
:105F200001DD0222227003B92370202001F05AF90A
:105F300060B1BA7A2B4B12B9254AD27A22B12A4AD9
:105F4000D27A0AB9012200E000221A702378022BCB
:105F500002D14C204E211DE0012B07D14D215320B1
:105F60004C220B46BDE8F041FFF75CBF1D4B1B7890
:105F7000012B03D1532001464E2205E02B78012B43
:105F800004D15320014602464D23EBE7042E03D1F2
:105F900053204D210A460AE0022E03D15320014628
:105FA0004D2204E0012E04D153204D214E224423E2
:105FB000D8E70E4B187820B13220BDE8F041FFF74A
:105FC000F9BE0B4B1870BDE8F04107F037BD00BFBC
:105FD000F21800209907002097070020700B00207E
:105FE000901300209A0700208E180020EC0B002050
:105FF0009607002070B50646B6FBF2F40846154633
:1060000014B12046FFF7F6FF05FB1464024B1B5D3D
:1060100000F8013B70BD00BF6C2701082DE9F0417D
:1060200002780346202A00F10100F9D0092AF7D0AE
:106030002D2A02D10346414D04E02B2A08BF034616
:106040004FF07E551E460024334616F8012BA2F170
:106050003007F9B209290DD839492046FDF732FE3B
:1060600004463846FDF7DAFD01462046FDF722FDDD
:106070000446E9E72E2A17D1314F334616F8010BB3
:106080003038C2B2092A0FD8FDF7C8FD3946FDF7EE
:10609000CDFE01462046FDF70DFD29490446384650
:1060A000FDF710FE0746E8E71A7802F0DF02452AFE
:1060B00038D15A782D2A02D10233012604E02B2A46
:1060C00014BF013302330026013B002713F8012FD0
:1060D000303AD1B2092903D80A2101FB0727F5E795
:1060E000B7F59A7F28BF4FF49A77B8464FF07E51A4
:1060F000B8F1070F07D908461249FDF7E3FDA8F1EB
:1061000008080146F4E707F0070737B108460C49CD
:10611000FDF7D8FD013F0146F7E72EB12046FDF718
:1061200085FE04E04FF07E512046FDF7CBFD014691
:106130002846FDF7C7FDBDE8F08100BF000080BF25
:106140000000204120BCBE4C10B5441E14F8011FB5
:1061500021B1034B186807F097FEF7E710BD00BFA9
:10616000381800200148FFF7EFBF00BF9127010852
:1061700010B50748FFF7E8FF0024064B06481A1938
:10618000E15852680C3408F0ADF9C02CF5D110BDBF
:10619000BF27010890260108D527010870B507F030
:1061A0007BFB274B4FF47A711A78264BB0FBF1F149
:1061B0001B78254808F096F901F02EF8234B054688
:1061C0001968234B2348B1FBF3F108F08BF9002445
:1061D000214AE3B252F8231049B1012202FA03F333
:1061E0002B4202D01D4808F07DF90134F0E702206F
:1061F00000F0F8FF98B11A4C1A4B22781A4853F85D
:10620000221008F06FF92378022B08D1174B184899
:106210001B7C002B0CBF6E216F2108F063F9154821
:10622000FFF792FF144B1C8807F00EFB2146024635
:106230004FF45F731148BDE8704008F053B900BFD8
:10624000DC18002044000020DD2701086801002040
:1062500040420F001B2801083C350108392801087D
:10626000E80C0020502701083D28010838180020BC
:1062700047280108FC2A01084C0C00204B28010883
:1062800038B50C68054620460BF056FC2146024600
:106290002868BDE838400BF07FBC000008B509480D
:1062A000FFF752FF0121002000F036FF0648FFF7FC
:1062B0004BFF0A2007F001FBBDE80840002007F073
:1062C000ADBB00BF7D280108872801087FB50446C3
:1062D0000BF032FC082824D100231F49E25C096836
:1062E0001144497801F00301022908BF203AE25421
:1062F0000133082BF1D10025665D184831460BF0BB
:1063000043FB28B10135601931460BF03DFB18B154
:106310001348FFF719FF1CE0082DEDD1204600F0CF
:106320005DFE1048FFF710FF00230F4A04A91A442E
:1063300092F808210A440949595C0133082B02F8F4
:106340000C1CF2D10023094801A98DF80C3008F08B
:10635000C9F804B070BD00BF840100207C3D010875
:1063600096280108B628010854140020D8270108EF
:1063700008B501F01DFBBDE8084001300CBF024824
:106380000248FFF7E1BE00BFCB280108F128010851
:106390002DE9F04105460BF0CFFB044601F0D2F8A1
:1063A00006468CB92948FFF7CFFE294B53F8241035
:1063B00041B10123A340334202D0264808F092F8AD
:1063C0000134F2E7244821E02846244922460BF014
:1063D000E3FB58B92248FFF7B7FE224C54F8041FDC
:1063E0000029EFD01B4808F07DF8F7E72B7800264E
:1063F0002D2B03BF013504F1FF344FF001084FF09E
:106400000008134B53F8267027B91748BDE8F04130
:10641000FFF79ABE2846394622460BF0BDFB98B9D5
:106420000120B040B8F1000F03D001F083F80F480D
:1064300002E000F001FF0E48FFF786FE39460D48E6
:10644000BDE8F04108F04EB80136DAE70F2901083F
:10645000F425010839280108FC2A010847330108FE
:1064600022290108F02501083729010851290108CE
:106470005B290108D827010810B504460848FFF732
:1064800063FE084A00231370074A1360074A13701B
:1064900003F076F82046BDE81040FFF7FFBE00BFCE
:1064A00064290108A0070020D0070020260E002044
:1064B00008B50848FFF748FE012000F0C5FE064871
:1064C000FFF742FE0A2007F0F8F9BDE80840002077
:1064D00007F0A4BA7C29010889280108F8B5074605
:1064E0000BF02AFB044638B91A4B1B485A791B4B50
:1064F000013A53F8221028E03846194922460BF099
:106500004BFB60B91748FFF71FFE174C54F8041FE8
:1065100019B1164807F0E6FFF8E7154805E0002531
:106520000E4B53F8256026B91248BDE8F840FFF736
:106530000BBE3846314622460BF02EFB01350028B3
:10654000EED1044B0C485D713146BDE8F84007F0D0
:10655000C9BF00BF54140020972901083426010840
:1065600047330108AB290108302601083928010802
:10657000FC2A0108BE290108D629010810B50446E5
:1065800020460BF0D9FA10F0FF0F07D10B4B0C4847
:1065900093F87813BDE8104007F0A4BF20460BF035
:1065A0002FF9022808D8054B064C83F87803002001
:1065B000014600F0B1FDE3E710BD00BF5414002018
:1065C000E82901080C2D010870B504460BF0B4FA57
:1065D00008B9204830E020461F490BF08BFD00240D
:1065E0002646254678B12CB1012C06D10BF008F9CE
:1065F000064602E00BF004F9054617490020013475
:106600000BF078FDEEE70B2D05D9BDE8704013487F
:106610000C2107F067BF012C08DC114B294633F928
:1066200015201048BDE8704007F05CBFA6F57A73EE
:10663000B3F57A7F04D90C48BDE8704007F052BF2B
:106640000A482946324607F04DFF054B23F81560EE
:1066500070BD00BFFE290108D62C0108382A0108A8
:10666000641800205E2A0108762A0108982A010889
:1066700038B505460BF060FAC0B260B90446114B5C
:10668000214603EB44031048DA8F013407F02AFF58
:10669000152CF4D138BD28460BF0B2F81428044666
:1066A0000ADC202128460BF06FF90BF0A9F8054B06
:1066B00003EB4404E08738BD04481521BDE83840A9
:1066C00007F010BF90130020B12A0108BD2A01086D
:1066D000931E232B28BF0A22031E10B50C4603DA93
:1066E0002D2001F8010B5842FFF784FC00230370B2
:1066F000204610BD30B587B005460C4603A80021E2
:106700000C220BF0D1F828460021FDF797FC20B1B0
:1067100028462949FDF7CEF903E028462649FDF72A
:10672000C7F92649FDF7CEFAFDF792FC054685EA42
:10673000E570A0EBE57069460A22FFF7C9FF002D5E
:10674000ACBF20232D2368468DF80C300BF0F4F9F4
:10675000012807D130238DF80D308DF80E308DF8DB
:106760000F300CE0022805D130238DF80D308DF864
:106770000E3004E0032804BF30238DF80D30694645
:1067800003A80BF0DBF803A80BF0D6F90338C5B269
:106790002A4603A920460BF027FA0023635520461A
:1067A00007490BF0CBF803A9204629440BF0C6F8A3
:1067B000204607B030BD00BF6F12033A00007A4494
:1067C0009428010837B5037904460D46052B34D8C3
:1067D000DFE803F003060A0D1114836819782DE031
:1067E000836893F9001029E08368198826E083689C
:1067F000B3F9001022E0836819681FE083686946D6
:106800001868FFF777FF0146124807F06BFEF5B1F5
:10681000E068FDF703FA6946FFF76CFF01460E4892
:1068200007F060FE2069FDF7F9F96946FFF762FF9E
:106830000146094807F056FE09E00021074807F025
:1068400051FE25B10648E168226907F04BFE03B00E
:1068500030BD00BF4428010843280108E72A010889
:10686000E32A01082DE9F04707460BF065F94C4D86
:10687000064620B1012817D13B782A2B14D149486C
:10688000FFF762FC00242959474807F02BFE28191E
:106890003146FFF797FF14344448FFF755FCB4F531
:1068A000026FF0D1BDE8F08738463D210BF06CF85F
:1068B00000285BD0441C20460AF0A2FF82462046F6
:1068C000FFF7ACFB002406464FF0140909FB04F95E
:1068D00055F8098040460BF02FF9414602463846EC
:1068E0000BF05AF9002839D12D4F4F44F868FDF7C5
:1068F00095F901463046FDF797FB00282CD0386902
:10690000FDF78CF901463046FDF784FB20B33B7957
:10691000052B4FF0140303FB0454227918BF56468D
:10692000052A0FD8DFE802F003030606090CA26867
:10693000167007E0A268168004E0A268166001E005
:10694000A3681E6041461A4807F0CCFD204600218E
:10695000BDE8F047FFF736BF164803E00134682C66
:10696000B2D11548BDE8F047FFF7EEBB04462E59FB
:10697000394630460BF0BEFA58B10B48314607F0A5
:10698000B1FD074800212044FFF71CFF074807F02E
:10699000A9FD1434B4F5026FE9D1BDE8F08700BF5A
:1069A0005C350108EA2A0108C92B0108FC2A010804
:1069B000FF2A01080A2B01082F2B01082DE9FF47A8
:1069C000574C584807F08EFD5748FFF751FE627943
:1069D000564B013A53F82210554807F083FD2069C1
:1069E0000021FDF703FB274600285AD105462669FA
:1069F00000213046FDF7FAFA00284ED101354D4806
:106A00002946D4F814A0D4F81890D4F81C8007F0C4
:106A100069FD30460021FDF7F3FA10B1464807F052
:106A200061FD69463046FFF765FE0146434807F0C1
:106A300059FD50460021FDF7E3FA10B13E4807F03A
:106A400051FD69465046FFF755FE01463B4807F0A9
:106A500049FD48460021FDF7D3FA10B1364807F04A
:106A600041FD69464846FFF745FE0146334807F0B9
:106A700039FD40460021FDF7C3FA10B12E4807F05A
:106A800031FD69464046FFF735FE01462C4807F0C8
:106A900029FD0C2D04F11004A9D12A48691C07F026
:106AA00021FD00F04FFD284C054654F8041F19B194
:106AB000264807F017FDF8E70C46254B53F824103D
:106AC00041B10123A3402B4202D0224807F00AFD26
:106AD0000134F2E7CB1993F8083104AA13441E4A93
:106AE0008A5C0131082903F8102CF3D100241B48DB
:106AF00069468DF8084007F0F5FC194D19486159B1
:106B000007F0F0FC28190021FFF75CFE143416484A
:106B1000FFF71AFBB4F5026FEFD104B0BDE8F087C0
:106B2000541400204C2B01080C2D010834260108B8
:106B30007C2B0108872B0108D62C0108442801086A
:106B4000D82701088F2B0108F0250108A12B010887
:106B5000F4250108AF2B01087C3D0108BC2B01087E
:106B60005C350108C52B0108FC2A01082DE9F0431A
:106B700089B004460AF0E0FFC6B2002E6CD17A4814
:106B8000FFF7E2FA794C20690021FDF72FFA40BBAC
:106B900001367748314607F0A5FC206904A9FFF7C4
:106BA000A9FD0146734807F09DFC606904A9FFF741
:106BB000A1FD01466F4807F095FCA06904A9FFF705
:106BC00099FD01466B4807F08DFCE06904A9FFF7C9
:106BD00091FD0146684807F085FC0C2E04F1100475
:106BE000D1D10025654C2F462B464FF00008B0450B
:106BF00004F1100415DA184654F8101CFCF75AFF7B
:106C000054F80C1C81462846FCF754FF54F8081C25
:106C100005463846FCF74EFF08F101084B4607468B
:106C2000E5E75748019302950397FFF78DFA002493
:106C300001ABE058534920F00040FDF7FFF9524BFB
:106C4000524A0434002814BF10461846FFF77CFA55
:106C50000C2CEDD14E4870E020464E4905220AF03A
:106C60009BFF38B9414B002203441030C0281A6101
:106C7000F8D176E02046484904220AF08DFF054607
:106C8000204605BB20210AF07FFE002869D0461C63
:106C900030460AF051FF2C460746404B53F824502B
:106CA0000DB93F4849E030462946FAB20AF074FF70
:106CB00038B9204602F006FD3A48294607F012FC92
:106CC00047E00134E9E70AF09BFD461E0B2E07461C
:106CD00043DC204620210AF057FE054640B1451C02
:106CE0002846FFF79BF9214B3F01D851012400E0D2
:106CF0000446284620210AF047FE054640B1451CBF
:106D00002846FFF78BF9194B013403EB0613586142
:106D1000284620210AF038FE054640B1451C284689
:106D2000FFF77CF9114B013403EB061398612846F9
:106D300020210AF029FE18B91B48FFF705FA10E0D8
:106D40000130FFF76BF9094B032C03EB0616F061DA
:106D5000F2D11648FFF70AFF03E015480C2107F0AF
:106D6000C1FB09B0BDE8F083D72B01085414002003
:106D7000022C0108082C0108D827010868140020FB
:106D80000C2C01080AD7233CD32B0108CF2B010878
:106D9000FC2A01081B2C0108212C010834260108BB
:106DA000BE290108262C0108392C01080C2D0108E8
:106DB000732C01082DE9F047694B86B01A78984684
:106DC00042B90123674888F80030FFF7BDF96648EB
:106DD000FFF7BAF9654D286806F041FEA94600287C
:106DE00000F0BA80286806F03FFE09280146604C92
:106DF00001D03F2852D10027D4F800A05D4E3D4677
:106E0000BAF1000F05D05C48316852460AF0C4FE62
:106E100010B9374605B93546584B0C369E42EFD36C
:106E2000C5B1D5F800E0D7F800C053461EF803609E
:106E30001CF80300B0420CD15A1C4F4930B92D2B1D
:106E400004D82026CE542260885403E0CE54134642
:106E5000ECE7236023681BB1BD4201D1554612E027
:106E60004748FFF771F9BD4209D855F80C0BFFF7F9
:106E70006BF9D9F80000092107F006F8F3E73A4862
:106E8000FFF762F9002523689D42A3D23A4BD9F857
:106E90000000595D06F0F8FF0135F4E723682BB9CF
:106EA000042836D13448FFF7E7FA55E00C2801D121
:106EB00034488AE70A2901D00D2944D13248FFF726
:106EC00043F92D4D22680023AB5404932F4B03A8A4
:106ED0000093284910220C2303950AF095FC0646DE
:106EE00038B100680AF028FE0130B368284498479A
:106EF00002E02748FFF728F91F48002130220AF056
:106F0000D3FC0023236098F80030002B7FF45FAFA0
:106F100022E00C28CCD07F2903D15BE72F2B3FF652
:106F200059AFA1F12002D2B25E2A3FF653AF13B996
:106F300020293FF44FAF5A1C22600F4A2868D154D1
:106F400006F0A2FF46E77F29E8D10B4A013B00216A
:106F50002360D1540F483BE706B0BDE8F08700BF7F
:106F6000260E00209B2C0108D32C01083818002085
:106F7000D007002090260108A00700205027010814
:106F8000D82C0108DD2C0108FC2A010881620008C8
:106F9000E82C0108092D01080E4B1A783A2A16D15F
:106FA0005A88B2F55F7F12D11A79BE2A0FD193F8B1
:106FB00079230020EF2A0CD113F8012B5040064A08
:106FC0009342F9D1D0F1010038BF00207047002072
:106FD0007047704700F801087CFB010870B5054652
:106FE000441E14F8011F61B1064E30460AF0CCFC75
:106FF0000028F6D0861B0448631B304480F8083113
:10700000EFE770BD7C3D0108541400202DE9F047E6
:10701000FFF7C2FF10B90A2006F0E4FC394C3A49E8
:107020004FF45F722046FDF759F894F87833C42284
:10703000022B84BF002384F8783394F87813334DFF
:1070400002FB0141284601F59671FDF747F895F8D6
:107050002060E87F002303FB03F11939714301F637
:10706000C4115943414340F6C41291FBF2F1284A3E
:1070700022F813100133072BEDD195F8213095F844
:107080002270B4F8D060B4F8D290C3F1640803EB76
:10709000830E58425FFA88F84FEA4E0EC7F1640C2F
:1070A000C6EB090980B2002284B221B2002904DCB7
:1070B000002C14BF1C46012400E0444601FB01FAE9
:1070C00064430AFB07FA9AFBF4F464444C434FF020
:1070D0000A0A94FBFAF4744424B204FB09F44FF452
:1070E0007A7194FBF1F40B49344454520232504407
:1070F000182A80B2D8D1287803F062FBBDE8F047A7
:1071000000F0CCBB5414002000F8010890130020BC
:1071100076190020A6180020F8B52E4B3A221A70D6
:107120004FF45F725A80BE221A71EF2283F87923DE
:107130000022074683F87A231E4649B193F8780364
:10714000C42202FB0030244900F59670FCF7C6FF0C
:1071500000221346B15C0132B2F55F7F83EA01037E
:10716000F8D11C4A002582F87A3307F029FE342032
:1071700007F03AFE194807F063FE042815D1174CB2
:10718000331903F17843A3F5FC332046196807F05F
:1071900075FE042805D0013507F01EFE032DE4D14D
:1071A00003E00F4B04349C42EAD107F015FE032D97
:1071B00002D0FFF7F1FE10B90A2006F013FCFFF72A
:1071C00025FF37B10F2014210122BDE8F84003F05C
:1071D00031B8F8BD541400209013002000F80108C5
:1071E0007CFB0108034B1B6818420CBF00200120E8
:1071F000704700BFD4070020024B1A681043186084
:10720000704700BFD4070020024B1A6822EA000032
:1072100018607047D4070020014B1868704700BF02
:10722000D4070020034B9B6818420CBF00200120AC
:10723000704700BF54140020024B9A6810439860B6
:10724000704700BF541400202DE9F7430446FFF7B0
:10725000A3FE10B1002C00F05C81AF4AAF4D106866
:107260005168AF4C6B4603C34FF45F720021284650
:107270000AF01AFB0021C42220460AF015FB3A232B
:107280002B70082003236B71FFF7D6FF1020FFF748
:10729000D3FF4FF41673A5F8F030FA23A5F8F230B7
:1072A0002A23A5F8EE304FF4FA73A5F8F630202320
:1072B00085F8F4306E2385F804312B2385F80531E9
:1072C000212385F8063140F2DC53A5F8123140F253
:1072D0004C43A5F8143140F26C73A5F8163140F216
:1072E0007E43A5F8D03040F23A7300264FF00108F3
:1072F00004214FF47A72A5F8D23040F27E5385F81B
:107300001011A5F8D42085F87863A5F8F860A5F8E1
:10731000FA60A5F8FC6085F8E26085F8E36085F81E
:10732000E460A5F8E660A5F8E860A5F8EA6085F8ED
:10733000ED6085F8EC8085F8076185F8296185F8AE
:107340002A6185F8186185F8196185F81A81A5F810
:10735000D630A5F8DE204FF4E132C5F820214FF4F5
:1073600096421E20C5F8242140F6AC5240F2EA5362
:10737000AA81E072172220730B20A5F8D83062751D
:1073800040F2B453A2756071552214204FF0080EDC
:107390002827A5F8DA30E27032232D22A07184F874
:1073A00010E060744FF00E0E5020A5F8DC30A5F808
:1073B000E03062732371A27684F807E085F81C61DF
:1073C00085F81D6185F8286185F81B612670677056
:1073D000A770E675A6732676E6736676E07684F87F
:1073E0002130152384F82F304E4B5A2023634E4B07
:1073F0004FF0640E63634D4B20724FF00A0984F81E
:107400001CE022754FF0780EE07741224848A363D4
:1074100084F81290677284F80AE084F81E8084F879
:10742000202084F8236084F8246084F8256084F8A0
:10743000226026856685E68484F82C1084F82D70F9
:1074400084F82E7084F83C80FFF7C8FDC82384F8C8
:10745000AF304FF49663A4F8B03040F2D933A4F8BB
:10746000B23084F8686084F8696084F86A7084F8DF
:107470006B8084F86C6084F8AE9023464FF47F7282
:10748000A4F86E204FF4FA62A4F8702040F2DC52A7
:10749000A4F872201DF806200136082E84F8742006
:1074A00004F10804EAD1012283F8B42083F8B5205E
:1074B00083F8B620C82183F8BC206422A3F8B81052
:1074C000A3F8BE2014214FF4967283F8BA10A3F8E3
:1074D000C0201E21282283F8BB10A3F8C22000235D
:1074E000EA1810330021C02B1161F9D100242819AA
:1074F00000F596700A49C422C434FCF7EFFDB4F5D8
:10750000137FF4D10020014603B0BDE8F043FFF73C
:1075100003BE03B0BDE8F0838824010854140020A2
:10752000901300209A99193FF6287C3F3D0A773F37
:10753000853D0108024B9A6822EA00009860704776
:1075400054140020014B9868704700BF5414002069
:1075500010B5044C00232070236106F09DF9606192
:1075600010BD00BFD417002010B5FCF757FB002159
:107570000446FCF763FD08B1204601E004F1004039
:107580000549FCF753FC0549FCF79CFB08F0F4F9AE
:10759000034B186010BD00BF8096184B35FA8E3C27
:1075A0001C000020F8B5101A0C461F46FCF736FBED
:1075B0000546381BFCF732FB174B079E1968FCF792
:1075C00081FB294604462846FCF77CFB21460746FA
:1075D0002046FCF777FB01463846FCF76BFA08F0CB
:1075E00007FC0E49FCF76EFBFCF758FD069B214695
:1075F000186005F1004008F071FA0949FCF762FBD8
:107600000849FCF757FAFCF723FD0028BCBF00F53A
:107610000C40A0303060F8BD1C0000202C7D8E3F57
:10762000A00CB34500A00C46F8B51D4614460E4606
:10763000FCF7F4FA6968FCF745FB3146FCF742FBBE
:107640002168FCF737FA2060FCF702FDED68074679
:1076500005F10040FCF7FCFC06462846FCF7F8FC68
:1076600031460246384606F05BFFFCF7D7FA206049
:10767000FCF7EEFCF8BD000030B5044600200346E0
:107680000B4AD15C154691B12E2904D1013374B156
:107690001D4400212955D25C0A214843A2F1300142
:1076A000C9B209299CBF303880180133E8E730BDE2
:1076B000580800202DE9F0412D4B2E4C93F81C3139
:1076C00013B1012B0AD04EE063780C2253432A4AAF
:1076D00050682A4AD15806F0CCF941E0264D686836
:1076E00006F0CCF92E4600283DD02378012B20D17E
:1076F00006F0D2F863690646C31A632B35D92369AD
:10770000042B14D84FF00C0808FB03F31B4F6868D8
:10771000F95806F0AEF96378686808FB0377796872
:1077200006F092F923696661013323611BE00220B0
:1077300017E023693BB963780C2253430F4A68680A
:10774000D15806F096F923690A4D8B2B08D80C4ABC
:107750007068D15C06F073F92B6901332B6102E08C
:107760000320FFF7F5FE00236360BDE8F08100BF52
:1077700054140020D417002038180020F43E0108CB
:10778000683E010810B51A4C2378013B032B2ED814
:10779000DFE803F002021D06BDE81040FFF78ABFD4
:1077A000636805220133636063780133DBB2B3FBA6
:1077B000F2F202EB82029B1A637006F06DF80D4A3A
:1077C000002313700C4AA060D37201200BE006F076
:1077D00063F8A36840F6C412C01A904207D920206B
:1077E000FFF712FD0420BDE81040FFF7B1BE10BD49
:1077F000D4170020361900208E18002010B50B4C2D
:10780000E37A8BB10A4B1B78042B0DD9094A0A4B3A
:107810001068526818605A60FFF7A6FE074B1A8876
:10782000074B1A800123237310BD00BF8E18002060
:107830003619002018190020E8180020C01900206F
:10784000AA08002010B500231A460E490020505205
:107850000D490E4C50520E495052002119511C44F2
:107860006060A1600B4C023219511C446060A16041
:10787000094C042A19511C446060A16003F11403EF
:10788000E3D110BD480C0020A21800206808002099
:10789000BE1800200C080020E408002070B5204C21
:1078A000204D6079FCF7B6F91F49FCF7BFFA286054
:1078B000E07BFCF7AFF91C49FCF7B8FA1B4E686097
:1078C000EE60A079FCF7A6F91949FCF7AFFA194D5B
:1078D0002860207CFCF79EF91349FCF7A7FA686042
:1078E000A07EFCF797F91449FCF7A0FAEE60A860B7
:1078F000E079FCF78FF90E49FCF798FA0F4D2860F4
:10790000607CFCF787F90849FCF790FA6860E07E34
:10791000FCF780F90849FCF789FAEE60A86070BDB1
:1079200090130020940800200000C8420000FA4490
:1079300000002041C008002000007A4448080020D0
:1079400038B505460020FFF703FE4FF48070FFF7BF
:1079500069FCF8B1104C657005F09EFF0023636070
:107960000E4BA06093F81C31002B0CBF01240324A4
:10797000FFF794FF0C235D43094B0A485A590A4903
:10798000234606F03FFB094B58600120BDE8384014
:10799000FFF7DEBD38BD00BFD4170020541400200F
:1079A000F43E010800440040817B000838180020A4
:1079B0002DE9F0411A4B1B78032B2DD1194C0022D5
:1079C0006368DA62184B10221A6120221A6160681B
:1079D000144F06F044F860B1134D10266E617868BC
:1079E000D7F8008006F040F80146404606F027F838
:1079F0002E6120680B4F06F032F80028E7D00A4DC0
:107A0000202697E801016E6106F02EF801464046F7
:107A100006F015F82E61DAE74FF0FF30BDE8F0818F
:107A2000D417002038180020000C0140F7B5036877
:107A3000174C184D23600B68174E63600068FFF702
:107A400093FD95E80300154B0196009394E80C0014
:107A5000FFF7A8FD3668124B60681E606B68114F17
:107A6000C01AFCF7DBF8104B1968FCF72BF9FCF790
:107A7000EFFA22682B687860D31A3B600B4B1E60CC
:107A80000B4BB3F8BE200B4B1A8003B0F0BD00BF08
:107A9000B0080020181900200C0900201809002047
:107AA000AC0800203C0900201C0000201C0900201C
:107AB000901300203809002044F25063984203DDFF
:107AC000A0F50C40A0387047034B9842BCBF00F5AE
:107AD0000C40A030704700BFB0B9FFFF244BF0B599
:107AE0001D680646347831462B195A78013602F063
:107AF000040202F0FF03002AF4D10A1A022A0ADD66
:107B00001BB103EB83035B00DBB210F8012B303AAF
:107B10001344DBB2F1E7002281420AD91AB102EB29
:107B200082025200D2B210F8016B303E3244D2B21F
:107B3000F2E72E2C0FD14C1C042000210A267143A1
:107B40002678AF197F787F0702D530390134314468
:107B50000138F3D100E0002106484243642000FBD5
:107B600001210620B1FBF0F1034800FB0310F0BD3A
:107B70008401002040420F00809698000000000021
:107B80002DE9F04F9B4B8FB093F81C31C4B2012B01
:107B900000F0D58002D3022B40F0AD85242C07D114
:107BA000954A00231370954A1370954A1370C2E0EA
:107BB0002C2C02D02A2C40F08180904F8E4E914B7D
:107BC0003A783578002098548F491A46B5B91B7811
:107BD0000D70472B68D15378502B65D19378472B84
:107BE00040F07885D378472B40F074851379412B8A
:107BF00040F0708501230B7000F06CBD0A78012AFB
:107C00003AD1022D05D11846FFF768FF7F4B186067
:107C10004AE0032D07D11B78532B45D17B4B1A68C3
:107C200052421A6040E0042D05D11846FFF756FF76
:107C3000764B586038E0052D07D11B78572B33D190
:107C4000724B5A6852425A602EE0062D07D11A78BC
:107C50006F4B302A94BF00220122DA7224E0072DF4
:107C600004D1FFF709FD6B4B18701DE0092D1BD1E6
:107C7000FFF702FD684B16E0022A15D1072D0CD143
:107C80000120FFF7F9FC41F2184358434FF47A7290
:107C9000B0FBF2F3614A138006E0082D04D1012005
:107CA000FFF7EAFC5E4B1880013500232A2C357063
:107CB0003B7037D15B4B01221A703CE00D2C594BC5
:107CC00001D00A2C24D11A78F2B14E480178A1F1E2
:107CD0003002D2B2092A84BFA1F13702D2B2417870
:107CE00002F00F021401A1F13002D2B2092A84BFBE
:107CF000A1F13702D2B2424902F00F0222440978C0
:107D0000D2B28C1A62426241002119707AB912E033
:107D10003A490A780E2A03D8501C087039498C5405
:107D20001B7843B9364B1A7854401C7003E0364B2D
:107D30001B78012B00D0002303F0010357E13A4BDD
:107D400000221978082900F25181DFE801F00A05C4
:107D5000111927357B949F00622C01D1022205E086
:107D60001A70B52C40F042811A7801321A703DE148
:107D700003221A702D4B1C702D4B1C702D4B0BE0E9
:107D80002B4904221A702B4B0A7818782244D2B25D
:107D90000A7002441A70284B1C7027E124490522FE
:107DA0001A70244B0A7818782244D2B20A7002441E
:107DB0001A70224B1C8019E11D4906221A701D4BB6
:107DC0000A7818782244D2B20A7002441A701B4B07
:107DD0001A8802EB0424A4B2B4F5007F01D81C80F9
:107DE00003E000221A80104B1A70154A00231380FA
:107DF000FDE000BF54140020A6080020B8080020B1
:107E00003A09002058080020000800201819002016
:107E10008E18002036190020A0180020C21800205B
:107E20008C0B002022090020E008002020090020FF
:107E3000A4080020A508002008080020A8080020A9
:107E4000900800205448554A017815782144C9B259
:107E500001702944117052490A88C72A9CBF5148B1
:107E60008454013292B20A804F490988914240F00D
:107E7000BD8007227AE708221A70474B1B78A3427D
:107E800000F0B480494A00231370B0E01A70434BED
:107E90001B78A34240F0AA80454B1B78062B39D0B3
:107EA00004D8022B12D0032B24D09FE0122B44D0F5
:107EB000302B40F09B803B4B1A793E4B102A88BFF9
:107EC00010221A701978374A002344E0354B3A4A99
:107ED00059685160996811601A694FF47A7392FB7E
:107EE000F3F2364B1A80364B1A78364BDA7201228F
:107EF000354B20E02B4A537913F0010303D013795B
:107F0000D81E434243412E4A1370002B38D12D4ACC
:107F1000D37235E0234AD37A13F0010303D0937A66
:107F2000D91E4B424B4126490B700BB92549CB72E8
:107F300092F82F20254B1A7022E01A4B24495A69D7
:107F40000A809A6942F2107392FBF3F2214B1A8075
:107F50000122214BEFE78B4202F10C0210DA12F8FA
:107F6000044C1E481C5412F8034C1D481C5412F8B3
:107F7000014C1C481C5414781B481C540133EAE77C
:107F800011490B7893B3144B1A787AB300221A7004
:107F90000A7001232BE000BFA4080020A5080020E0
:107FA0009008002048090020A8080020E0080020D0
:107FB000080800203719002018190020A0180020F8
:107FC0002C0900208E180020A70800203619002058
:107FD000C21800208C0B0020210900207C180020F2
:107FE0000719002020190020641900200023002B0D
:107FF00000F081838C4CA368E36005F04DFCA06029
:108000002020FFF7F9F8894B894C1A78012A0CBF18
:10801000002201221A70E37A002B00F06C83854B5A
:108020001B78042B40F26783637803B92373227BA8
:1080300012B90BB1FFF7E2FB7F4B4FF0050E1A7838
:108040007E4D013292FBFEFE0EEB8E0ECEEB020E4B
:1080500083F800E07A4B1B7804937A4B03EB8E0E87
:108060000023794A79499858DFF82482784E58508D
:1080700090FBF8F19951774EDFF8189206FB01005A
:1080800003EB830A5EF80A7053F8096042F2107C31
:10809000F61B90FBFCFC4EF80A003044052643F822
:1080A000090090FBF6F008FB0101049F6A481FFAE3
:1080B0008CFC012F03EB020B25F802CF195016465A
:1080C00008D1ACF1020C1FFA8CFCBCF5797F98BF8B
:1080D000CBF800100433082BC3D105F0DDFB5F4D56
:1080E0005F4F2B68C01AFBF795FD5E49FBF79EFEBC
:1080F000386005F0D1FB28603D684FF07E5128467E
:10810000FBF77EFF08B94FF07E550AAA3D60564B3B
:1081100000920BAA019296E803000CCBFFF742FAFB
:108120000A9A64235149B2FBF3F20B980A80504A31
:1081300090FBF3F31380237B0BB90B8013804D4B23
:108140004D4D1A789946002A36D039684FF07E5046
:10815000FBF76CFE2B6880463068C01AFBF75EFDAB
:108160004146FBF7AFFDFBF773FF6B681FFA80FA20
:1081700070680FFA8AFAC01AFBF750FD3F4B196876
:10818000FBF7A0FD4146FBF79DFDFBF761FF3C4B74
:1081900000B2B3F902204FF0020C8118B3F90020AD
:1081A0003848524491FBFCF192FBFCF289B292B246
:1081B0004180028059801A80012389F8003071685B
:1081C0003068237A6960286023B9194BDB79002B6A
:1081D00000F09182DFF8C0802B4D2C4C0095CDF83B
:1081E000048094E80C00FFF7DDF973686068DFF83D
:1081F000AC90C01AFBF712FD204B1968FBF762FD2B
:10820000FBF726FF22683368C9F80400D31AC9F8BF
:1082100000300B4BC14693F90030012B40D0022BAC
:1082200000F0EE8067E200BFD4170020DC0B0020D6
:108230008E1800203619002044090020B8080020BC
:10824000910B0020D80700201819002024090020D5
:10825000D4080020806967FF380800200408002047
:10826000D008002000007A44E8180020E61800201A
:10827000F0180020BE080020300900201C0000205B
:1082800042080020DC08002018090020B008002067
:1082900080969800100900200C0900203C0900205D
:1082A000874F0026DFF85C92DFF854A259F8168059
:1082B000844C4046FBF7B2FC834B844D1968FBF7B6
:1082C00001FDFBF7C5FE36F80A30814AC01A83B2B9
:1082D000B3521BB218460393FBF7A0FC2168FBF7CF
:1082E000F1FCFBF7B5FE039B3A461FFA80FB2968B9
:1082F00003EB08002346FFF797F9DFF80C82D5F867
:1083000000C0A468584426F808006046D7F808B0B2
:1083100059F816900694CDF80CC0FBF787F8044680
:1083200058460D46FBF782F86A4BCDE9040193F8F5
:10833000BA00FBF76FFCFBF779F85FA3D3E90023E2
:10834000FBF7C8F802460B4600206349FBF7ECF93F
:1083500022462B46FAF70CFF02460B4620462946DA
:10836000FBF7E2F9044678680D46C0EB0900FBF71D
:1083700055FCDDF80CC06146FBF758FD5946FBF78C
:1083800097FBFBF753F802460B4620462946FBF7BE
:10839000A1F80B460246DDE90401FAF7E9FEFBF716
:1083A00033FBC7F8049001463861B8600698FBF7C4
:1083B00089FCFBF74DFE49494FF4FA6206F0B0F82C
:1083C00036F80A30464931339BB2622B36F8083012
:1083D00098BF0020184480B226F8080040F6B83252
:1083E00000B206F09DF80A22724328F8060057F8FA
:1083F000141B3C4B0236042ED15000F07C8151E717
:10840000344B2E68B3F9C080374C7308984528BFA9
:10841000984625881FFA88F80FFA88F22BB29A42FC
:108420000ADD32493868FBF74DFCFBF711FE2844A2
:108430001FFA80F8A4F800802D4BD9F800401F687F
:108440002C4DE71B3846FFF737FB0028D8BF4042CA
:1084500041F293139842CCBF00200120002855D050
:108460003846FBF7DBFB2449FBF72CFC07F0F8FA56
:1084700007463046FBF7CEFB01463846FBF722FCA9
:10848000FBF7E6FD1D4B80B21880154900B240F69F
:10849000B83206F045F848F6A0432044984203DD80
:1084A000A0F50C40A03804E00028BCBF00F50C404B
:1084B000A03028602BE000BF182D4454FB21194048
:1084C0000C080020C008002094080020D0080020DC
:1084D00034080020901300200000F03F30F8FFFF28
:1084E00048F4FFFFE4080020380900200000C842DB
:1084F0001C090020AC080020D302373940080020B6
:10850000DC0800203C090020BE1800202C602868F0
:108510007D4FC0F50C502830FBF780FB7B49FBF703
:10852000D1FB044607F028FA0D90204607F098FA90
:1085300000260C900FFA88F0FBF770FB0CAB53F899
:108540001610FBF7BFFB724B0446985FFBF766FB08
:1085500001462046FBF7ACFAFBF77AFDDFF8F09115
:1085600080B24FF47A7226F809006A4900B205F029
:10857000D7FF80B20FFA80FA674C26F80900504600
:10858000FBF74CFB2168FBF79DFBFBF761FD634D9F
:1085900080B23A462346296806905046FFF744F8D1
:1085A000D5F800C0A46804906046D7F808B036F942
:1085B00009900794CDF80CC0FAF738FF04465846E6
:1085C0000D46FAF733FFDFF88CA1CDE908019AF8E0
:1085D000BA00FBF71FFBFAF729FF49A3D3E90023F1
:1085E000FAF778FF02460B4600204D49FBF79CF84E
:1085F00022462B46FAF7BCFD02460B46204629468A
:10860000FBF792F8044678680D46C0EB0900FBF7CB
:1086100005FBDDF80CC06146FBF708FC5946FBF78B
:1086200047FAFAF703FF02460B4620462946FAF7B7
:1086300051FF0B460246DDE90801FAF799FDFBF709
:10864000E3F9069C01463861B8600498C7F80490C5
:1086500004440798FBF736FBFBF7FAFC2044314C47
:1086600080B23053304940F6B83200B205F058FFBE
:108670000A2272432D4BA05357F8141B0236042EC6
:10868000D15053467FF456AF93F8BC2032B1284AFC
:108690001168642291FBF2F1264A1180264AB3F850
:1086A000B83012689A420DD9244B1868244B1B68C5
:1086B000C01AFFF701FA42F210730028B8BF404217
:1086C000984218DD1F4B01221A701F4B1A88194B54
:1086D0001A8010E092781D4B522A7FF4E5AADA78CE
:1086E0004D2A7FF4E1AA1B79432B7FF4DDAA0223F4
:1086F0000B70FFF7D9BA0FB0BDE8F08FAFF3008071
:10870000182D4454FB211940E4080020D3023739C6
:10871000DC08002018FCFFFF48080020D0080020DB
:108720000000F03FBE18002048F4FFFF0C080020B6
:10873000AC08002094190020180900200C09002022
:108740001C090020910B0020AA08002058080020D6
:1087500034080020901300202DE9F84F384E0446CD
:108760003768384607F008F90546384607F078F9C3
:1087700076688046304607F0FFF88346304607F0BB
:108780006FF9D4F80490064629464846FBF79AFA52
:10879000A768824641463846FBF794FA01465046A0
:1087A000FBF786F9216882465846FBF78BFA41466B
:1087B00004464846FBF786FA3146FBF783FA014642
:1087C0002046FBF777F9314604463846FBF77AFA3C
:1087D0002946FBF777FA01462046FBF76BF901467D
:1087E000504607F07BF91749FBF76CFAFAF71EFEC3
:1087F00011A3D3E90023FAF797FF134B0446186837
:108800000D46FAF713FE02460B4620462946FAF7B4
:10881000AFFC00220D4BFAF787FFFBF7F5F807F0E6
:10882000E1F883B21A0444BF00F5B4739BB218B2E6
:10883000BDE8F88FAFF30080182D4454FB210940A8
:108840006C0A00200000E144280A002000002440B7
:108850000F4B10B51888FBF7E1F90E490446FBF7FA
:1088600031FAFBF7F5FB0C4B214618800B48FBF760
:10887000DDFA0B49FBF7DAFA0A4B18600820FEF71D
:10888000B1FC18B1BDE8104003F056B810BD00BFF0
:1088900046000020C903683F260A00200AE81C4160
:1088A00000401C46081800202DE9F04F0C68836832
:1088B00089B0D0F800A0D0F8048006462046039383
:1088C0008B4607F059F80746204607F0C9F8DBF851
:1088D00004408146204607F04FF80546204607F041
:1088E000BFF8DBF8082004461046019207F044F870
:1088F000019A8346104607F0B3F83946029058466D
:10890000FBF7E0F9394604900298FBF7DBF959468A
:1089100005904846FBF7D6F9029906904846FBF7C2
:10892000D1F9294607905846FBF7CCF90146504645
:10893000FBF7C8F9214683460698FBF7C3F90146C1
:108940000598FBF7B7F801464046FBF7BBF901462F
:108950005846FBF7AFF8214683460498FBF7B2F977
:1089600001460798FBF7A4F801460398FBF7AAF91C
:1089700001465846FBF79EF83060029905F1004029
:10898000FBF7A0F901465046FBF79CF921468346C8
:108990000798FBF797F901460498FBF789F8014619
:1089A0004046FBF78FF901465846FBF783F821460E
:1089B00083460598FBF786F901460698FBF77AF897
:1089C00001460398FBF77EF901465846FBF772F81B
:1089D000214670605046FBF775F92946044609F1B7
:1089E0000040FBF76FF901464046FBF76BF9014683
:1089F0002046FBF75FF8394604462846FBF762F944
:108A000001460398FBF75EF901462046FBF752F852
:108A1000B06009B0BDE8F08F80EAE073A3EBE073CB
:108A20008B4206DB002801DD401A704702D0084463
:108A300070470020704700002DE9F041564B86B08A
:108A40001A685B6802F1004203F100430193534B43
:108A50000646B3F900000092FBF7E0F800F1004091
:108A6000FAF7E4FC4AA3D3E90023FAF733FDFAF757
:108A7000CBFF4B4C0290B4F90000FBF7CFF803900A
:108A8000B4F90200FBF7CAF80490B4F90400FBF74C
:108A9000C5F8444C0590694603A8FFF705FF94F814
:108AA0003C30012B15D1404B404D5B7863B92B68AE
:108AB000402093FBF0F0181AFBF7B0F80599FAF78D
:108AC000F9FFFBF7C5FA28602868402390FBF3F014
:108AD00001E0374B1888FBF7A1F801460598FAF733
