:020000040800F2
:10000000005000206905000810B540F6D1740020AA
:10001000C0F60004A0470120A04710BDF0B5234B57
:1000200085B09847002422488047224D0222224B67
:100030004FF47A7120460094A84720461F4988470C
:100040001F4A1378012B05D020461E4988470020FF
:1000500005B0F0BD1C4C1D4E1D4D1E4F0020A0478D
:100060000DF10F0128B10020B0479DF80F007F2847
:1000700014D00020A8470028F0DD00200DF10F016A
:10008000B8479DF80F207F2AE8D1134B0021792033
:10009000124A1970904712488047D8E70E4B052145
:1000A00079200E4A19709047F5E700BF3506000821
:1000B000E5000008A50D000809000008C50D0008AE
:1000C000B5000020390500083D1000087510000833
:1000D0001D0E0008C50E0008B400002065010008D0
:1000E000AD03000808B540F2F503C0F600039847D9
:1000F00008BD00BF4FF44063C4F20103196840F625
:100100000C4221F00F0018601968C4F20102196056
:10011000186840F6084140F0080018601368C4F2FF
:10012000010123F0010010600A6812F0010110D0F3
:10013000094A01201070094B002103F180005A1C6C
:100140005970023383425170F9D105480021017082
:100150007047014B1970EEE7B5000020B700002092
:10016000B400002008B540F2B402C2F2000240F62A
:1001700011130146C0F600031078984708BD00BF70
:1001800008B540F2B402C2F2000240F6D103107882
:10019000C0F60003984708BD38B5134DA84731286D
:1001A000044607D00CD9732804D011D97F2802D077
:1001B000FF2811D1A84779200C4A9047204638BD26
:1001C0000228F7D00DD91128F4D0212804D1F1E765
:1001D000A0F14303012BEDD91F2004498847204695
:1001E00038BD0028E6D0F7E7810100086501000866
:1001F00000B5042383B012488DF8073080473520BE
:1002000010498847104B002103F180005A1C597097
:10021000023383425170F9D14FF44050C0F60000D0
:100220000A4988478DF807009DF80730084A0120E1
:10023000042B107002D007488047002003B000BD97
:100240002D11000861110008B70000202D120008D0
:10025000B80000204D11000870B542F6FF73C0F6DB
:100260000003042282B098428DF807200AD900F1D9
:100270007844A4F540500D4D840A2E5D26B101202E
:1002800002B070BD0020FBE704F500310C3188029C
:10029000074B98478DF807009DF8070001220428B6
:1002A0002A55ECD0034988473046E9E7B8000020DA
:1002B0002D1200084D1100082DE9F0439708BB07E7
:1002C00083B0384B18BF013780460C46984700284A
:1002D00064D0AFB362782578A078E178130243EA5E
:1002E000004245EA0161C4EB0808DFF8BC9004EB6A
:1002F00008001143C8478DF807009DF807007D1ED0
:10030000042805F0010549D101260434BE4217D066
:1003100065B363782278A078E1781B0243EA004352
:1003200042EA016108EB04001943C8478DF8070051
:100330009DF80720042A31D102260434BE4215D18B
:1003400001202CE063792279E978A4791B0243EA41
:10035000044442EA01612143C8478DF807009DF833
:1003600007002C1D042819D1BE42E9D063782278F9
:10037000A078E1781B0243EA004342EA0161194395
:1003800008EB0400C84702468DF807209DF80710C7
:10039000251D0236042908EB0500D3D0002003B048
:1003A000BDE8F08359020008DD1100082DE9F04F87
:1003B00043F2040341F2100041F20C01D3B0C0F645
:1003C0000003C4F20200C4F20201DFF86881574F53
:1003D000574D07AC059303900491C047002863D0A4
:1003E000022800F08880432800F08E80312861D1F7
:1003F000A84706462070A84746406070A847464078
:10040000A070A8474640E070A847237861781A0694
:1004100094F802B042EA0141E37841EA0B2242EA51
:100420000301864202917DD01F20B847A8470646A7
:10043000A84706F1010A86EA0003207006F00100D1
:100440000126B2453A4A5FFA83FB18D940B10192BE
:10045000A84702266070B2458BEA000B019A0ED9BC
:10046000A847A0558BEA000BA84706F10109023600
:10047000B24504F809002E4A8BEA000BF0D89047E9
:10048000029B064603F5405040F2B92321465246EE
:10049000C0F600039847B34501D101283FD01F2083
:1004A000B847C04700289BD1B8472220B8477920D9
:1004B000B84792E7212890D1A8472070A8476070DC
:1004C000A847A070A84740F6D956E070A847792001
:1004D000B847C0F600066420B0470598039E01683F
:1004E00004984FF0FF3232600260039A00231360D9
:1004F0000360884771E70120B8470420B8471020FF
:10050000B8477920B84768E7A8472070A84740F265
:10051000F111C0F60001607088470128BFD1792031
:10052000B8475AE77920B84780E700BF650100085F
:10053000810100089901000810B541F2100243F250
:10054000040441F20C03C4F202024FF0FF30C4F283
:1005500002030021C0F600042468106018601160D6
:100560001960A04710BD00BF684620F007018D4606
:1005700079B52A492A4B99421BD2DA1C0C1D151B4E
:10058000284825F00302161D05680423B3420D60B8
:10059000C2F380020DD022B142680823B342226028
:1005A00007D01D581A1D5D5084580833B3428C5033
:1005B000F7D11E481E494FF000028842B8BF40F8EC
:1005C000042BFFF6FAAF4FF48052C4F20202116816
:1005D00042F6104341F48030106004E0106881035B
:1005E00005D4013B03D01168013B8803F6D54FF4D5
:1005F0000051C4F202010A6842F0100008600B6862
:1006000023F003020A60086840F002030B60064909
:100610008847BDE879408546704700BF000000204C
:1006200000000020741200081D00000800000020D7
:10063000B8100020F8B540F65113C0F600039847F3
:1006400040F6E510C0F60000804740F604064FF47F
:10065000006E43F2B3474FF4406540F6044441F264
:10066000040144F244404FF03332C4F2010EC3F2AD
:100670004430C4F20101C4F20106C3F23337C4F2BC
:100680000105C4F2010440F68103CEF80020C0F653
:10069000000337602A6022600860984740F63521E1
:1006A000C0F60001884740F66970C0F60000804738
:1006B000F8BD00BF00B544F20443C4F2000318685B
:1006C00083B002A901F8010D054A012090470549B0
:1006D0004B6913B19DF80700984703B000BD00BFF8
:1006E0004D0E00083801002000B543F60403C4F2A3
:1006F0000103186883B002A901F8010D054A002022
:10070000904705498B6813B19DF80700984703B0DF
:1007100000BD00BF4D0E0008380100204FF46052AC
:10072000C4F2010213681B06FCD543F60401C4F2AF
:1007300001010860704700BF2DE9F04141F2180641
:10074000C4F20206356840F23813C2F2000343F6E1
:100750000C0443F6100C43F6140E43F608075860D9
:100760009960C4F20104002245F48048C4F2010CEF
:10077000C4F2010E0C2040F27121C4F201074EF2C6
:100780000415C6F80080CEF200052060CCF80020E9
:10079000CEF8002039602B6843F0200028602168E3
:1007A00040F6F91341F0200040F2E9612060C0F604
:1007B00000012520C0F600039847226842F400514A
:1007C0002160BDE8F08100BFF8B541F21C04C4F21D
:1007D0000204256840F23812C2F2000245F40036E5
:1007E0004FF4006310615161C4F201032660186880
:1007F00044F20C4420F4706119601F68C4F20004D4
:1008000047F440751D601A6844F2104642F40060D7
:100810001860196844F2144521F470471F601A6883
:1008200044F208401A601968002241F480471F60B2
:100830000C232360C4F200004FF49C73C4F2000642
:10084000C4F200054EF204113260CEF200012A60BB
:100850000360086840F040030B60216840F6F9131C
:1008600041F0200040F2B5612060C0F60001262072
:10087000C0F600039847226842F400512160F8BD99
:1008800040F6ED5310B5C0F60003984740F2381318
:100890000024C2F2000340F2397221465C609C6081
:1008A0001C615C61DC611C629C62DC625C639C6359
:1008B0001C645C644FF4E130C0F60002904740F2E3
:1008C000C9734FF4E1302146C0F60003984710BDCC
:1008D00030B5002383B0052804468DF807300DD0CD
:1008E000084D2046A8470028FBD020460DF10701FF
:1008F000054A90479DF8070003B030BD0348804784
:10090000FAE700BF1D0E0008C50E0008FD0F000825
:10091000012808B50AD005D3052802D108460A4B9C
:10092000984708BD08460949884708BD4FF48842E2
:10093000C4F2000210680006FCD544F20443C4F27D
:100940000003196008BD00BF2D1000081D07000836
:1009500041F20403C4F202031A684FF4805122F4F6
:100960007C1020F0F0021A601868C4F2020140F412
:10097000E8121A600B68084643F080720A6001684A
:100980008B01FCD541F20403C4F2020318681A4635
:1009900020F003011960186840F00201196018681E
:1009A00020F480011960186820F4E061196018686B
:1009B00040F480611960186820F46051196018686B
:1009C0001860136803F00C010829FAD141F21800ED
:1009D000C4F20200026842F4804343F01D0101604A
:1009E000704700BF40F200234EF60852C2F20003E7
:1009F000CEF200021360704740F200231030C2F2C2
:100A0000000343F82010704740F200238008C2F230
:100A1000000343F82010704708B540F6955140F6A2
:100A200009233C20C0F600010022C0F600039847CD
:100A300008BD00BF38B5334D2B78012B61D032484B
:100A4000002404704480848084600474448284821E
:100A5000846180F8204044848484846280F830403B
:100A600044868486846380F84040A0F84240A0F821
:100A70004440846480F85040A0F85240A0F85440AC
:100A8000846580F86040A0F86240A0F86440846605
:100A900080F87040A0F87240A0F87440846780F835
:100AA00080401A49A0F88240A0F88440C0F88840ED
:100AB00080F89040A0F89240A0F89440C0F8984088
:100AC00088474EF2140141F63F104EF21802CEF262
:100AD0000001C0F20100CEF200024EF210030860E5
:100AE000CEF200031460196841F0040018601A681F
:100AF00042F002011960186840F001021A600123F7
:100B00002B7038BDA000002000000020190A00084A
:100B10009D4A9E4B116810B5481C10601C88A2B2FB
:100B20001AB11988481E84B21C80994C2378012B75
:100B300030D0207C964A01283ED094F82000944A78
:100B400001284CD094F83000914A01285BD094F8E9
:100B500040008F4A01286AD094F850008C4A01283E
:100B60007DD094F860008A4A012800F0918094F8C2
:100B70007000874A012800F0A48094F88000844A1D
:100B8000012800F0B78094F89000814A012800F015
:100B9000CB8010BD6288511E88B260800028C8D109
:100BA0006378012B00F0D980A288A1686280884711
:100BB000207C774A0128C0D1538A591E88B25082BE
:100BC0000028BAD1537C012B00F0C580A28AA1690C
:100BD0006282884794F820006D4A0128B2D1538C74
:100BE000591E88B250840028ACD192F82130012BD4
:100BF00000F0C780A28CA16A6284884794F8300014
:100C0000634A0128A3D1538E591E88B2508600280A
:100C10009DD192F83130012B00F0B080A28EA16BF3
:100C20006286884794F84000594A012894D1B2F866
:100C30004230591E88B2A2F8420000288CD192F8A6
:100C40004130012B00F09780B4F84420A16CA4F847
:100C50004220884794F850004D4A012881D1B2F8CB
:100C60005230591E88B2A2F8520000287FF479AFA2
:100C700092F85130012B7BD0B4F85420A16DA4F828
:100C80005220884794F86000414A01287FF46FAFF2
:100C9000B2F86230591E88B2A2F8620000287FF4D0
:100CA00066AF92F86130012B5FD0B4F86420A16E7A
:100CB000A4F86220884794F87000354A01287FF430
:100CC0005CAFB2F87230591E88B2A2F872000028E8
:100CD0007FF453AF92F87130012B43D0B4F87420F5
:100CE000A16FA4F87220884794F88000284A012850
:100CF0007FF449AFB2F88230591E88B2A2F8820060
:100D000000287FF440AF92F88130012B27D0B4F84F
:100D10008420D4F88810A4F88220884794F89000A2
:100D20001B4A01287FF435AFB2F89230591E88B2C1
:100D3000A2F8920000287FF42CAF92F89130D4F8FA
:100D40009810012B08BF82F89000B4F89420A4F802
:100D50009220884710BD107438E7207024E782F88D
:100D60008000D4E782F87000B8E782F860009CE762
:100D700082F8500080E782F8400065E782F8300092
:100D80004CE782F8200035E7A4000020A8000020EE
:100D90000000002008B540F61133C0F60003984764
:100DA00008BD00BF10B440F20004C2F2000404EB1E
:100DB00000108360019B4270C3604180818010BC41
:100DC000704700BF092803D8024B000101221A54C2
:100DD000704700BF00000020034A1080138898B2BB
:100DE0000028FBD1704700BFA800002040F28841D6
:100DF00040F298420023C2F20001C2F200020B80CE
:100E000013804B8053808B809380CB80D3800B8169
:100E100013814B8153818B8193817047094B0A4920
:100E200033F9102031F910301F20D21A2032C8F2C5
:100E300000001040002800DB7047013860F01F01FF
:100E4000481C704798040020880400201A4A1B4B55
:100E5000F0B432F8105033F910602CB21F23A61BE7
:100E60002036C8F200033340002B18DB1F2B1CD0A8
:100E70000135ADB21F230E78C8F2000329B20B4032
:100E800000EB40170E493C19002B0E5522F810506C
:100E90000DDB094921F810300120F0BC7047013BFF
:100EA00063F01F0301331F2BE2D10020F5E75A1E28
:100EB00062F01F030133ECE798040020880400204F
:100EC000900300201A4A1B4B70B432F8105033F9CB
:100ED00010602CB21F23361B2036C8F200033340AB
:100EE000002B17DBE3B100EB401601353419124E2D
:100EF000ADB21F23345DC8F200032EB23340002B85
:100F00000C7022F810500DDB094921F81030012037
:100F100070BC7047013B63F01F030133002BE2D12B
:100F20001846F5E7591E61F01F02531CECE700BF9D
:100F300088040020980400209003002040B940F667
:100F40000C41C4F201010B6843F010020A607047C3
:100F5000012800D0704740F60C43C4F201031A6820
:100F600042F02000186070470422C4F201021168A8
:100F700010B521F0E060106014684FF4406344F055
:100F800080611160C4F201031A6840F60C4122F43A
:100F9000702018601C68C4F2010144F440321A60E9
:100FA000186840F63D7218601C68012024F0F05467
:100FB0001C601C68C0F6000244F0C0641C601C6821
:100FC0001C600B6843F010030B60904710BD00BF1E
:100FD00040B940F60C41C4F201010B6883F01002E5
:100FE0000A607047012800D0704740F60C43C4F2F5
:100FF00001031A6882F020001860704710B50023C2
:1010000082B0084C8DF807300020A0470028FBD0A4
:1010100000200DF10701044A90479DF8070002B037
:1010200010BD00BF3D1000087510000808B541F262
:10103000F503C0F60003984708BD00BF0B4B0C49F1
:1010400033F9102031F9103040F2FF30D21A02F596
:101050008061C8F200000840002800DB70470138BA
:101060006FEA80536FEA9352501C7047B00800201B
:10107000AC0800201C4B30B41C4C33F8102034F961
:10108000105014B22D1B40F2FF3305F58065C8F2F5
:1010900000032B40002B15DBE3B100EB80252C195E
:1010A000013240F2FF33124D12B2C8F200032C5D40
:1010B0001340002B0C700FDB0B4921F8103001207E
:1010C00030BC7047013B6FEA83536FEA935301339F
:1010D000002BE2D11846F3E7591E6FEA81536FEAFD
:1010E0009352531CE8E700BFAC080020B008002072
:1010F000A80400200A4B10B419684A1CB2F5006F0E
:101100000CD2084B084C19684A1CB2F5006F6054A9
:101110001A6001D10020186010BC7047FEE700BFC4
:10112000B0000020AC000020B80800204FF40053AD
:1011300040F2231148F6AB12C4F20203C4F2675125
:10114000CCF6EF5259605A60704700BF4FF400531D
:10115000C4F202031A6942F080001861704700BFB0
:101160004FF40053C4F20203D86070474FF40053A9
:10117000C4F20203DA68D1070BD4D868420701D55C
:1011800002207047D96811F0100F0CBF0420032013
:1011900070470120704700BFF0B50F4D83B0044683
:1011A000A847012815D18CB10027FF260197019689
:1011B000019B2BB10198411E0191019A002AF9D19E
:1011C000A847013C012804D1002CEFD1052003B031
:1011D000F0BD002CFBD1F9E76D110008F8B505460C
:1011E000114C0F200E46A047042800D0F8BD4FF444
:1011F0000057C4F202073A69B3B242F00100386105
:101200000F202B80A047042809D0012805D0396978
:1012100041F6FE720A403A61F8BD0120F8BD360C75
:101220006E800F20A047F0E79911000870B50646C0
:101230000F4C40F6FF70A047042800D070BD4FF45B
:101240000055C4F202052B6940F6FF7043F002011D
:1012500029616E612A6942F040032B61A047012891
:10126000ECD0296941F6FD720A402A6170BD00BFC9
:0412700099110008C8
:040000050800056981
:00000001FF
